20230112-20:04:00.000000000 : 8=FIX.4.2|9=174|35=A|34=1|49=YOUR_SVC_ACCOUNT_ID|52=20230112-20:04:00.000|56=COIN|96=q3S0RsiuHtpZigiTuhQyFUJdhc6CI6gRcgchntSCMA8=|98=0|108=30|141=Y|554=YOUR_API_PASSPHRASE|9407=YOUR_API_KEY|10=254|
20230112-20:04:00.000000000 : 8=FIX.4.2|9=107|35=3|34=1|49=COIN|52=20230112-20:04:00.576|56=YOUR_SVC_ACCOUNT_ID|45=1|58=auth failed|371=10|372=A|373=abc|10=035|
20230112-20:04:10.000000000 : 8=FIX.4.2|9=174|35=A|34=1|49=YOUR_SVC_ACCOUNT_ID|52=20230112-20:04:10.000|56=COIN|96=e2edf55DbPAalUujGxecQiE4AExuuTYRVpYMiPi5Rrw=|98=0|108=30|141=Y|554=YOUR_API_PASSPHRASE|9407=YOUR_API_KEY|10=234|
20230112-20:04:10.000000000 : 8=FIX.4.2|9=107|35=3|34=1|49=COIN|52=20230112-20:04:10.377|56=YOUR_SVC_ACCOUNT_ID|45=1|58=auth failed|371=10|372=A|373=abc|10=035|
20230112-20:04:20.000000000 : 8=FIX.4.2|9=174|35=A|34=1|49=YOUR_SVC_ACCOUNT_ID|52=20230112-20:04:20.000|56=COIN|96=UzMxA/uwn5ddVMBG2utpSmlwBbNOYtrDB1VyFJNxmvo=|98=0|108=30|141=Y|554=YOUR_API_PASSPHRASE|9407=YOUR_API_KEY|10=071|
20230112-20:04:20.000000000 : 8=FIX.4.2|9=107|35=3|34=1|49=COIN|52=20230112-20:04:20.777|56=YOUR_SVC_ACCOUNT_ID|45=1|58=auth failed|371=10|372=A|373=abc|10=040|
