20230112-19:59:23.000000000 : 8=FIX.4.2|9=191|35=A|34=1|49=8e286475-d22e-57e5-a013-c32f34b696ef|52=20230112-19:59:23.000|56=COIN|96=UT2TVpydaHFVRzzoPHQYz4i1gbnCQ2UThfRQqN2B8KI=|98=0|108=30|141=Y|554=YOUR_API_PASSPHRASE|9407=YOUR_API_KEY|10=146|
20230112-19:59:23.000000000 : 8=FIX.4.2|9=124|35=3|34=1|49=COIN|52=20230112-19:59:23.947|56=8e286475-d22e-57e5-a013-c32f34b696ef|45=1|58=auth failed|371=10|372=A|373=abc|10=105|
20230112-19:59:33.000000000 : 8=FIX.4.2|9=191|35=A|34=1|49=8e286475-d22e-57e5-a013-c32f34b696ef|52=20230112-19:59:33.000|56=COIN|96=rQnRSfNF0sLBFfUD+wml4cQPZsV1UCOvPYmqhD/wMOI=|98=0|108=30|141=Y|554=YOUR_API_PASSPHRASE|9407=YOUR_API_KEY|10=143|
20230112-19:59:33.000000000 : 8=FIX.4.2|9=124|35=3|34=1|49=COIN|52=20230112-19:59:33.771|56=8e286475-d22e-57e5-a013-c32f34b696ef|45=1|58=auth failed|371=10|372=A|373=abc|10=101|
20230112-20:07:20.000000000 : 8=FIX.4.2|9=252|35=A|34=1|49=8e286475-d22e-57e5-a013-c32f34b696ef|52=20230112-20:07:20.000|56=COIN|96=LArUQTukIdnsQm7E81USubEfDRGlixBleoflxBCpi30=|98=0|108=30|141=Y|554=5Rb5KFBCGLQ=d07//7PUinHsgigATi6Ocw==|9407=ZdlFsitVWo4=lFc2wIDLDmpyIHRqD6lATyJnxSHdQU9FmsraK7Ow3Wc=|10=133|
20230112-20:07:20.000000000 : 8=FIX.4.2|9=101|35=A|34=1|49=COIN|52=20230112-20:07:21.012|56=8e286475-d22e-57e5-a013-c32f34b696ef|98=0|108=30|141=Y|10=134|
20230112-20:07:39.000000000 : 8=FIX.4.2|9=211|35=D|34=2|49=8e286475-d22e-57e5-a013-c32f34b696ef|52=20230112-20:07:39.000|56=COIN|1=314dbd76-4459-41cd-ba9a-dccdd86b44e2|11=0d4cb087-d8d8-4f71-a9e2-67442da9db7b|38=0.001|40=2|44=1000|54=1|55=ETH-USD|59=1|847=L|10=100|
20230112-20:07:39.000000000 : 8=FIX.4.2|9=388|35=8|34=2|49=COIN|52=20230112-20:07:39.700|56=8e286475-d22e-57e5-a013-c32f34b696ef|1=314dbd76-4459-41cd-ba9a-dccdd86b44e2|6=0.0|11=0d4cb087-d8d8-4f71-a9e2-67442da9db7b|14=0|17=1202f78c-56c0-40f5-bfab-9505e874cb5d|20=0|32=0.0|37=281b8e61-1e45-4dd6-96f7-bfbf1900d5f6|38=0.001|39=A|54=1|55=ETH-USD|60=20230112-20:07:39.677|78=1|79=314dbd76-4459-41cd-ba9a-dccdd86b44e2|80=0.0|150=A|151=0.001|10=158|
20230112-20:07:39.000000000 : 8=FIX.4.2|9=388|35=8|34=3|49=COIN|52=20230112-20:07:39.721|56=8e286475-d22e-57e5-a013-c32f34b696ef|1=314dbd76-4459-41cd-ba9a-dccdd86b44e2|6=0.0|11=0d4cb087-d8d8-4f71-a9e2-67442da9db7b|14=0|17=d794d1ed-e4c9-4e03-8ed9-1a0c18193939|20=0|32=0.0|37=281b8e61-1e45-4dd6-96f7-bfbf1900d5f6|38=0.001|39=0|54=1|55=ETH-USD|60=20230112-20:07:39.708|78=1|79=314dbd76-4459-41cd-ba9a-dccdd86b44e2|80=0.0|150=0|151=0.001|10=094|
20230112-20:07:43.000000000 : 8=FIX.4.2|9=83|35=5|34=3|49=8e286475-d22e-57e5-a013-c32f34b696ef|52=20230112-20:07:43.000|56=COIN|10=016|
20230112-20:07:43.000000000 : 8=FIX.4.2|9=83|35=5|34=4|49=COIN|52=20230112-20:07:43.877|56=8e286475-d22e-57e5-a013-c32f34b696ef|10=039|
20230112-20:07:43.000000000 : 8=FIX.4.2|9=83|35=5|34=4|49=8e286475-d22e-57e5-a013-c32f34b696ef|52=20230112-20:07:43.000|56=COIN|10=017|
20230112-20:11:04.000000000 : 8=FIX.4.2|9=252|35=A|34=1|49=8e286475-d22e-57e5-a013-c32f34b696ef|52=20230112-20:11:04.000|56=COIN|96=mkW4UbygB7T/JgtZngyHc5mFTG75+j9AppCn0i6lINM=|98=0|108=30|141=Y|554=5Rb5KFBCGLQ=d07//7PUinHsgigATi6Ocw==|9407=ZdlFsitVWo4=lFc2wIDLDmpyIHRqD6lATyJnxSHdQU9FmsraK7Ow3Wc=|10=179|
20230112-20:11:04.000000000 : 8=FIX.4.2|9=101|35=A|34=1|49=COIN|52=20230112-20:11:04.602|56=8e286475-d22e-57e5-a013-c32f34b696ef|98=0|108=30|141=Y|10=135|
20230112-20:11:34.000000000 : 8=FIX.4.2|9=83|35=0|34=2|49=8e286475-d22e-57e5-a013-c32f34b696ef|52=20230112-20:11:34.000|56=COIN|10=005|
20230112-20:11:34.000000000 : 8=FIX.4.2|9=83|35=0|34=2|49=COIN|52=20230112-20:11:34.602|56=8e286475-d22e-57e5-a013-c32f34b696ef|10=013|
20230112-20:11:34.000000000 : 8=FIX.4.2|9=211|35=D|34=3|49=8e286475-d22e-57e5-a013-c32f34b696ef|52=20230112-20:11:34.000|56=COIN|1=314dbd76-4459-41cd-ba9a-dccdd86b44e2|11=b5cba856-9953-452a-a9d0-09ee0f89a095|38=0.001|40=2|44=1000|54=1|55=ETH-USD|59=1|847=L|10=253|
20230112-20:11:34.000000000 : 8=FIX.4.2|9=388|35=8|34=3|49=COIN|52=20230112-20:11:34.854|56=8e286475-d22e-57e5-a013-c32f34b696ef|1=314dbd76-4459-41cd-ba9a-dccdd86b44e2|6=0.0|11=b5cba856-9953-452a-a9d0-09ee0f89a095|14=0|17=26db4c5f-facd-4d4a-9fa4-9cc02cfa36a1|20=0|32=0.0|37=56fd0bc6-b27e-4411-97a8-65cb27f3d78c|38=0.001|39=A|54=1|55=ETH-USD|60=20230112-20:11:34.840|78=1|79=314dbd76-4459-41cd-ba9a-dccdd86b44e2|80=0.0|150=A|151=0.001|10=068|
20230112-20:11:34.000000000 : 8=FIX.4.2|9=388|35=8|34=4|49=COIN|52=20230112-20:11:34.889|56=8e286475-d22e-57e5-a013-c32f34b696ef|1=314dbd76-4459-41cd-ba9a-dccdd86b44e2|6=0.0|11=b5cba856-9953-452a-a9d0-09ee0f89a095|14=0|17=d80b799d-a31b-49d4-89fa-57ee03f81b19|20=0|32=0.0|37=56fd0bc6-b27e-4411-97a8-65cb27f3d78c|38=0.001|39=0|54=1|55=ETH-USD|60=20230112-20:11:34.874|78=1|79=314dbd76-4459-41cd-ba9a-dccdd86b44e2|80=0.0|150=0|151=0.001|10=048|
20230112-20:12:04.000000000 : 8=FIX.4.2|9=83|35=0|34=4|49=8e286475-d22e-57e5-a013-c32f34b696ef|52=20230112-20:12:04.000|56=COIN|10=005|
20230112-20:12:04.000000000 : 8=FIX.4.2|9=83|35=0|34=5|49=COIN|52=20230112-20:12:04.890|56=8e286475-d22e-57e5-a013-c32f34b696ef|10=023|
20230112-20:12:19.000000000 : 8=FIX.4.2|9=83|35=5|34=5|49=8e286475-d22e-57e5-a013-c32f34b696ef|52=20230112-20:12:19.000|56=COIN|10=017|
20230112-20:12:19.000000000 : 8=FIX.4.2|9=83|35=5|34=6|49=COIN|52=20230112-20:12:19.148|56=8e286475-d22e-57e5-a013-c32f34b696ef|10=031|
20230112-20:12:19.000000000 : 8=FIX.4.2|9=83|35=5|34=6|49=8e286475-d22e-57e5-a013-c32f34b696ef|52=20230112-20:12:19.000|56=COIN|10=018|
20230112-20:13:40.000000000 : 8=FIX.4.2|9=252|35=A|34=1|49=8e286475-d22e-57e5-a013-c32f34b696ef|52=20230112-20:13:40.000|56=COIN|96=+t1WgHu+Rd2K/LuI1wtm4icw5jEgXulx9/xEqejx6m0=|98=0|108=30|141=Y|554=5Rb5KFBCGLQ=d07//7PUinHsgigATi6Ocw==|9407=ZdlFsitVWo4=lFc2wIDLDmpyIHRqD6lATyJnxSHdQU9FmsraK7Ow3Wc=|10=039|
20230112-20:13:41.000000000 : 8=FIX.4.2|9=101|35=A|34=1|49=COIN|52=20230112-20:13:41.029|56=8e286475-d22e-57e5-a013-c32f34b696ef|98=0|108=30|141=Y|10=141|
20230112-20:16:51.000000000 : 8=FIX.4.2|9=252|35=A|34=1|49=8e286475-d22e-57e5-a013-c32f34b696ef|52=20230112-20:16:51.000|56=COIN|96=WZUuQrms01ZrGq00mZ+A/IWbJBIHbzB1NGVQuydAMcM=|98=0|108=30|141=Y|554=5Rb5KFBCGLQ=d07//7PUinHsgigATi6Ocw==|9407=ZdlFsitVWo4=lFc2wIDLDmpyIHRqD6lATyJnxSHdQU9FmsraK7Ow3Wc=|10=157|
20230112-20:16:51.000000000 : 8=FIX.4.2|9=101|35=A|34=1|49=COIN|52=20230112-20:16:51.532|56=8e286475-d22e-57e5-a013-c32f34b696ef|98=0|108=30|141=Y|10=144|
20230112-20:17:09.000000000 : 8=FIX.4.2|9=205|35=D|34=2|49=8e286475-d22e-57e5-a013-c32f34b696ef|52=20230112-20:17:09.000|56=COIN|1=314dbd76-4459-41cd-ba9a-dccdd86b44e2|11=196e4311-f2f7-40c8-9539-a934984c1368|38=0.00001|40=1|54=1|55=ETH-USD|59=3|847=M|10=028|
20230112-20:17:09.000000000 : 8=FIX.4.2|9=290|35=8|34=2|49=COIN|52=20230112-20:17:09.178|56=8e286475-d22e-57e5-a013-c32f34b696ef|6=0.00|11=196e4311-f2f7-40c8-9539-a934984c1368|14=0.00|17=56f0c93c-58da-4e7c-bfdb-06c045998c24|20=0|37=NONE|39=8|54=1|55=ETH-USD|58=Size was lower than minimum base size.|103=99|150=8|151=0.0000100000000000|10=117|
20230112-20:18:08.000000000 : 8=FIX.4.2|9=252|35=A|34=1|49=8e286475-d22e-57e5-a013-c32f34b696ef|52=20230112-20:18:08.000|56=COIN|96=VHpFDEkD3fTCYYlqVgdySxpKtaxMPXThuo3JUHDhkj0=|98=0|108=30|141=Y|554=5Rb5KFBCGLQ=d07//7PUinHsgigATi6Ocw==|9407=ZdlFsitVWo4=lFc2wIDLDmpyIHRqD6lATyJnxSHdQU9FmsraK7Ow3Wc=|10=186|
20230112-20:18:09.000000000 : 8=FIX.4.2|9=101|35=A|34=1|49=COIN|52=20230112-20:18:09.076|56=8e286475-d22e-57e5-a013-c32f34b696ef|98=0|108=30|141=Y|10=152|
20230112-20:18:22.000000000 : 8=FIX.4.2|9=210|35=D|34=2|49=8e286475-d22e-57e5-a013-c32f34b696ef|52=20230112-20:18:22.000|56=COIN|1=314dbd76-4459-41cd-ba9a-dccdd86b44e2|11=702718da-e9ff-4fdb-a10d-0b6c445ec56c|38=0.001|40=2|44=101|54=1|55=ETH-USD|59=1|847=L|10=127|
20230112-20:18:22.000000000 : 8=FIX.4.2|9=388|35=8|34=2|49=COIN|52=20230112-20:18:22.571|56=8e286475-d22e-57e5-a013-c32f34b696ef|1=314dbd76-4459-41cd-ba9a-dccdd86b44e2|6=0.0|11=702718da-e9ff-4fdb-a10d-0b6c445ec56c|14=0|17=ff526c1c-4c4c-4b2d-91fd-d843fec6836e|20=0|32=0.0|37=1b1a1655-7609-4e4d-a429-e0df3d5c8108|38=0.001|39=A|54=1|55=ETH-USD|60=20230112-20:18:22.560|78=1|79=314dbd76-4459-41cd-ba9a-dccdd86b44e2|80=0.0|150=A|151=0.001|10=012|
20230112-20:18:22.000000000 : 8=FIX.4.2|9=388|35=8|34=3|49=COIN|52=20230112-20:18:22.604|56=8e286475-d22e-57e5-a013-c32f34b696ef|1=314dbd76-4459-41cd-ba9a-dccdd86b44e2|6=0.0|11=702718da-e9ff-4fdb-a10d-0b6c445ec56c|14=0|17=78cc31c9-f450-4c25-bfa0-083059edad1c|20=0|32=0.0|37=1b1a1655-7609-4e4d-a429-e0df3d5c8108|38=0.001|39=0|54=1|55=ETH-USD|60=20230112-20:18:22.593|78=1|79=314dbd76-4459-41cd-ba9a-dccdd86b44e2|80=0.0|150=0|151=0.001|10=121|
20230112-20:18:52.000000000 : 8=FIX.4.2|9=83|35=0|34=3|49=8e286475-d22e-57e5-a013-c32f34b696ef|52=20230112-20:18:52.000|56=COIN|10=013|
20230112-20:18:52.000000000 : 8=FIX.4.2|9=83|35=0|34=4|49=COIN|52=20230112-20:18:52.605|56=8e286475-d22e-57e5-a013-c32f34b696ef|10=025|
20230112-20:19:22.000000000 : 8=FIX.4.2|9=83|35=0|34=4|49=8e286475-d22e-57e5-a013-c32f34b696ef|52=20230112-20:19:22.000|56=COIN|10=012|
20230112-20:19:22.000000000 : 8=FIX.4.2|9=83|35=0|34=5|49=COIN|52=20230112-20:19:22.605|56=8e286475-d22e-57e5-a013-c32f34b696ef|10=024|
20230112-20:19:52.000000000 : 8=FIX.4.2|9=83|35=0|34=6|49=COIN|52=20230112-20:19:52.606|56=8e286475-d22e-57e5-a013-c32f34b696ef|10=029|
20230112-20:19:52.000000000 : 8=FIX.4.2|9=83|35=0|34=5|49=8e286475-d22e-57e5-a013-c32f34b696ef|52=20230112-20:19:52.000|56=COIN|10=016|
20230112-20:20:22.000000000 : 8=FIX.4.2|9=83|35=0|34=7|49=COIN|52=20230112-20:20:22.606|56=8e286475-d22e-57e5-a013-c32f34b696ef|10=019|
20230112-20:20:22.000000000 : 8=FIX.4.2|9=83|35=0|34=6|49=8e286475-d22e-57e5-a013-c32f34b696ef|52=20230112-20:20:22.000|56=COIN|10=006|
20230112-20:20:52.000000000 : 8=FIX.4.2|9=83|35=0|34=8|49=COIN|52=20230112-20:20:52.607|56=8e286475-d22e-57e5-a013-c32f34b696ef|10=024|
20230112-20:20:52.000000000 : 8=FIX.4.2|9=83|35=0|34=7|49=8e286475-d22e-57e5-a013-c32f34b696ef|52=20230112-20:20:52.000|56=COIN|10=010|
20230112-20:21:22.000000000 : 8=FIX.4.2|9=83|35=0|34=8|49=8e286475-d22e-57e5-a013-c32f34b696ef|52=20230112-20:21:22.000|56=COIN|10=009|
20230112-20:21:22.000000000 : 8=FIX.4.2|9=83|35=0|34=9|49=COIN|52=20230112-20:21:22.607|56=8e286475-d22e-57e5-a013-c32f34b696ef|10=023|
20230112-20:21:52.000000000 : 8=FIX.4.2|9=83|35=0|34=9|49=8e286475-d22e-57e5-a013-c32f34b696ef|52=20230112-20:21:52.000|56=COIN|10=013|
20230112-20:21:52.000000000 : 8=FIX.4.2|9=84|35=0|34=10|49=COIN|52=20230112-20:21:52.608|56=8e286475-d22e-57e5-a013-c32f34b696ef|10=068|
20230112-20:22:07.000000000 : 8=FIX.4.2|9=84|35=5|34=10|49=8e286475-d22e-57e5-a013-c32f34b696ef|52=20230112-20:22:07.000|56=COIN|10=060|
20230112-20:22:07.000000000 : 8=FIX.4.2|9=84|35=5|34=11|49=COIN|52=20230112-20:22:07.312|56=8e286475-d22e-57e5-a013-c32f34b696ef|10=067|
20230112-20:22:07.000000000 : 8=FIX.4.2|9=84|35=5|34=11|49=8e286475-d22e-57e5-a013-c32f34b696ef|52=20230112-20:22:07.000|56=COIN|10=061|
20230112-20:22:08.000000000 : 8=FIX.4.2|9=252|35=A|34=1|49=8e286475-d22e-57e5-a013-c32f34b696ef|52=20230112-20:22:08.000|56=COIN|96=F3imvrEx2g0eorCYme8c6mg7+b7ps1oQ5MqB5lJHtbI=|98=0|108=30|141=Y|554=5Rb5KFBCGLQ=d07//7PUinHsgigATi6Ocw==|9407=ZdlFsitVWo4=lFc2wIDLDmpyIHRqD6lATyJnxSHdQU9FmsraK7Ow3Wc=|10=009|
20230112-20:22:11.000000000 : 8=FIX.4.2|9=252|35=A|34=1|49=8e286475-d22e-57e5-a013-c32f34b696ef|52=20230112-20:22:11.000|56=COIN|96=oNLQYS1IUyMWAL5G282ebeT+vyGw2j/T1nMCdkN9qXQ=|98=0|108=30|141=Y|554=5Rb5KFBCGLQ=d07//7PUinHsgigATi6Ocw==|9407=ZdlFsitVWo4=lFc2wIDLDmpyIHRqD6lATyJnxSHdQU9FmsraK7Ow3Wc=|10=068|
20230112-20:22:11.000000000 : 8=FIX.4.2|9=101|35=A|34=1|49=COIN|52=20230112-20:22:11.501|56=8e286475-d22e-57e5-a013-c32f34b696ef|98=0|108=30|141=Y|10=133|
20230112-20:22:21.000000000 : 8=FIX.4.2|9=210|35=D|34=2|49=8e286475-d22e-57e5-a013-c32f34b696ef|52=20230112-20:22:21.000|56=COIN|1=314dbd76-4459-41cd-ba9a-dccdd86b44e2|11=bc9582fa-f200-4229-a5da-e9eb421c62f3|38=0.001|40=2|44=102|54=1|55=ETH-USD|59=1|847=L|10=022|
20230112-20:22:21.000000000 : 8=FIX.4.2|9=388|35=8|34=2|49=COIN|52=20230112-20:22:21.993|56=8e286475-d22e-57e5-a013-c32f34b696ef|1=314dbd76-4459-41cd-ba9a-dccdd86b44e2|6=0.0|11=bc9582fa-f200-4229-a5da-e9eb421c62f3|14=0|17=058e8abf-55c1-4df1-9206-a3faba16fcb4|20=0|32=0.0|37=c6ef8e55-dce4-4912-8fef-d6b6cbe664e5|38=0.001|39=A|54=1|55=ETH-USD|60=20230112-20:22:21.981|78=1|79=314dbd76-4459-41cd-ba9a-dccdd86b44e2|80=0.0|150=A|151=0.001|10=211|
20230112-20:22:22.000000000 : 8=FIX.4.2|9=388|35=8|34=3|49=COIN|52=20230112-20:22:22.026|56=8e286475-d22e-57e5-a013-c32f34b696ef|1=314dbd76-4459-41cd-ba9a-dccdd86b44e2|6=0.0|11=bc9582fa-f200-4229-a5da-e9eb421c62f3|14=0|17=b996ac01-7a40-4749-ae53-0a3078b9e8f6|20=0|32=0.0|37=c6ef8e55-dce4-4912-8fef-d6b6cbe664e5|38=0.001|39=0|54=1|55=ETH-USD|60=20230112-20:22:22.011|78=1|79=314dbd76-4459-41cd-ba9a-dccdd86b44e2|80=0.0|150=0|151=0.001|10=186|
20230112-20:22:26.000000000 : 8=FIX.4.2|9=83|35=5|34=3|49=8e286475-d22e-57e5-a013-c32f34b696ef|52=20230112-20:22:26.000|56=COIN|10=014|
20230112-20:22:26.000000000 : 8=FIX.4.2|9=83|35=5|34=4|49=COIN|52=20230112-20:22:26.536|56=8e286475-d22e-57e5-a013-c32f34b696ef|10=029|
20230112-20:22:26.000000000 : 8=FIX.4.2|9=83|35=5|34=4|49=8e286475-d22e-57e5-a013-c32f34b696ef|52=20230112-20:22:26.000|56=COIN|10=015|
20230113-15:37:16.000000000 : 8=FIX.4.2|9=252|35=A|34=1|49=8e286475-d22e-57e5-a013-c32f34b696ef|52=20230113-15:37:16.000|56=COIN|96=ExE+btl2MZ/tpaA8QSReQmIoKEsaEU7crBn8wlimuns=|98=0|108=30|141=Y|554=5Rb5KFBCGLQ=d07//7PUinHsgigATi6Ocw==|9407=ZdlFsitVWo4=lFc2wIDLDmpyIHRqD6lATyJnxSHdQU9FmsraK7Ow3Wc=|10=174|
20230113-15:37:16.000000000 : 8=FIX.4.2|9=101|35=A|34=1|49=COIN|52=20230113-15:37:16.833|56=8e286475-d22e-57e5-a013-c32f34b696ef|98=0|108=30|141=Y|10=157|
20230113-15:37:16.000000000 : 8=FIX.4.2|9=381|35=8|34=2|49=COIN|52=20230113-15:37:17.007|56=8e286475-d22e-57e5-a013-c32f34b696ef|1=314dbd76-4459-41cd-ba9a-dccdd86b44e2|6=0.0|11=6d1daca2-4b46-48e8-a589-8248cd44b9f2|14=0|17=842a59e8-1c3b-442d-a21e-68499d6d4e4c|20=0|32=0.0|37=84ef9721-46bd-450c-88f5-c087dee781b4|38=1|39=A|54=1|55=TIME-USD|60=20230113-07:13:33.664|78=1|79=314dbd76-4459-41cd-ba9a-dccdd86b44e2|80=0.0|150=A|151=1|10=241|
20230113-15:37:16.000000000 : 8=FIX.4.2|9=381|35=8|34=3|49=COIN|52=20230113-15:37:17.007|56=8e286475-d22e-57e5-a013-c32f34b696ef|1=314dbd76-4459-41cd-ba9a-dccdd86b44e2|6=0.0|11=6d1daca2-4b46-48e8-a589-8248cd44b9f2|14=0|17=6ca8b719-1da4-4b57-966f-6717e7b4aae2|20=0|32=0.0|37=84ef9721-46bd-450c-88f5-c087dee781b4|38=1|39=0|54=1|55=TIME-USD|60=20230113-07:13:33.698|78=1|79=314dbd76-4459-41cd-ba9a-dccdd86b44e2|80=0.0|150=0|151=1|10=007|
20230113-15:37:16.000000000 : 8=FIX.4.2|9=424|35=8|34=4|49=COIN|52=20230113-15:37:17.008|56=8e286475-d22e-57e5-a013-c32f34b696ef|1=314dbd76-4459-41cd-ba9a-dccdd86b44e2|6=65.96|11=6d1daca2-4b46-48e8-a589-8248cd44b9f2|14=1|17=1a6c385e-2e6e-4f16-8567-54ee35dae29c|20=0|30=coinbase.exchange|31=65.96|32=1|37=84ef9721-46bd-450c-88f5-c087dee781b4|38=1|39=2|54=1|55=TIME-USD|60=20230113-07:13:33.770|78=1|79=314dbd76-4459-41cd-ba9a-dccdd86b44e2|80=1|12=0.1649|13=3|150=2|151=0|10=110|
20230113-15:37:17.000000000 : 8=FIX.4.2|9=385|35=8|34=5|49=COIN|52=20230113-15:37:17.089|56=8e286475-d22e-57e5-a013-c32f34b696ef|1=314dbd76-4459-41cd-ba9a-dccdd86b44e2|6=0.0|11=159e4a31-a2d5-48dc-a31b-39c3b6f6e962|14=0|17=255611b9-f761-462c-a486-27459dd06a87|20=0|32=0.0|37=fe70b631-88f9-4c7a-abbb-a53b4e713f70|39=A|54=1|55=DOGE-USD|60=20230113-10:21:41.469|78=1|79=314dbd76-4459-41cd-ba9a-dccdd86b44e2|80=0.0|150=A|151=0.0|152=10|10=082|
20230113-15:37:17.000000000 : 8=FIX.4.2|9=385|35=8|34=6|49=COIN|52=20230113-15:37:17.089|56=8e286475-d22e-57e5-a013-c32f34b696ef|1=314dbd76-4459-41cd-ba9a-dccdd86b44e2|6=0.0|11=159e4a31-a2d5-48dc-a31b-39c3b6f6e962|14=0|17=9a4fae0f-0847-43c9-a506-1507bff87f82|20=0|32=0.0|37=fe70b631-88f9-4c7a-abbb-a53b4e713f70|39=0|54=1|55=DOGE-USD|60=20230113-10:21:41.504|78=1|79=314dbd76-4459-41cd-ba9a-dccdd86b44e2|80=0.0|150=0|151=0.0|152=10|10=229|
20230113-15:37:17.000000000 : 8=FIX.4.2|9=495|35=8|34=7|49=COIN|52=20230113-15:37:17.089|56=8e286475-d22e-57e5-a013-c32f34b696ef|1=314dbd76-4459-41cd-ba9a-dccdd86b44e2|6=0.080548|11=159e4a31-a2d5-48dc-a31b-39c3b6f6e962|14=123.5933853106222377|17=64dba743-bff9-493b-a4c9-ae416112a5f6|20=0|30=otc|31=0.080548|32=123.5933853106222377|37=fe70b631-88f9-4c7a-abbb-a53b4e713f70|39=1|54=1|55=DOGE-USD|60=20230113-10:21:41.635|78=1|79=314dbd76-4459-41cd-ba9a-dccdd86b44e2|80=123.5933853106222377|12=0.0447984|13=3|150=1|151=0.5561900978298654|152=10|10=158|
20230113-15:37:17.000000000 : 8=FIX.4.2|9=510|35=8|34=8|49=COIN|52=20230113-15:37:17.089|56=8e286475-d22e-57e5-a013-c32f34b696ef|1=314dbd76-4459-41cd-ba9a-dccdd86b44e2|6=0.080548|11=159e4a31-a2d5-48dc-a31b-39c3b6f6e962|14=123.593405085567052|17=e26333ed-c74f-4a13-aadd-8eb5cf7347d0|20=0|30=coinbase.prime|31=0.080548|32=0.0000197749448143|37=fe70b631-88f9-4c7a-abbb-a53b4e713f70|39=1|54=1|55=DOGE-USD|60=20230113-10:21:41.727|78=1|79=314dbd76-4459-41cd-ba9a-dccdd86b44e2|80=0.0000197749448143|12=0.0000000071677451|13=3|150=1|151=0.5561703228850511|152=10|10=203|
20230113-15:37:17.000000000 : 8=FIX.4.2|9=383|35=8|34=9|49=COIN|52=20230113-15:37:17.090|56=8e286475-d22e-57e5-a013-c32f34b696ef|1=314dbd76-4459-41cd-ba9a-dccdd86b44e2|6=0.0|11=dc199778-b1f7-48ae-9c27-cac8f7bbf7ec|14=0|17=1f41d224-346f-4e9e-b74c-231db70c3520|20=0|32=0.0|37=194762a6-5c1d-4f05-8575-c40692eb8c37|38=10|39=A|54=2|55=DOGE-USD|60=20230113-10:23:37.704|78=1|79=314dbd76-4459-41cd-ba9a-dccdd86b44e2|80=0.0|150=A|151=10|10=049|
20230113-15:37:17.000000000 : 8=FIX.4.2|9=384|35=8|34=10|49=COIN|52=20230113-15:37:17.091|56=8e286475-d22e-57e5-a013-c32f34b696ef|1=314dbd76-4459-41cd-ba9a-dccdd86b44e2|6=0.0|11=dc199778-b1f7-48ae-9c27-cac8f7bbf7ec|14=0|17=ac16c9f5-d9ff-4339-94ac-b7b40cf60550|20=0|32=0.0|37=194762a6-5c1d-4f05-8575-c40692eb8c37|38=10|39=0|54=2|55=DOGE-USD|60=20230113-10:23:37.731|78=1|79=314dbd76-4459-41cd-ba9a-dccdd86b44e2|80=0.0|150=0|151=10|10=222|
20230113-15:37:17.000000000 : 8=FIX.4.2|9=426|35=8|34=11|49=COIN|52=20230113-15:37:17.091|56=8e286475-d22e-57e5-a013-c32f34b696ef|1=314dbd76-4459-41cd-ba9a-dccdd86b44e2|6=0.080427|11=dc199778-b1f7-48ae-9c27-cac8f7bbf7ec|14=10|17=380b6673-df8a-45cb-89b4-c52fe2938178|20=0|30=otc|31=0.080427|32=10|37=194762a6-5c1d-4f05-8575-c40692eb8c37|38=10|39=2|54=2|55=DOGE-USD|60=20230113-10:23:37.854|78=1|79=314dbd76-4459-41cd-ba9a-dccdd86b44e2|80=10|12=0.003619215|13=3|150=2|151=0|10=203|
20230113-15:37:17.000000000 : 8=FIX.4.2|9=384|35=8|34=12|49=COIN|52=20230113-15:37:17.092|56=8e286475-d22e-57e5-a013-c32f34b696ef|1=314dbd76-4459-41cd-ba9a-dccdd86b44e2|6=0.0|11=375b7fdf-7657-4a73-816b-8e62c57d046d|14=0|17=2f0fedef-b376-4b09-87e5-9f71a5d0b8e7|20=0|32=0.0|37=6d717ce7-66a0-41f1-ad14-75507221d200|38=10|39=A|54=1|55=DOGE-USD|60=20230113-10:24:05.496|78=1|79=314dbd76-4459-41cd-ba9a-dccdd86b44e2|80=0.0|150=A|151=10|10=254|
20230113-15:37:17.000000000 : 8=FIX.4.2|9=384|35=8|34=13|49=COIN|52=20230113-15:37:17.092|56=8e286475-d22e-57e5-a013-c32f34b696ef|1=314dbd76-4459-41cd-ba9a-dccdd86b44e2|6=0.0|11=375b7fdf-7657-4a73-816b-8e62c57d046d|14=0|17=fd308afd-2ae8-4e2a-bad5-c2d2c4983607|20=0|32=0.0|37=6d717ce7-66a0-41f1-ad14-75507221d200|38=10|39=0|54=1|55=DOGE-USD|60=20230113-10:24:05.537|78=1|79=314dbd76-4459-41cd-ba9a-dccdd86b44e2|80=0.0|150=0|151=10|10=241|
20230113-15:37:17.000000000 : 8=FIX.4.2|9=426|35=8|34=14|49=COIN|52=20230113-15:37:17.092|56=8e286475-d22e-57e5-a013-c32f34b696ef|1=314dbd76-4459-41cd-ba9a-dccdd86b44e2|6=0.080387|11=375b7fdf-7657-4a73-816b-8e62c57d046d|14=10|17=950bcc34-10da-42d2-80b6-243930c94017|20=0|30=otc|31=0.080387|32=10|37=6d717ce7-66a0-41f1-ad14-75507221d200|38=10|39=2|54=1|55=DOGE-USD|60=20230113-10:24:05.662|78=1|79=314dbd76-4459-41cd-ba9a-dccdd86b44e2|80=10|12=0.003617415|13=3|150=2|151=0|10=003|
20230113-15:37:17.000000000 : 8=FIX.4.2|9=384|35=8|34=15|49=COIN|52=20230113-15:37:17.093|56=8e286475-d22e-57e5-a013-c32f34b696ef|1=314dbd76-4459-41cd-ba9a-dccdd86b44e2|6=0.0|11=4c596e7e-676c-4560-b4b1-8426a97339e3|14=0|17=3309481a-4a94-4d6e-9e4b-875e9a615b62|20=0|32=0.0|37=c3173363-18dd-4c00-88b2-b3235d14b58c|38=10|39=A|54=1|55=DOGE-USD|60=20230113-10:24:23.459|78=1|79=314dbd76-4459-41cd-ba9a-dccdd86b44e2|80=0.0|150=A|151=10|10=225|
20230113-15:37:17.000000000 : 8=FIX.4.2|9=384|35=8|34=16|49=COIN|52=20230113-15:37:17.093|56=8e286475-d22e-57e5-a013-c32f34b696ef|1=314dbd76-4459-41cd-ba9a-dccdd86b44e2|6=0.0|11=4c596e7e-676c-4560-b4b1-8426a97339e3|14=0|17=984181d0-a4a8-4e40-96b5-815e4a4f1d0e|20=0|32=0.0|37=c3173363-18dd-4c00-88b2-b3235d14b58c|38=10|39=0|54=1|55=DOGE-USD|60=20230113-10:24:23.492|78=1|79=314dbd76-4459-41cd-ba9a-dccdd86b44e2|80=0.0|150=0|151=10|10=222|
20230113-15:37:17.000000000 : 8=FIX.4.2|9=426|35=8|34=17|49=COIN|52=20230113-15:37:17.093|56=8e286475-d22e-57e5-a013-c32f34b696ef|1=314dbd76-4459-41cd-ba9a-dccdd86b44e2|6=0.080377|11=4c596e7e-676c-4560-b4b1-8426a97339e3|14=10|17=e55a54a3-83f4-4b2a-adf6-d28347f5d2f9|20=0|30=otc|31=0.080377|32=10|37=c3173363-18dd-4c00-88b2-b3235d14b58c|38=10|39=2|54=1|55=DOGE-USD|60=20230113-10:24:24.734|78=1|79=314dbd76-4459-41cd-ba9a-dccdd86b44e2|80=10|12=0.003616965|13=3|150=2|151=0|10=239|
20230113-15:37:17.000000000 : 8=FIX.4.2|9=384|35=8|34=18|49=COIN|52=20230113-15:37:17.093|56=8e286475-d22e-57e5-a013-c32f34b696ef|1=314dbd76-4459-41cd-ba9a-dccdd86b44e2|6=0.0|11=42f724b6-e0af-4fc2-b07e-eccbd87134da|14=0|17=6af684c9-7e98-4f5a-af33-a58f52d93d5c|20=0|32=0.0|37=4799a70e-e68f-46e7-b74c-9eefdb4973d6|38=10|39=A|54=1|55=DOGE-USD|60=20230113-10:24:30.602|78=1|79=314dbd76-4459-41cd-ba9a-dccdd86b44e2|80=0.0|150=A|151=10|10=252|
20230113-15:37:17.000000000 : 8=FIX.4.2|9=384|35=8|34=19|49=COIN|52=20230113-15:37:17.093|56=8e286475-d22e-57e5-a013-c32f34b696ef|1=314dbd76-4459-41cd-ba9a-dccdd86b44e2|6=0.0|11=42f724b6-e0af-4fc2-b07e-eccbd87134da|14=0|17=bcb78e61-e61d-481f-8d99-baf40c2cd2ef|20=0|32=0.0|37=4799a70e-e68f-46e7-b74c-9eefdb4973d6|38=10|39=0|54=1|55=DOGE-USD|60=20230113-10:24:30.627|78=1|79=314dbd76-4459-41cd-ba9a-dccdd86b44e2|80=0.0|150=0|151=10|10=095|
20230113-15:37:17.000000000 : 8=FIX.4.2|9=422|35=8|34=20|49=COIN|52=20230113-15:37:17.094|56=8e286475-d22e-57e5-a013-c32f34b696ef|1=314dbd76-4459-41cd-ba9a-dccdd86b44e2|6=0.08034|11=42f724b6-e0af-4fc2-b07e-eccbd87134da|14=10|17=e2ba0978-6a9c-4b64-8304-2d769de2a106|20=0|30=otc|31=0.08034|32=10|37=4799a70e-e68f-46e7-b74c-9eefdb4973d6|38=10|39=2|54=1|55=DOGE-USD|60=20230113-10:25:04.287|78=1|79=314dbd76-4459-41cd-ba9a-dccdd86b44e2|80=10|12=0.0036153|13=3|150=2|151=0|10=196|
20230113-15:37:17.000000000 : 8=FIX.4.2|9=384|35=8|34=21|49=COIN|52=20230113-15:37:17.095|56=8e286475-d22e-57e5-a013-c32f34b696ef|1=314dbd76-4459-41cd-ba9a-dccdd86b44e2|6=0.0|11=b2cc7c09-1b72-4fd9-a9a1-96afcb6fc585|14=0|17=29310903-193f-41ad-bd25-8e9a52fc4769|20=0|32=0.0|37=dd7acc01-fe60-40f3-877a-1e1d9bbd100a|38=10|39=A|54=1|55=DOGE-USD|60=20230113-10:26:46.272|78=1|79=314dbd76-4459-41cd-ba9a-dccdd86b44e2|80=0.0|150=A|151=10|10=048|
20230113-15:37:17.000000000 : 8=FIX.4.2|9=384|35=8|34=22|49=COIN|52=20230113-15:37:17.096|56=8e286475-d22e-57e5-a013-c32f34b696ef|1=314dbd76-4459-41cd-ba9a-dccdd86b44e2|6=0.0|11=b2cc7c09-1b72-4fd9-a9a1-96afcb6fc585|14=0|17=05e68959-0ef2-433d-b62f-1a7f2b1eaeb6|20=0|32=0.0|37=dd7acc01-fe60-40f3-877a-1e1d9bbd100a|38=10|39=0|54=1|55=DOGE-USD|60=20230113-10:26:46.312|78=1|79=314dbd76-4459-41cd-ba9a-dccdd86b44e2|80=0.0|150=0|151=10|10=198|
20230113-15:37:17.000000000 : 8=FIX.4.2|9=425|35=8|34=23|49=COIN|52=20230113-15:37:17.096|56=8e286475-d22e-57e5-a013-c32f34b696ef|1=314dbd76-4459-41cd-ba9a-dccdd86b44e2|6=0.080462|11=b2cc7c09-1b72-4fd9-a9a1-96afcb6fc585|14=10|17=6a2e25ae-d89b-4546-ab89-61653d342186|20=0|30=otc|31=0.080462|32=10|37=dd7acc01-fe60-40f3-877a-1e1d9bbd100a|38=10|39=2|54=1|55=DOGE-USD|60=20230113-10:26:46.433|78=1|79=314dbd76-4459-41cd-ba9a-dccdd86b44e2|80=10|12=0.00362079|13=3|150=2|151=0|10=072|
20230113-15:37:17.000000000 : 8=FIX.4.2|9=385|35=8|34=24|49=COIN|52=20230113-15:37:17.096|56=8e286475-d22e-57e5-a013-c32f34b696ef|1=314dbd76-4459-41cd-ba9a-dccdd86b44e2|6=0.0|11=ef3aa31d-cbe2-4dbd-8643-dfc908522498|14=0|17=caeb472d-6a2d-4330-bb72-0467068ca8b5|20=0|32=0.0|37=58eb433d-e026-4584-a52b-082f77656fe8|39=A|54=1|55=DOGE-USD|60=20230113-10:27:00.643|78=1|79=314dbd76-4459-41cd-ba9a-dccdd86b44e2|80=0.0|150=A|151=0.0|152=5|10=169|
20230113-15:37:17.000000000 : 8=FIX.4.2|9=385|35=8|34=25|49=COIN|52=20230113-15:37:17.097|56=8e286475-d22e-57e5-a013-c32f34b696ef|1=314dbd76-4459-41cd-ba9a-dccdd86b44e2|6=0.0|11=ef3aa31d-cbe2-4dbd-8643-dfc908522498|14=0|17=c4b1d7e3-40f9-4a7a-9404-11d849fe4403|20=0|32=0.0|37=58eb433d-e026-4584-a52b-082f77656fe8|39=0|54=1|55=DOGE-USD|60=20230113-10:27:00.674|78=1|79=314dbd76-4459-41cd-ba9a-dccdd86b44e2|80=0.0|150=0|151=0.0|152=5|10=058|
20230113-15:37:17.000000000 : 8=FIX.4.2|9=491|35=8|34=26|49=COIN|52=20230113-15:37:17.097|56=8e286475-d22e-57e5-a013-c32f34b696ef|1=314dbd76-4459-41cd-ba9a-dccdd86b44e2|6=0.08042|11=ef3aa31d-cbe2-4dbd-8643-dfc908522498|14=61.8|17=11416b77-a4e3-4d6b-bdbb-c6128e5b8faf|20=0|30=coinbase.exchange|31=0.08042|32=61.8000000000000000|37=58eb433d-e026-4584-a52b-082f77656fe8|39=1|54=1|55=DOGE-USD|60=20230113-10:27:00.754|78=1|79=314dbd76-4459-41cd-ba9a-dccdd86b44e2|80=61.8000000000000000|12=0.022364802|13=3|150=1|151=0.3735886595374285|152=5|10=200|
20230113-15:37:17.000000000 : 8=FIX.4.2|9=508|35=8|34=27|49=COIN|52=20230113-15:37:17.097|56=8e286475-d22e-57e5-a013-c32f34b696ef|1=314dbd76-4459-41cd-ba9a-dccdd86b44e2|6=0.08042|11=ef3aa31d-cbe2-4dbd-8643-dfc908522498|14=61.8950608855524422|17=e5d7c543-b6b9-4bf9-9805-1ed985c165d5|20=0|30=coinbase.prime|31=0.08042|32=0.0950608855524422|37=58eb433d-e026-4584-a52b-082f77656fe8|39=1|54=1|55=DOGE-USD|60=20230113-10:27:00.812|78=1|79=314dbd76-4459-41cd-ba9a-dccdd86b44e2|80=0.0950608855524422|12=0.0000344015838726|13=3|150=1|151=0.2785277739849863|152=5|10=130|
20230113-15:37:17.000000000 : 8=FIX.4.2|9=386|35=8|34=28|49=COIN|52=20230113-15:37:17.101|56=8e286475-d22e-57e5-a013-c32f34b696ef|1=314dbd76-4459-41cd-ba9a-dccdd86b44e2|6=0.0|11=58ece9f0-afda-4f87-8d46-d15b1977e7cc|14=0|17=ce61e2bb-e18c-447f-a687-a1fd06b3f251|20=0|32=0.0|37=31502470-2f2d-4502-8d83-fbb37df28678|39=A|54=1|55=DOGE-USD|60=20230113-10:58:25.443|78=1|79=314dbd76-4459-41cd-ba9a-dccdd86b44e2|80=0.0|150=A|151=0.0|152=10|10=073|
20230113-15:37:17.000000000 : 8=FIX.4.2|9=386|35=8|34=29|49=COIN|52=20230113-15:37:17.102|56=8e286475-d22e-57e5-a013-c32f34b696ef|1=314dbd76-4459-41cd-ba9a-dccdd86b44e2|6=0.0|11=58ece9f0-afda-4f87-8d46-d15b1977e7cc|14=0|17=1a9d8410-cdc5-45d4-b419-354c910e2e37|20=0|32=0.0|37=31502470-2f2d-4502-8d83-fbb37df28678|39=0|54=1|55=DOGE-USD|60=20230113-10:58:25.485|78=1|79=314dbd76-4459-41cd-ba9a-dccdd86b44e2|80=0.0|150=0|151=0.0|152=10|10=111|
20230113-15:37:17.000000000 : 8=FIX.4.2|9=386|35=8|34=30|49=COIN|52=20230113-15:37:17.102|56=8e286475-d22e-57e5-a013-c32f34b696ef|1=314dbd76-4459-41cd-ba9a-dccdd86b44e2|6=0.0|11=d7182878-7683-4a2e-9355-3df3acf69460|14=0|17=e3199302-c83d-42a9-8589-ef3be12d4c9f|20=0|32=0.0|37=7f0a10d9-a788-4ec4-b885-5d5b38fac1cf|39=A|54=1|55=DOGE-USD|60=20230113-10:58:47.380|78=1|79=314dbd76-4459-41cd-ba9a-dccdd86b44e2|80=0.0|150=A|151=0.0|152=22|10=168|
20230113-15:37:17.000000000 : 8=FIX.4.2|9=386|35=8|34=31|49=COIN|52=20230113-15:37:17.102|56=8e286475-d22e-57e5-a013-c32f34b696ef|1=314dbd76-4459-41cd-ba9a-dccdd86b44e2|6=0.0|11=d7182878-7683-4a2e-9355-3df3acf69460|14=0|17=ad8f641d-bb53-4235-9ac8-cf045a110afe|20=0|32=0.0|37=7f0a10d9-a788-4ec4-b885-5d5b38fac1cf|39=0|54=1|55=DOGE-USD|60=20230113-10:58:47.403|78=1|79=314dbd76-4459-41cd-ba9a-dccdd86b44e2|80=0.0|150=0|151=0.0|152=22|10=243|
20230113-15:37:17.000000000 : 8=FIX.4.2|9=332|35=8|34=32|49=COIN|52=20230113-15:37:17.165|56=8e286475-d22e-57e5-a013-c32f34b696ef|1=314dbd76-4459-41cd-ba9a-dccdd86b44e2|6=0|11=d7182878-7683-4a2e-9355-3df3acf69460|14=0|17=a7ccb61c-b3f1-4f45-a201-857db5f273de|20=0|32=0.0|37=7f0a10d9-a788-4ec4-b885-5d5b38fac1cf|39=4|54=1|55=DOGE-USD|60=20230113-13:41:38.812|150=4|151=0.0|152=22|10=223|
20230113-15:37:17.000000000 : 8=FIX.4.2|9=332|35=8|34=33|49=COIN|52=20230113-15:37:17.166|56=8e286475-d22e-57e5-a013-c32f34b696ef|1=314dbd76-4459-41cd-ba9a-dccdd86b44e2|6=0|11=d7182878-7683-4a2e-9355-3df3acf69460|14=0|17=6ff6c267-21fe-4748-8dfd-3ef4030c787c|20=0|32=0.0|37=7f0a10d9-a788-4ec4-b885-5d5b38fac1cf|39=4|54=1|55=DOGE-USD|60=20230113-13:41:38.847|150=4|151=0.0|152=22|10=168|
20230113-15:37:22.000000000 : 8=FIX.4.2|9=252|35=A|34=1|49=8e286475-d22e-57e5-a013-c32f34b696ef|52=20230113-15:37:22.000|56=COIN|96=zDV6g4uagfhwLwwMbDqAcqw4uHepynKk9BUWBGPmNck=|98=0|108=30|141=Y|554=5Rb5KFBCGLQ=d07//7PUinHsgigATi6Ocw==|9407=ZdlFsitVWo4=lFc2wIDLDmpyIHRqD6lATyJnxSHdQU9FmsraK7Ow3Wc=|10=033|
20230113-15:37:22.000000000 : 8=FIX.4.2|9=101|35=A|34=1|49=COIN|52=20230113-15:37:22.577|56=8e286475-d22e-57e5-a013-c32f34b696ef|98=0|108=30|141=Y|10=159|
20230113-15:37:52.000000000 : 8=FIX.4.2|9=83|35=0|34=2|49=8e286475-d22e-57e5-a013-c32f34b696ef|52=20230113-15:37:52.000|56=COIN|10=018|
20230113-15:37:52.000000000 : 8=FIX.4.2|9=83|35=0|34=2|49=COIN|52=20230113-15:37:52.578|56=8e286475-d22e-57e5-a013-c32f34b696ef|10=038|
20230113-15:38:22.000000000 : 8=FIX.4.2|9=83|35=0|34=3|49=8e286475-d22e-57e5-a013-c32f34b696ef|52=20230113-15:38:22.000|56=COIN|10=017|
20230113-15:38:22.000000000 : 8=FIX.4.2|9=83|35=0|34=3|49=COIN|52=20230113-15:38:22.578|56=8e286475-d22e-57e5-a013-c32f34b696ef|10=037|
20230113-15:38:52.000000000 : 8=FIX.4.2|9=83|35=0|34=4|49=8e286475-d22e-57e5-a013-c32f34b696ef|52=20230113-15:38:52.000|56=COIN|10=021|
20230113-15:38:52.000000000 : 8=FIX.4.2|9=83|35=0|34=4|49=COIN|52=20230113-15:38:52.579|56=8e286475-d22e-57e5-a013-c32f34b696ef|10=042|
20230113-15:39:22.000000000 : 8=FIX.4.2|9=83|35=0|34=5|49=COIN|52=20230113-15:39:22.580|56=8e286475-d22e-57e5-a013-c32f34b696ef|10=033|
20230113-15:39:22.000000000 : 8=FIX.4.2|9=83|35=0|34=5|49=8e286475-d22e-57e5-a013-c32f34b696ef|52=20230113-15:39:22.000|56=COIN|10=020|
20230113-15:39:52.000000000 : 8=FIX.4.2|9=83|35=0|34=6|49=COIN|52=20230113-15:39:52.580|56=8e286475-d22e-57e5-a013-c32f34b696ef|10=037|
20230113-15:39:52.000000000 : 8=FIX.4.2|9=83|35=0|34=6|49=8e286475-d22e-57e5-a013-c32f34b696ef|52=20230113-15:39:52.000|56=COIN|10=024|
20230113-15:40:22.000000000 : 8=FIX.4.2|9=83|35=0|34=7|49=8e286475-d22e-57e5-a013-c32f34b696ef|52=20230113-15:40:22.000|56=COIN|10=014|
20230113-15:40:22.000000000 : 8=FIX.4.2|9=83|35=0|34=7|49=COIN|52=20230113-15:40:22.581|56=8e286475-d22e-57e5-a013-c32f34b696ef|10=028|
20230113-15:40:52.000000000 : 8=FIX.4.2|9=83|35=0|34=8|49=8e286475-d22e-57e5-a013-c32f34b696ef|52=20230113-15:40:52.000|56=COIN|10=018|
20230113-15:40:52.000000000 : 8=FIX.4.2|9=83|35=0|34=8|49=COIN|52=20230113-15:40:52.582|56=8e286475-d22e-57e5-a013-c32f34b696ef|10=033|
20230113-15:41:22.000000000 : 8=FIX.4.2|9=83|35=0|34=9|49=8e286475-d22e-57e5-a013-c32f34b696ef|52=20230113-15:41:22.000|56=COIN|10=017|
20230113-15:41:22.000000000 : 8=FIX.4.2|9=83|35=0|34=9|49=COIN|52=20230113-15:41:22.583|56=8e286475-d22e-57e5-a013-c32f34b696ef|10=033|
20230117-22:45:13.000000000 : 8=FIX.4.2|9=252|35=A|34=1|49=8e286475-d22e-57e5-a013-c32f34b696ef|52=20230117-22:45:13.000|56=COIN|96=CurgoIUOQ2clhpXlR8G5jGdGkxc9/1l/ozW8g0M2ezY=|98=0|108=30|141=Y|554=5Rb5KFBCGLQ=d07//7PUinHsgigATi6Ocw==|9407=ZdlFsitVWo4=lFc2wIDLDmpyIHRqD6lATyJnxSHdQU9FmsraK7Ow3Wc=|10=034|
20230117-22:45:13.000000000 : 8=FIX.4.2|9=101|35=A|34=1|49=COIN|52=20230117-22:45:13.578|56=8e286475-d22e-57e5-a013-c32f34b696ef|98=0|108=30|141=Y|10=161|
20230117-22:45:43.000000000 : 8=FIX.4.2|9=83|35=0|34=2|49=8e286475-d22e-57e5-a013-c32f34b696ef|52=20230117-22:45:43.000|56=COIN|10=019|
20230117-22:45:43.000000000 : 8=FIX.4.2|9=83|35=0|34=2|49=COIN|52=20230117-22:45:43.578|56=8e286475-d22e-57e5-a013-c32f34b696ef|10=039|
20230117-22:45:45.000000000 : 8=FIX.4.2|9=202|35=H|34=3|49=8e286475-d22e-57e5-a013-c32f34b696ef|52=20230117-22:45:45.000|56=COIN|1=314dbd76-4459-41cd-ba9a-dccdd86b44e2|11=e1a265b1-1f5b-4c8f-8c8a-f433b3ee0baa|37=38f4f242-ebb1-4faf-bd1f-7ff399a72ee1|10=114|
20230117-22:45:45.000000000 : 8=FIX.4.2|9=305|35=8|34=3|49=COIN|52=20230117-22:45:45.987|56=8e286475-d22e-57e5-a013-c32f34b696ef|1=314dbd76-4459-41cd-ba9a-dccdd86b44e2|6=0|11=704ca509-fd16-41e5-9298-95bf881979d7|14=0|17=e7af9dab-b15d-44a1-9884-c823fa89ed27|20=0|32=0.0|37=38f4f242-ebb1-4faf-bd1f-7ff399a72ee1|39=4|54=1|55=BTC-USD|150=4|151=0.0|152=10|10=037|
20230117-22:46:27.000000000 : 8=FIX.4.2|9=252|35=A|34=1|49=8e286475-d22e-57e5-a013-c32f34b696ef|52=20230117-22:46:27.000|56=COIN|96=GvO7gPFG6H0RzXgef5D85s/GZsB/nl0IefgSdk0h4Lk=|98=0|108=30|141=Y|554=5Rb5KFBCGLQ=d07//7PUinHsgigATi6Ocw==|9407=ZdlFsitVWo4=lFc2wIDLDmpyIHRqD6lATyJnxSHdQU9FmsraK7Ow3Wc=|10=109|
20230117-22:46:28.000000000 : 8=FIX.4.2|9=101|35=A|34=1|49=COIN|52=20230117-22:46:28.047|56=8e286475-d22e-57e5-a013-c32f34b696ef|98=0|108=30|141=Y|10=159|
20230117-22:46:32.000000000 : 8=FIX.4.2|9=202|35=H|34=2|49=8e286475-d22e-57e5-a013-c32f34b696ef|52=20230117-22:46:32.000|56=COIN|1=314dbd76-4459-41cd-ba9a-dccdd86b44e2|11=2f55f98d-20cf-4fd6-a159-2e30cab528e0|37=38f4f242-ebb1-4faf-bd1f-7ff399a72ee1|10=237|
20230117-22:46:32.000000000 : 8=FIX.4.2|9=305|35=8|34=2|49=COIN|52=20230117-22:46:32.657|56=8e286475-d22e-57e5-a013-c32f34b696ef|1=314dbd76-4459-41cd-ba9a-dccdd86b44e2|6=0|11=704ca509-fd16-41e5-9298-95bf881979d7|14=0|17=adcb2a70-87b4-49ed-a012-be5c1cfb3e12|20=0|32=0.0|37=38f4f242-ebb1-4faf-bd1f-7ff399a72ee1|39=4|54=1|55=BTC-USD|150=4|151=0.0|152=10|10=084|
20230117-22:46:36.000000000 : 8=FIX.4.2|9=83|35=5|34=3|49=8e286475-d22e-57e5-a013-c32f34b696ef|52=20230117-22:46:36.000|56=COIN|10=028|
20230117-22:46:36.000000000 : 8=FIX.4.2|9=83|35=5|34=3|49=COIN|52=20230117-22:46:36.302|56=8e286475-d22e-57e5-a013-c32f34b696ef|10=033|
20230117-22:46:36.000000000 : 8=FIX.4.2|9=83|35=5|34=4|49=8e286475-d22e-57e5-a013-c32f34b696ef|52=20230117-22:46:36.000|56=COIN|10=029|
20230117-22:46:37.000000000 : 8=FIX.4.2|9=252|35=A|34=1|49=8e286475-d22e-57e5-a013-c32f34b696ef|52=20230117-22:46:37.000|56=COIN|96=+/pzKpp6SYI+9fat5msPPJUG54CVkjdFqSwPgRLwlmw=|98=0|108=30|141=Y|554=5Rb5KFBCGLQ=d07//7PUinHsgigATi6Ocw==|9407=ZdlFsitVWo4=lFc2wIDLDmpyIHRqD6lATyJnxSHdQU9FmsraK7Ow3Wc=|10=088|
20230117-22:46:37.000000000 : 8=FIX.4.2|9=101|35=A|34=1|49=COIN|52=20230117-22:46:37.472|56=8e286475-d22e-57e5-a013-c32f34b696ef|98=0|108=30|141=Y|10=161|
20230117-22:46:44.000000000 : 8=FIX.4.2|9=252|35=A|34=1|49=8e286475-d22e-57e5-a013-c32f34b696ef|52=20230117-22:46:44.000|56=COIN|96=46qyKmFlHLOv0uedO9pIgDxBPxzezQKtzmD5f5l7sbw=|98=0|108=30|141=Y|554=5Rb5KFBCGLQ=d07//7PUinHsgigATi6Ocw==|9407=ZdlFsitVWo4=lFc2wIDLDmpyIHRqD6lATyJnxSHdQU9FmsraK7Ow3Wc=|10=240|
20230117-22:46:44.000000000 : 8=FIX.4.2|9=101|35=A|34=1|49=COIN|52=20230117-22:46:44.545|56=8e286475-d22e-57e5-a013-c32f34b696ef|98=0|108=30|141=Y|10=160|
20230117-22:46:47.000000000 : 8=FIX.4.2|9=83|35=5|34=2|49=8e286475-d22e-57e5-a013-c32f34b696ef|52=20230117-22:46:47.000|56=COIN|10=029|
20230117-22:46:47.000000000 : 8=FIX.4.2|9=83|35=5|34=2|49=COIN|52=20230117-22:46:47.065|56=8e286475-d22e-57e5-a013-c32f34b696ef|10=040|
20230117-22:46:47.000000000 : 8=FIX.4.2|9=83|35=5|34=3|49=8e286475-d22e-57e5-a013-c32f34b696ef|52=20230117-22:46:47.000|56=COIN|10=030|
20230117-22:47:29.000000000 : 8=FIX.4.2|9=252|35=A|34=1|49=8e286475-d22e-57e5-a013-c32f34b696ef|52=20230117-22:47:29.000|56=COIN|96=YpMitvOaJ/eU0mNdEMpFtprKsNzmgc8Kp1MfYkO9ShM=|98=0|108=30|141=Y|554=5Rb5KFBCGLQ=d07//7PUinHsgigATi6Ocw==|9407=ZdlFsitVWo4=lFc2wIDLDmpyIHRqD6lATyJnxSHdQU9FmsraK7Ow3Wc=|10=207|
20230117-22:47:29.000000000 : 8=FIX.4.2|9=101|35=A|34=1|49=COIN|52=20230117-22:47:29.978|56=8e286475-d22e-57e5-a013-c32f34b696ef|98=0|108=30|141=Y|10=174|
20230117-22:47:32.000000000 : 8=FIX.4.2|9=83|35=5|34=2|49=8e286475-d22e-57e5-a013-c32f34b696ef|52=20230117-22:47:32.000|56=COIN|10=024|
20230117-22:47:32.000000000 : 8=FIX.4.2|9=83|35=5|34=2|49=COIN|52=20230117-22:47:32.444|56=8e286475-d22e-57e5-a013-c32f34b696ef|10=036|
20230117-22:47:32.000000000 : 8=FIX.4.2|9=83|35=5|34=3|49=8e286475-d22e-57e5-a013-c32f34b696ef|52=20230117-22:47:32.000|56=COIN|10=025|
20230117-22:47:53.000000000 : 8=FIX.4.2|9=252|35=A|34=1|49=8e286475-d22e-57e5-a013-c32f34b696ef|52=20230117-22:47:53.000|56=COIN|96=C6dN+oRHKucBcx6XpPoDIoj4rMUexCbGI3mkUlyH7v8=|98=0|108=30|141=Y|554=5Rb5KFBCGLQ=d07//7PUinHsgigATi6Ocw==|9407=ZdlFsitVWo4=lFc2wIDLDmpyIHRqD6lATyJnxSHdQU9FmsraK7Ow3Wc=|10=057|
20230117-22:47:53.000000000 : 8=FIX.4.2|9=101|35=A|34=1|49=COIN|52=20230117-22:47:53.255|56=8e286475-d22e-57e5-a013-c32f34b696ef|98=0|108=30|141=Y|10=159|
20230117-22:47:56.000000000 : 8=FIX.4.2|9=202|35=H|34=2|49=8e286475-d22e-57e5-a013-c32f34b696ef|52=20230117-22:47:56.000|56=COIN|1=314dbd76-4459-41cd-ba9a-dccdd86b44e2|11=a5c5e5da-e173-4520-aaa9-1db8706777f7|37=38f4f242-ebb1-4faf-bd1f-7ff399a72ee1|10=198|
20230117-22:47:56.000000000 : 8=FIX.4.2|9=305|35=8|34=2|49=COIN|52=20230117-22:47:56.381|56=8e286475-d22e-57e5-a013-c32f34b696ef|1=314dbd76-4459-41cd-ba9a-dccdd86b44e2|6=0|11=704ca509-fd16-41e5-9298-95bf881979d7|14=0|17=492dafb6-676a-4902-9ef1-c8635a51e475|20=0|32=0.0|37=38f4f242-ebb1-4faf-bd1f-7ff399a72ee1|39=4|54=1|55=BTC-USD|150=4|151=0.0|152=10|10=091|
20230117-22:48:26.000000000 : 8=FIX.4.2|9=83|35=0|34=3|49=8e286475-d22e-57e5-a013-c32f34b696ef|52=20230117-22:48:26.000|56=COIN|10=024|
20230117-22:48:26.000000000 : 8=FIX.4.2|9=83|35=0|34=3|49=COIN|52=20230117-22:48:26.382|56=8e286475-d22e-57e5-a013-c32f34b696ef|10=037|
20230117-22:48:56.000000000 : 8=FIX.4.2|9=83|35=0|34=4|49=8e286475-d22e-57e5-a013-c32f34b696ef|52=20230117-22:48:56.000|56=COIN|10=028|
20230117-22:48:56.000000000 : 8=FIX.4.2|9=83|35=0|34=4|49=COIN|52=20230117-22:48:56.383|56=8e286475-d22e-57e5-a013-c32f34b696ef|10=042|
20230117-22:50:39.000000000 : 8=FIX.4.2|9=252|35=A|34=1|49=8e286475-d22e-57e5-a013-c32f34b696ef|52=20230117-22:50:39.000|56=COIN|96=XSbyRNZapO7jN/QUMKYfev79R9PtzcD+9VgXCLeRIqQ=|98=0|108=30|141=Y|554=5Rb5KFBCGLQ=d07//7PUinHsgigATi6Ocw==|9407=ZdlFsitVWo4=lFc2wIDLDmpyIHRqD6lATyJnxSHdQU9FmsraK7Ow3Wc=|10=233|
20230117-22:50:39.000000000 : 8=FIX.4.2|9=101|35=A|34=1|49=COIN|52=20230117-22:50:39.285|56=8e286475-d22e-57e5-a013-c32f34b696ef|98=0|108=30|141=Y|10=160|
20230117-22:50:51.000000000 : 8=FIX.4.2|9=252|35=A|34=1|49=8e286475-d22e-57e5-a013-c32f34b696ef|52=20230117-22:50:51.000|56=COIN|96=NcBlfX4TCxVtg9ikJMMxzII84mf+iF8KNEb0CCn83Ss=|98=0|108=30|141=Y|554=5Rb5KFBCGLQ=d07//7PUinHsgigATi6Ocw==|9407=ZdlFsitVWo4=lFc2wIDLDmpyIHRqD6lATyJnxSHdQU9FmsraK7Ow3Wc=|10=143|
20230117-22:50:51.000000000 : 8=FIX.4.2|9=101|35=A|34=1|49=COIN|52=20230117-22:50:51.256|56=8e286475-d22e-57e5-a013-c32f34b696ef|98=0|108=30|141=Y|10=152|
20230117-22:51:06.000000000 : 8=FIX.4.2|9=252|35=A|34=1|49=8e286475-d22e-57e5-a013-c32f34b696ef|52=20230117-22:51:06.000|56=COIN|96=zKJjX7R0nvMP2VotW9xfzdG24Q3ljJfZvaPV5Ket1PU=|98=0|108=30|141=Y|554=5Rb5KFBCGLQ=d07//7PUinHsgigATi6Ocw==|9407=ZdlFsitVWo4=lFc2wIDLDmpyIHRqD6lATyJnxSHdQU9FmsraK7Ow3Wc=|10=035|
20230117-22:51:06.000000000 : 8=FIX.4.2|9=101|35=A|34=1|49=COIN|52=20230117-22:51:06.177|56=8e286475-d22e-57e5-a013-c32f34b696ef|98=0|108=30|141=Y|10=155|
20230117-22:51:10.000000000 : 8=FIX.4.2|9=211|35=H|34=2|49=8e286475-d22e-57e5-a013-c32f34b696ef|52=20230117-22:51:10.000|56=COIN|1=314dbd76-4459-41cd-ba9a-dccdd86b44e2|11=f84f4806-9ff3-4c42-9a97-1d16ed744e39|37=Configuration failed: FileLogPath not defined|10=253|
20230117-22:51:10.000000000 : 8=FIX.4.2|9=132|35=3|34=2|49=COIN|52=20230117-22:51:10.216|56=8e286475-d22e-57e5-a013-c32f34b696ef|45=2|58=failed to get order status request|372=H|10=216|
20230118-15:50:14.000000000 : 8=FIX.4.2|9=252|35=A|34=1|49=8e286475-d22e-57e5-a013-c32f34b696ef|52=20230118-15:50:14.000|56=COIN|96=v5rAcnNghaSuQ3y13r/EKX1diK4i6sDkKtXaWcUsuao=|98=0|108=30|141=Y|554=5Rb5KFBCGLQ=d07//7PUinHsgigATi6Ocw==|9407=ZdlFsitVWo4=lFc2wIDLDmpyIHRqD6lATyJnxSHdQU9FmsraK7Ow3Wc=|10=129|
20230118-15:50:14.000000000 : 8=FIX.4.2|9=101|35=A|34=1|49=COIN|52=20230118-15:50:14.333|56=8e286475-d22e-57e5-a013-c32f34b696ef|98=0|108=30|141=Y|10=150|
20230118-15:50:22.000000000 : 8=FIX.4.2|9=169|35=H|34=2|49=8e286475-d22e-57e5-a013-c32f34b696ef|52=20230118-15:50:22.000|56=COIN|1=314dbd76-4459-41cd-ba9a-dccdd86b44e2|11=4f5cd62b-d048-4686-b800-a6fad99086a0|37=fff|10=145|
20230118-15:50:22.000000000 : 8=FIX.4.2|9=132|35=3|34=2|49=COIN|52=20230118-15:50:22.813|56=8e286475-d22e-57e5-a013-c32f34b696ef|45=2|58=failed to get order status request|372=H|10=224|
20230118-15:51:32.000000000 : 8=FIX.4.2|9=252|35=A|34=1|49=8e286475-d22e-57e5-a013-c32f34b696ef|52=20230118-15:51:32.000|56=COIN|96=MYv2b729QgDBCtyL5MXbZSzQycoOpsTREXMGVMYtX0E=|98=0|108=30|141=Y|554=5Rb5KFBCGLQ=d07//7PUinHsgigATi6Ocw==|9407=ZdlFsitVWo4=lFc2wIDLDmpyIHRqD6lATyJnxSHdQU9FmsraK7Ow3Wc=|10=247|
20230118-15:51:32.000000000 : 8=FIX.4.2|9=101|35=A|34=1|49=COIN|52=20230118-15:51:32.803|56=8e286475-d22e-57e5-a013-c32f34b696ef|98=0|108=30|141=Y|10=153|
20230118-15:51:51.000000000 : 8=FIX.4.2|9=252|35=A|34=1|49=8e286475-d22e-57e5-a013-c32f34b696ef|52=20230118-15:51:51.000|56=COIN|96=lRE1ESRQgIzVVkHNTVSILCVwCPCavr1siqWQ3Kjdgk8=|98=0|108=30|141=Y|554=5Rb5KFBCGLQ=d07//7PUinHsgigATi6Ocw==|9407=ZdlFsitVWo4=lFc2wIDLDmpyIHRqD6lATyJnxSHdQU9FmsraK7Ow3Wc=|10=042|
20230118-15:51:51.000000000 : 8=FIX.4.2|9=101|35=A|34=1|49=COIN|52=20230118-15:51:51.458|56=8e286475-d22e-57e5-a013-c32f34b696ef|98=0|108=30|141=Y|10=160|
20230118-15:51:53.000000000 : 8=FIX.4.2|9=83|35=5|34=2|49=8e286475-d22e-57e5-a013-c32f34b696ef|52=20230118-15:51:53.000|56=COIN|10=025|
20230118-15:51:53.000000000 : 8=FIX.4.2|9=83|35=5|34=2|49=COIN|52=20230118-15:51:53.865|56=8e286475-d22e-57e5-a013-c32f34b696ef|10=044|
20230118-15:51:53.000000000 : 8=FIX.4.2|9=83|35=5|34=3|49=8e286475-d22e-57e5-a013-c32f34b696ef|52=20230118-15:51:53.000|56=COIN|10=026|
20230118-15:52:05.000000000 : 8=FIX.4.2|9=252|35=A|34=1|49=8e286475-d22e-57e5-a013-c32f34b696ef|52=20230118-15:52:05.000|56=COIN|96=c6RGpSWGHY6bzI6LR/ggWtcxSOWLxp3c03cUnz11Jhw=|98=0|108=30|141=Y|554=5Rb5KFBCGLQ=d07//7PUinHsgigATi6Ocw==|9407=ZdlFsitVWo4=lFc2wIDLDmpyIHRqD6lATyJnxSHdQU9FmsraK7Ow3Wc=|10=254|
20230118-15:52:05.000000000 : 8=FIX.4.2|9=101|35=A|34=1|49=COIN|52=20230118-15:52:05.180|56=8e286475-d22e-57e5-a013-c32f34b696ef|98=0|108=30|141=Y|10=152|
20230118-15:52:07.000000000 : 8=FIX.4.2|9=83|35=5|34=2|49=8e286475-d22e-57e5-a013-c32f34b696ef|52=20230118-15:52:07.000|56=COIN|10=025|
20230118-15:52:07.000000000 : 8=FIX.4.2|9=83|35=5|34=2|49=COIN|52=20230118-15:52:07.282|56=8e286475-d22e-57e5-a013-c32f34b696ef|10=037|
20230118-15:52:07.000000000 : 8=FIX.4.2|9=83|35=5|34=3|49=8e286475-d22e-57e5-a013-c32f34b696ef|52=20230118-15:52:07.000|56=COIN|10=026|
20230118-15:52:44.000000000 : 8=FIX.4.2|9=252|35=A|34=1|49=8e286475-d22e-57e5-a013-c32f34b696ef|52=20230118-15:52:44.000|56=COIN|96=lJ0C4mgwb0gSSPVTGc45uJkJMSeR5UaftoWTL7fg5uo=|98=0|108=30|141=Y|554=5Rb5KFBCGLQ=d07//7PUinHsgigATi6Ocw==|9407=ZdlFsitVWo4=lFc2wIDLDmpyIHRqD6lATyJnxSHdQU9FmsraK7Ow3Wc=|10=017|
20230118-15:52:44.000000000 : 8=FIX.4.2|9=101|35=A|34=1|49=COIN|52=20230118-15:52:44.936|56=8e286475-d22e-57e5-a013-c32f34b696ef|98=0|108=30|141=Y|10=164|
20230118-15:52:48.000000000 : 8=FIX.4.2|9=202|35=H|34=2|49=8e286475-d22e-57e5-a013-c32f34b696ef|52=20230118-15:52:48.000|56=COIN|1=314dbd76-4459-41cd-ba9a-dccdd86b44e2|11=ad575b21-2fe4-4ae2-9907-fcb5298bcf20|37=8eb4f32c-7ab0-4d67-a594-a02a4d6be397|10=092|
20230118-15:52:48.000000000 : 8=FIX.4.2|9=370|35=8|34=2|49=COIN|52=20230118-15:52:48.715|56=8e286475-d22e-57e5-a013-c32f34b696ef|1=314dbd76-4459-41cd-ba9a-dccdd86b44e2|6=20500|11=f5ffd7a2-432d-422d-b953-e3b95406ba82|14=0.005|17=0ff20d03-b405-4607-9e02-c546f4f70baa|20=3|32=0.0|37=8eb4f32c-7ab0-4d67-a594-a02a4d6be397|38=0.003|39=2|54=1|55=BTC-USD|78=1|79=314dbd76-4459-41cd-ba9a-dccdd86b44e2|80=0.0|150=I|151=-0.002|10=197|
20230118-15:53:18.000000000 : 8=FIX.4.2|9=83|35=0|34=3|49=COIN|52=20230118-15:53:18.716|56=8e286475-d22e-57e5-a013-c32f34b696ef|10=038|
20230118-15:53:18.000000000 : 8=FIX.4.2|9=83|35=0|34=3|49=8e286475-d22e-57e5-a013-c32f34b696ef|52=20230118-15:53:18.000|56=COIN|10=024|
20230118-15:53:19.000000000 : 8=FIX.4.2|9=83|35=5|34=4|49=8e286475-d22e-57e5-a013-c32f34b696ef|52=20230118-15:53:19.000|56=COIN|10=031|
20230118-15:53:19.000000000 : 8=FIX.4.2|9=83|35=5|34=4|49=COIN|52=20230118-15:53:19.976|56=8e286475-d22e-57e5-a013-c32f34b696ef|10=053|
20230118-15:53:19.000000000 : 8=FIX.4.2|9=83|35=5|34=5|49=8e286475-d22e-57e5-a013-c32f34b696ef|52=20230118-15:53:19.000|56=COIN|10=032|
20230118-15:53:23.000000000 : 8=FIX.4.2|9=252|35=A|34=1|49=8e286475-d22e-57e5-a013-c32f34b696ef|52=20230118-15:53:23.000|56=COIN|96=4/9KnuyF0mQMIrmx3wbIu00xlmU7fyBObb3lBNl2q9k=|98=0|108=30|141=Y|554=5Rb5KFBCGLQ=d07//7PUinHsgigATi6Ocw==|9407=ZdlFsitVWo4=lFc2wIDLDmpyIHRqD6lATyJnxSHdQU9FmsraK7Ow3Wc=|10=041|
20230118-15:53:23.000000000 : 8=FIX.4.2|9=101|35=A|34=1|49=COIN|52=20230118-15:53:23.536|56=8e286475-d22e-57e5-a013-c32f34b696ef|98=0|108=30|141=Y|10=158|
20230118-15:53:26.000000000 : 8=FIX.4.2|9=202|35=H|34=2|49=8e286475-d22e-57e5-a013-c32f34b696ef|52=20230118-15:53:26.000|56=COIN|1=314dbd76-4459-41cd-ba9a-dccdd86b44e2|11=6f0c6015-5469-4e12-8dff-735af394890d|37=8eb4f32c-7ab0-4d67-a594-a02a4d6be397|10=170|
20230118-15:53:26.000000000 : 8=FIX.4.2|9=370|35=8|34=2|49=COIN|52=20230118-15:53:26.723|56=8e286475-d22e-57e5-a013-c32f34b696ef|1=314dbd76-4459-41cd-ba9a-dccdd86b44e2|6=20500|11=f5ffd7a2-432d-422d-b953-e3b95406ba82|14=0.005|17=1531cc84-eb29-4f7c-b134-4241775ca20b|20=3|32=0.0|37=8eb4f32c-7ab0-4d67-a594-a02a4d6be397|38=0.003|39=2|54=1|55=BTC-USD|78=1|79=314dbd76-4459-41cd-ba9a-dccdd86b44e2|80=0.0|150=I|151=-0.002|10=149|
20230118-15:53:54.000000000 : 8=FIX.4.2|9=252|35=A|34=1|49=8e286475-d22e-57e5-a013-c32f34b696ef|52=20230118-15:53:54.000|56=COIN|96=IYoYl/0M/9+glanVEYENOhmyMcNXxo+38i404wybPb4=|98=0|108=30|141=Y|554=5Rb5KFBCGLQ=d07//7PUinHsgigATi6Ocw==|9407=ZdlFsitVWo4=lFc2wIDLDmpyIHRqD6lATyJnxSHdQU9FmsraK7Ow3Wc=|10=147|
20230118-15:53:54.000000000 : 8=FIX.4.2|9=101|35=A|34=1|49=COIN|52=20230118-15:53:54.890|56=8e286475-d22e-57e5-a013-c32f34b696ef|98=0|108=30|141=Y|10=165|
20230118-15:53:57.000000000 : 8=FIX.4.2|9=202|35=H|34=2|49=8e286475-d22e-57e5-a013-c32f34b696ef|52=20230118-15:53:57.000|56=COIN|1=314dbd76-4459-41cd-ba9a-dccdd86b44e2|11=0649ad9d-d5a0-4589-b461-7ec204975516|37=8eb4f32c-7ab0-4d67-a594-a02a4d6be397|10=120|
20230118-15:53:57.000000000 : 8=FIX.4.2|9=370|35=8|34=2|49=COIN|52=20230118-15:53:57.784|56=8e286475-d22e-57e5-a013-c32f34b696ef|1=314dbd76-4459-41cd-ba9a-dccdd86b44e2|6=20500|11=f5ffd7a2-432d-422d-b953-e3b95406ba82|14=0.005|17=56a18194-568a-40d5-bedf-a4f693f8c04e|20=3|32=0.0|37=8eb4f32c-7ab0-4d67-a594-a02a4d6be397|38=0.003|39=2|54=1|55=BTC-USD|78=1|79=314dbd76-4459-41cd-ba9a-dccdd86b44e2|80=0.0|150=I|151=-0.002|10=026|
20230118-15:54:14.000000000 : 8=FIX.4.2|9=202|35=H|34=3|49=8e286475-d22e-57e5-a013-c32f34b696ef|52=20230118-15:54:14.000|56=COIN|1=314dbd76-4459-41cd-ba9a-dccdd86b44e2|11=ec0b749a-b137-47fe-92a0-97ae66ff9779|37=8a6f37f0-f8f1-482f-8186-907f262d4ae6|10=205|
20230118-15:54:14.000000000 : 8=FIX.4.2|9=366|35=8|34=3|49=COIN|52=20230118-15:54:14.264|56=8e286475-d22e-57e5-a013-c32f34b696ef|1=314dbd76-4459-41cd-ba9a-dccdd86b44e2|6=1583|11=b49def91-471e-41d2-82d6-0d103299e5a5|14=0.15|17=b263690e-d814-430d-b33d-8538deec4bdb|20=3|32=0.0|37=8a6f37f0-f8f1-482f-8186-907f262d4ae6|38=0.05|39=2|54=1|55=ETH-USD|78=1|79=314dbd76-4459-41cd-ba9a-dccdd86b44e2|80=0.0|150=I|151=-0.10|10=183|
20230118-15:54:35.000000000 : 8=FIX.4.2|9=83|35=5|34=4|49=8e286475-d22e-57e5-a013-c32f34b696ef|52=20230118-15:54:35.000|56=COIN|10=030|
20230118-15:54:35.000000000 : 8=FIX.4.2|9=83|35=5|34=4|49=COIN|52=20230118-15:54:35.342|56=8e286475-d22e-57e5-a013-c32f34b696ef|10=039|
20230118-15:54:35.000000000 : 8=FIX.4.2|9=83|35=5|34=5|49=8e286475-d22e-57e5-a013-c32f34b696ef|52=20230118-15:54:35.000|56=COIN|10=031|
20230118-15:54:38.000000000 : 8=FIX.4.2|9=252|35=A|34=1|49=8e286475-d22e-57e5-a013-c32f34b696ef|52=20230118-15:54:38.000|56=COIN|96=ZyT/zu1Uvm8aXIlFzU4ZaGc2bp+ql1KMYyfn8XQjPFI=|98=0|108=30|141=Y|554=5Rb5KFBCGLQ=d07//7PUinHsgigATi6Ocw==|9407=ZdlFsitVWo4=lFc2wIDLDmpyIHRqD6lATyJnxSHdQU9FmsraK7Ow3Wc=|10=086|
20230118-15:54:38.000000000 : 8=FIX.4.2|9=101|35=A|34=1|49=COIN|52=20230118-15:54:38.151|56=8e286475-d22e-57e5-a013-c32f34b696ef|98=0|108=30|141=Y|10=158|
20230118-15:54:41.000000000 : 8=FIX.4.2|9=202|35=H|34=2|49=8e286475-d22e-57e5-a013-c32f34b696ef|52=20230118-15:54:41.000|56=COIN|1=314dbd76-4459-41cd-ba9a-dccdd86b44e2|11=3fdb4047-00c7-4d49-abeb-c02cb04e41c7|37=8a6f37f0-f8f1-482f-8186-907f262d4ae6|10=249|
20230118-15:54:41.000000000 : 8=FIX.4.2|9=366|35=8|34=2|49=COIN|52=20230118-15:54:41.300|56=8e286475-d22e-57e5-a013-c32f34b696ef|1=314dbd76-4459-41cd-ba9a-dccdd86b44e2|6=1583|11=b49def91-471e-41d2-82d6-0d103299e5a5|14=0.15|17=397a5f84-08c9-4693-a746-360f8e96eb70|20=3|32=0.0|37=8a6f37f0-f8f1-482f-8186-907f262d4ae6|38=0.05|39=2|54=1|55=ETH-USD|78=1|79=314dbd76-4459-41cd-ba9a-dccdd86b44e2|80=0.0|150=I|151=-0.10|10=223|
20230118-15:55:11.000000000 : 8=FIX.4.2|9=83|35=0|34=3|49=COIN|52=20230118-15:55:11.301|56=8e286475-d22e-57e5-a013-c32f34b696ef|10=023|
20230118-15:55:11.000000000 : 8=FIX.4.2|9=83|35=0|34=3|49=8e286475-d22e-57e5-a013-c32f34b696ef|52=20230118-15:55:11.000|56=COIN|10=019|
20230118-15:55:32.000000000 : 8=FIX.4.2|9=252|35=A|34=1|49=8e286475-d22e-57e5-a013-c32f34b696ef|52=20230118-15:55:32.000|56=COIN|96=+ei3FwsO77TWKZh0oBNnDX8yWZ/r0KK0gau741WtCJA=|98=0|108=30|141=Y|554=5Rb5KFBCGLQ=d07//7PUinHsgigATi6Ocw==|9407=ZdlFsitVWo4=lFc2wIDLDmpyIHRqD6lATyJnxSHdQU9FmsraK7Ow3Wc=|10=031|
20230118-15:55:32.000000000 : 8=FIX.4.2|9=101|35=A|34=1|49=COIN|52=20230118-15:55:32.123|56=8e286475-d22e-57e5-a013-c32f34b696ef|98=0|108=30|141=Y|10=152|
20230118-15:55:34.000000000 : 8=FIX.4.2|9=202|35=H|34=2|49=8e286475-d22e-57e5-a013-c32f34b696ef|52=20230118-15:55:34.000|56=COIN|1=314dbd76-4459-41cd-ba9a-dccdd86b44e2|11=ade8bde3-7132-450e-b7bf-3543a7c284a4|37=8a6f37f0-f8f1-482f-8186-907f262d4ae6|10=220|
20230118-15:55:34.000000000 : 8=FIX.4.2|9=366|35=8|34=2|49=COIN|52=20230118-15:55:34.857|56=8e286475-d22e-57e5-a013-c32f34b696ef|1=314dbd76-4459-41cd-ba9a-dccdd86b44e2|6=1583|11=b49def91-471e-41d2-82d6-0d103299e5a5|14=0.15|17=f3a9d666-f892-45fa-b63a-340bf038c142|20=3|32=0.0|37=8a6f37f0-f8f1-482f-8186-907f262d4ae6|38=0.05|39=2|54=1|55=ETH-USD|78=1|79=314dbd76-4459-41cd-ba9a-dccdd86b44e2|80=0.0|150=I|151=-0.10|10=101|
20230118-15:56:20.000000000 : 8=FIX.4.2|9=252|35=A|34=1|49=8e286475-d22e-57e5-a013-c32f34b696ef|52=20230118-15:56:20.000|56=COIN|96=r5Tz1IrENnYc3NggQadaihwSh/T5JMOMSCRFKBs5/vQ=|98=0|108=30|141=Y|554=5Rb5KFBCGLQ=d07//7PUinHsgigATi6Ocw==|9407=ZdlFsitVWo4=lFc2wIDLDmpyIHRqD6lATyJnxSHdQU9FmsraK7Ow3Wc=|10=211|
20230118-15:56:21.000000000 : 8=FIX.4.2|9=101|35=A|34=1|49=COIN|52=20230118-15:56:21.017|56=8e286475-d22e-57e5-a013-c32f34b696ef|98=0|108=30|141=Y|10=153|
20230118-15:56:35.000000000 : 8=FIX.4.2|9=211|35=D|34=2|49=8e286475-d22e-57e5-a013-c32f34b696ef|52=20230118-15:56:35.000|56=COIN|1=314dbd76-4459-41cd-ba9a-dccdd86b44e2|11=afcc8918-0661-4c19-a72b-c32484169a35|38=0.0001|40=2|44=100|54=1|55=ETH-USD|59=1|847=L|10=165|
20230118-15:56:35.000000000 : 8=FIX.4.2|9=290|35=8|34=2|49=COIN|52=20230118-15:56:35.931|56=8e286475-d22e-57e5-a013-c32f34b696ef|6=0.00|11=afcc8918-0661-4c19-a72b-c32484169a35|14=0.00|17=68709413-7b2f-46d7-a017-379f4858baf4|20=0|37=NONE|39=8|54=1|55=ETH-USD|58=Size was lower than minimum base size.|103=99|150=8|151=0.0001000000000000|10=018|
20230118-15:56:50.000000000 : 8=FIX.4.2|9=211|35=D|34=3|49=8e286475-d22e-57e5-a013-c32f34b696ef|52=20230118-15:56:50.000|56=COIN|1=314dbd76-4459-41cd-ba9a-dccdd86b44e2|11=ee040b1c-21be-40ef-b7ae-11a28042c952|38=0.001|40=2|44=1000|54=1|55=ETH-USD|59=1|847=L|10=067|
20230118-15:56:50.000000000 : 8=FIX.4.2|9=388|35=8|34=3|49=COIN|52=20230118-15:56:50.921|56=8e286475-d22e-57e5-a013-c32f34b696ef|1=314dbd76-4459-41cd-ba9a-dccdd86b44e2|6=0.0|11=ee040b1c-21be-40ef-b7ae-11a28042c952|14=0|17=ad6f4cb8-319d-4e9d-bc78-bf0d68d28b16|20=0|32=0.0|37=05b32634-bffc-4123-9572-e8c40bb65d0b|38=0.001|39=A|54=1|55=ETH-USD|60=20230118-15:56:50.891|78=1|79=314dbd76-4459-41cd-ba9a-dccdd86b44e2|80=0.0|150=A|151=0.001|10=222|
20230118-15:56:50.000000000 : 8=FIX.4.2|9=388|35=8|34=4|49=COIN|52=20230118-15:56:50.940|56=8e286475-d22e-57e5-a013-c32f34b696ef|1=314dbd76-4459-41cd-ba9a-dccdd86b44e2|6=0.0|11=ee040b1c-21be-40ef-b7ae-11a28042c952|14=0|17=45a3e9ce-7792-433d-a829-31870b5d2d9c|20=0|32=0.0|37=05b32634-bffc-4123-9572-e8c40bb65d0b|38=0.001|39=0|54=1|55=ETH-USD|60=20230118-15:56:50.924|78=1|79=314dbd76-4459-41cd-ba9a-dccdd86b44e2|80=0.0|150=0|151=0.001|10=203|
20230118-15:57:06.000000000 : 8=FIX.4.2|9=202|35=H|34=4|49=8e286475-d22e-57e5-a013-c32f34b696ef|52=20230118-15:57:06.000|56=COIN|1=314dbd76-4459-41cd-ba9a-dccdd86b44e2|11=9eb85a35-5095-4ef2-8be3-442867deacac|37=314dbd76-4459-41cd-ba9a-dccdd86b44e2|10=200|
20230118-15:57:06.000000000 : 8=FIX.4.2|9=132|35=3|34=5|49=COIN|52=20230118-15:57:06.131|56=8e286475-d22e-57e5-a013-c32f34b696ef|45=4|58=failed to get order status request|372=H|10=231|
20230118-15:57:30.000000000 : 8=FIX.4.2|9=202|35=H|34=5|49=8e286475-d22e-57e5-a013-c32f34b696ef|52=20230118-15:57:30.000|56=COIN|1=314dbd76-4459-41cd-ba9a-dccdd86b44e2|11=88f5a2f3-4ba7-45e4-8131-470a76c36495|37=8e286475-d22e-57e5-a013-c32f34b696ef|10=242|
20230118-15:57:30.000000000 : 8=FIX.4.2|9=132|35=3|34=6|49=COIN|52=20230118-15:57:30.472|56=8e286475-d22e-57e5-a013-c32f34b696ef|45=5|58=failed to get order status request|372=H|10=238|
20230118-15:57:47.000000000 : 8=FIX.4.2|9=202|35=H|34=6|49=8e286475-d22e-57e5-a013-c32f34b696ef|52=20230118-15:57:47.000|56=COIN|1=314dbd76-4459-41cd-ba9a-dccdd86b44e2|11=1062d0be-8c51-45a0-99e0-1c8e373f19e0|37=05b32634-bffc-4123-9572-e8c40bb65d0b|10=097|
20230118-15:57:47.000000000 : 8=FIX.4.2|9=361|35=8|34=7|49=COIN|52=20230118-15:57:47.937|56=8e286475-d22e-57e5-a013-c32f34b696ef|1=314dbd76-4459-41cd-ba9a-dccdd86b44e2|6=0|11=ee040b1c-21be-40ef-b7ae-11a28042c952|14=0|17=ef3d6fbb-2c12-4ef4-b77a-7d822e312871|20=3|32=0.0|37=05b32634-bffc-4123-9572-e8c40bb65d0b|38=0.001|39=0|54=1|55=ETH-USD|78=1|79=314dbd76-4459-41cd-ba9a-dccdd86b44e2|80=0.0|150=I|151=0.001|10=057|
20230118-15:58:17.000000000 : 8=FIX.4.2|9=83|35=0|34=7|49=8e286475-d22e-57e5-a013-c32f34b696ef|52=20230118-15:58:17.000|56=COIN|10=032|
20230118-15:58:17.000000000 : 8=FIX.4.2|9=83|35=0|34=8|49=COIN|52=20230118-15:58:17.938|56=8e286475-d22e-57e5-a013-c32f34b696ef|10=053|
20230118-15:58:47.000000000 : 8=FIX.4.2|9=83|35=0|34=8|49=8e286475-d22e-57e5-a013-c32f34b696ef|52=20230118-15:58:47.000|56=COIN|10=036|
20230118-15:58:47.000000000 : 8=FIX.4.2|9=83|35=0|34=9|49=COIN|52=20230118-15:58:47.939|56=8e286475-d22e-57e5-a013-c32f34b696ef|10=058|
20230118-15:59:17.000000000 : 8=FIX.4.2|9=83|35=0|34=9|49=8e286475-d22e-57e5-a013-c32f34b696ef|52=20230118-15:59:17.000|56=COIN|10=035|
20230118-15:59:17.000000000 : 8=FIX.4.2|9=84|35=0|34=10|49=COIN|52=20230118-15:59:17.939|56=8e286475-d22e-57e5-a013-c32f34b696ef|10=097|
20230118-15:59:47.000000000 : 8=FIX.4.2|9=84|35=0|34=10|49=8e286475-d22e-57e5-a013-c32f34b696ef|52=20230118-15:59:47.000|56=COIN|10=079|
20230118-15:59:47.000000000 : 8=FIX.4.2|9=84|35=0|34=11|49=COIN|52=20230118-15:59:47.939|56=8e286475-d22e-57e5-a013-c32f34b696ef|10=101|
20230118-16:00:17.000000000 : 8=FIX.4.2|9=84|35=0|34=11|49=8e286475-d22e-57e5-a013-c32f34b696ef|52=20230118-16:00:17.000|56=COIN|10=064|
20230118-16:00:17.000000000 : 8=FIX.4.2|9=84|35=0|34=12|49=COIN|52=20230118-16:00:17.939|56=8e286475-d22e-57e5-a013-c32f34b696ef|10=086|
20230118-16:00:47.000000000 : 8=FIX.4.2|9=84|35=0|34=12|49=8e286475-d22e-57e5-a013-c32f34b696ef|52=20230118-16:00:47.000|56=COIN|10=068|
20230118-16:00:47.000000000 : 8=FIX.4.2|9=84|35=0|34=13|49=COIN|52=20230118-16:00:47.940|56=8e286475-d22e-57e5-a013-c32f34b696ef|10=082|
20230118-16:01:17.000000000 : 8=FIX.4.2|9=84|35=0|34=13|49=8e286475-d22e-57e5-a013-c32f34b696ef|52=20230118-16:01:17.000|56=COIN|10=067|
20230118-16:01:17.000000000 : 8=FIX.4.2|9=84|35=0|34=14|49=COIN|52=20230118-16:01:17.941|56=8e286475-d22e-57e5-a013-c32f34b696ef|10=082|
20230118-16:01:47.000000000 : 8=FIX.4.2|9=84|35=0|34=14|49=8e286475-d22e-57e5-a013-c32f34b696ef|52=20230118-16:01:47.000|56=COIN|10=071|
20230118-16:01:47.000000000 : 8=FIX.4.2|9=84|35=0|34=15|49=COIN|52=20230118-16:01:47.941|56=8e286475-d22e-57e5-a013-c32f34b696ef|10=086|
20230118-16:02:17.000000000 : 8=FIX.4.2|9=84|35=0|34=15|49=8e286475-d22e-57e5-a013-c32f34b696ef|52=20230118-16:02:17.000|56=COIN|10=070|
20230118-16:02:17.000000000 : 8=FIX.4.2|9=84|35=0|34=16|49=COIN|52=20230118-16:02:17.942|56=8e286475-d22e-57e5-a013-c32f34b696ef|10=086|
20230118-16:02:47.000000000 : 8=FIX.4.2|9=84|35=0|34=16|49=8e286475-d22e-57e5-a013-c32f34b696ef|52=20230118-16:02:47.000|56=COIN|10=074|
20230118-16:02:47.000000000 : 8=FIX.4.2|9=84|35=0|34=17|49=COIN|52=20230118-16:02:47.942|56=8e286475-d22e-57e5-a013-c32f34b696ef|10=090|
20230118-16:03:17.000000000 : 8=FIX.4.2|9=84|35=0|34=17|49=8e286475-d22e-57e5-a013-c32f34b696ef|52=20230118-16:03:17.000|56=COIN|10=073|
20230118-16:03:17.000000000 : 8=FIX.4.2|9=84|35=0|34=18|49=COIN|52=20230118-16:03:17.943|56=8e286475-d22e-57e5-a013-c32f34b696ef|10=090|
20230118-16:03:47.000000000 : 8=FIX.4.2|9=84|35=0|34=18|49=8e286475-d22e-57e5-a013-c32f34b696ef|52=20230118-16:03:47.000|56=COIN|10=077|
20230118-16:03:47.000000000 : 8=FIX.4.2|9=84|35=0|34=19|49=COIN|52=20230118-16:03:47.944|56=8e286475-d22e-57e5-a013-c32f34b696ef|10=095|
20230118-16:04:17.000000000 : 8=FIX.4.2|9=84|35=0|34=19|49=8e286475-d22e-57e5-a013-c32f34b696ef|52=20230118-16:04:17.000|56=COIN|10=076|
20230118-16:04:17.000000000 : 8=FIX.4.2|9=84|35=0|34=20|49=COIN|52=20230118-16:04:17.945|56=8e286475-d22e-57e5-a013-c32f34b696ef|10=086|
20230118-16:04:47.000000000 : 8=FIX.4.2|9=84|35=0|34=20|49=8e286475-d22e-57e5-a013-c32f34b696ef|52=20230118-16:04:47.000|56=COIN|10=071|
20230118-16:04:47.000000000 : 8=FIX.4.2|9=84|35=0|34=21|49=COIN|52=20230118-16:04:47.945|56=8e286475-d22e-57e5-a013-c32f34b696ef|10=090|
20230118-16:05:17.000000000 : 8=FIX.4.2|9=84|35=0|34=21|49=8e286475-d22e-57e5-a013-c32f34b696ef|52=20230118-16:05:17.000|56=COIN|10=070|
20230118-16:05:17.000000000 : 8=FIX.4.2|9=84|35=0|34=22|49=COIN|52=20230118-16:05:17.946|56=8e286475-d22e-57e5-a013-c32f34b696ef|10=090|
20230118-16:05:47.000000000 : 8=FIX.4.2|9=84|35=0|34=22|49=8e286475-d22e-57e5-a013-c32f34b696ef|52=20230118-16:05:47.000|56=COIN|10=074|
20230118-16:05:47.000000000 : 8=FIX.4.2|9=84|35=0|34=23|49=COIN|52=20230118-16:05:47.947|56=8e286475-d22e-57e5-a013-c32f34b696ef|10=095|
20230118-16:06:17.000000000 : 8=FIX.4.2|9=84|35=0|34=23|49=8e286475-d22e-57e5-a013-c32f34b696ef|52=20230118-16:06:17.000|56=COIN|10=073|
20230118-16:06:17.000000000 : 8=FIX.4.2|9=84|35=0|34=24|49=COIN|52=20230118-16:06:17.947|56=8e286475-d22e-57e5-a013-c32f34b696ef|10=094|
20230118-16:06:47.000000000 : 8=FIX.4.2|9=84|35=0|34=24|49=8e286475-d22e-57e5-a013-c32f34b696ef|52=20230118-16:06:47.000|56=COIN|10=077|
20230118-16:06:47.000000000 : 8=FIX.4.2|9=84|35=0|34=25|49=COIN|52=20230118-16:06:47.948|56=8e286475-d22e-57e5-a013-c32f34b696ef|10=099|
20230118-16:07:17.000000000 : 8=FIX.4.2|9=84|35=0|34=25|49=8e286475-d22e-57e5-a013-c32f34b696ef|52=20230118-16:07:17.000|56=COIN|10=076|
20230118-16:07:17.000000000 : 8=FIX.4.2|9=84|35=0|34=26|49=COIN|52=20230118-16:07:17.949|56=8e286475-d22e-57e5-a013-c32f34b696ef|10=099|
20230118-16:07:47.000000000 : 8=FIX.4.2|9=84|35=0|34=26|49=8e286475-d22e-57e5-a013-c32f34b696ef|52=20230118-16:07:47.000|56=COIN|10=080|
20230118-16:07:47.000000000 : 8=FIX.4.2|9=84|35=0|34=27|49=COIN|52=20230118-16:07:47.950|56=8e286475-d22e-57e5-a013-c32f34b696ef|10=095|
20230118-16:08:17.000000000 : 8=FIX.4.2|9=84|35=0|34=27|49=8e286475-d22e-57e5-a013-c32f34b696ef|52=20230118-16:08:17.000|56=COIN|10=079|
20230118-16:08:17.000000000 : 8=FIX.4.2|9=84|35=0|34=28|49=COIN|52=20230118-16:08:17.951|56=8e286475-d22e-57e5-a013-c32f34b696ef|10=095|
20230118-16:08:47.000000000 : 8=FIX.4.2|9=84|35=0|34=28|49=8e286475-d22e-57e5-a013-c32f34b696ef|52=20230118-16:08:47.000|56=COIN|10=083|
20230118-16:08:47.000000000 : 8=FIX.4.2|9=84|35=0|34=29|49=COIN|52=20230118-16:08:47.951|56=8e286475-d22e-57e5-a013-c32f34b696ef|10=099|
20230118-16:09:17.000000000 : 8=FIX.4.2|9=84|35=0|34=29|49=8e286475-d22e-57e5-a013-c32f34b696ef|52=20230118-16:09:17.000|56=COIN|10=082|
20230118-16:09:17.000000000 : 8=FIX.4.2|9=84|35=0|34=30|49=COIN|52=20230118-16:09:17.952|56=8e286475-d22e-57e5-a013-c32f34b696ef|10=090|
20230118-16:09:47.000000000 : 8=FIX.4.2|9=84|35=0|34=30|49=8e286475-d22e-57e5-a013-c32f34b696ef|52=20230118-16:09:47.000|56=COIN|10=077|
20230118-16:09:47.000000000 : 8=FIX.4.2|9=84|35=0|34=31|49=COIN|52=20230118-16:09:47.952|56=8e286475-d22e-57e5-a013-c32f34b696ef|10=094|
20230118-16:10:17.000000000 : 8=FIX.4.2|9=84|35=0|34=31|49=8e286475-d22e-57e5-a013-c32f34b696ef|52=20230118-16:10:17.000|56=COIN|10=067|
20230118-16:10:17.000000000 : 8=FIX.4.2|9=84|35=0|34=32|49=COIN|52=20230118-16:10:17.953|56=8e286475-d22e-57e5-a013-c32f34b696ef|10=085|
20230118-16:10:47.000000000 : 8=FIX.4.2|9=84|35=0|34=32|49=8e286475-d22e-57e5-a013-c32f34b696ef|52=20230118-16:10:47.000|56=COIN|10=071|
20230118-16:10:47.000000000 : 8=FIX.4.2|9=84|35=0|34=33|49=COIN|52=20230118-16:10:47.954|56=8e286475-d22e-57e5-a013-c32f34b696ef|10=090|
20230118-16:11:17.000000000 : 8=FIX.4.2|9=84|35=0|34=33|49=8e286475-d22e-57e5-a013-c32f34b696ef|52=20230118-16:11:17.000|56=COIN|10=070|
20230118-16:11:17.000000000 : 8=FIX.4.2|9=84|35=0|34=34|49=COIN|52=20230118-16:11:17.955|56=8e286475-d22e-57e5-a013-c32f34b696ef|10=090|
20230118-16:11:47.000000000 : 8=FIX.4.2|9=84|35=0|34=34|49=8e286475-d22e-57e5-a013-c32f34b696ef|52=20230118-16:11:47.000|56=COIN|10=074|
20230118-16:11:47.000000000 : 8=FIX.4.2|9=84|35=0|34=35|49=COIN|52=20230118-16:11:47.956|56=8e286475-d22e-57e5-a013-c32f34b696ef|10=095|
20230118-16:12:17.000000000 : 8=FIX.4.2|9=84|35=0|34=35|49=8e286475-d22e-57e5-a013-c32f34b696ef|52=20230118-16:12:17.000|56=COIN|10=073|
20230118-16:12:17.000000000 : 8=FIX.4.2|9=84|35=0|34=36|49=COIN|52=20230118-16:12:17.957|56=8e286475-d22e-57e5-a013-c32f34b696ef|10=095|
20230118-16:12:47.000000000 : 8=FIX.4.2|9=84|35=0|34=36|49=8e286475-d22e-57e5-a013-c32f34b696ef|52=20230118-16:12:47.000|56=COIN|10=077|
20230118-16:12:47.000000000 : 8=FIX.4.2|9=84|35=0|34=37|49=COIN|52=20230118-16:12:47.957|56=8e286475-d22e-57e5-a013-c32f34b696ef|10=099|
20230118-16:13:17.000000000 : 8=FIX.4.2|9=84|35=0|34=37|49=8e286475-d22e-57e5-a013-c32f34b696ef|52=20230118-16:13:17.000|56=COIN|10=076|
20230118-16:13:17.000000000 : 8=FIX.4.2|9=84|35=0|34=38|49=COIN|52=20230118-16:13:17.958|56=8e286475-d22e-57e5-a013-c32f34b696ef|10=099|
20230118-16:13:47.000000000 : 8=FIX.4.2|9=84|35=0|34=38|49=8e286475-d22e-57e5-a013-c32f34b696ef|52=20230118-16:13:47.000|56=COIN|10=080|
20230118-16:13:47.000000000 : 8=FIX.4.2|9=84|35=0|34=39|49=COIN|52=20230118-16:13:47.958|56=8e286475-d22e-57e5-a013-c32f34b696ef|10=103|
20230118-16:14:17.000000000 : 8=FIX.4.2|9=84|35=0|34=39|49=8e286475-d22e-57e5-a013-c32f34b696ef|52=20230118-16:14:17.000|56=COIN|10=079|
20230118-16:14:17.000000000 : 8=FIX.4.2|9=84|35=0|34=40|49=COIN|52=20230118-16:14:17.959|56=8e286475-d22e-57e5-a013-c32f34b696ef|10=094|
20230118-16:14:47.000000000 : 8=FIX.4.2|9=84|35=0|34=40|49=8e286475-d22e-57e5-a013-c32f34b696ef|52=20230118-16:14:47.000|56=COIN|10=074|
20230118-16:14:47.000000000 : 8=FIX.4.2|9=84|35=0|34=41|49=COIN|52=20230118-16:14:47.959|56=8e286475-d22e-57e5-a013-c32f34b696ef|10=098|
20230118-16:15:17.000000000 : 8=FIX.4.2|9=84|35=0|34=41|49=8e286475-d22e-57e5-a013-c32f34b696ef|52=20230118-16:15:17.000|56=COIN|10=073|
20230118-16:15:17.000000000 : 8=FIX.4.2|9=84|35=0|34=42|49=COIN|52=20230118-16:15:17.960|56=8e286475-d22e-57e5-a013-c32f34b696ef|10=089|
20230118-16:15:47.000000000 : 8=FIX.4.2|9=84|35=0|34=42|49=8e286475-d22e-57e5-a013-c32f34b696ef|52=20230118-16:15:47.000|56=COIN|10=077|
20230118-16:15:47.000000000 : 8=FIX.4.2|9=84|35=0|34=43|49=COIN|52=20230118-16:15:47.960|56=8e286475-d22e-57e5-a013-c32f34b696ef|10=093|
20230118-16:16:17.000000000 : 8=FIX.4.2|9=84|35=0|34=43|49=8e286475-d22e-57e5-a013-c32f34b696ef|52=20230118-16:16:17.000|56=COIN|10=076|
20230118-16:16:17.000000000 : 8=FIX.4.2|9=84|35=0|34=44|49=COIN|52=20230118-16:16:17.961|56=8e286475-d22e-57e5-a013-c32f34b696ef|10=093|
20230118-16:16:47.000000000 : 8=FIX.4.2|9=84|35=0|34=44|49=8e286475-d22e-57e5-a013-c32f34b696ef|52=20230118-16:16:47.000|56=COIN|10=080|
20230118-16:16:47.000000000 : 8=FIX.4.2|9=84|35=0|34=45|49=COIN|52=20230118-16:16:47.961|56=8e286475-d22e-57e5-a013-c32f34b696ef|10=097|
20230118-16:17:17.000000000 : 8=FIX.4.2|9=84|35=0|34=45|49=8e286475-d22e-57e5-a013-c32f34b696ef|52=20230118-16:17:17.000|56=COIN|10=079|
20230118-16:17:17.000000000 : 8=FIX.4.2|9=84|35=0|34=46|49=COIN|52=20230118-16:17:17.961|56=8e286475-d22e-57e5-a013-c32f34b696ef|10=096|
20230118-16:17:47.000000000 : 8=FIX.4.2|9=84|35=0|34=46|49=8e286475-d22e-57e5-a013-c32f34b696ef|52=20230118-16:17:47.000|56=COIN|10=083|
20230118-16:17:47.000000000 : 8=FIX.4.2|9=84|35=0|34=47|49=COIN|52=20230118-16:17:47.962|56=8e286475-d22e-57e5-a013-c32f34b696ef|10=101|
20230118-16:18:17.000000000 : 8=FIX.4.2|9=84|35=0|34=47|49=8e286475-d22e-57e5-a013-c32f34b696ef|52=20230118-16:18:17.000|56=COIN|10=082|
20230118-16:18:17.000000000 : 8=FIX.4.2|9=84|35=0|34=48|49=COIN|52=20230118-16:18:17.963|56=8e286475-d22e-57e5-a013-c32f34b696ef|10=101|
20230118-16:18:47.000000000 : 8=FIX.4.2|9=84|35=0|34=48|49=8e286475-d22e-57e5-a013-c32f34b696ef|52=20230118-16:18:47.000|56=COIN|10=086|
20230118-16:18:47.000000000 : 8=FIX.4.2|9=84|35=0|34=49|49=COIN|52=20230118-16:18:47.964|56=8e286475-d22e-57e5-a013-c32f34b696ef|10=106|
20230118-16:19:17.000000000 : 8=FIX.4.2|9=84|35=0|34=49|49=8e286475-d22e-57e5-a013-c32f34b696ef|52=20230118-16:19:17.000|56=COIN|10=085|
20230118-16:19:17.000000000 : 8=FIX.4.2|9=84|35=0|34=50|49=COIN|52=20230118-16:19:17.964|56=8e286475-d22e-57e5-a013-c32f34b696ef|10=096|
20230118-16:19:47.000000000 : 8=FIX.4.2|9=84|35=0|34=50|49=8e286475-d22e-57e5-a013-c32f34b696ef|52=20230118-16:19:47.000|56=COIN|10=080|
20230118-16:19:47.000000000 : 8=FIX.4.2|9=84|35=0|34=51|49=COIN|52=20230118-16:19:47.964|56=8e286475-d22e-57e5-a013-c32f34b696ef|10=100|
20230118-16:20:17.000000000 : 8=FIX.4.2|9=84|35=0|34=51|49=8e286475-d22e-57e5-a013-c32f34b696ef|52=20230118-16:20:17.000|56=COIN|10=070|
20230118-16:20:17.000000000 : 8=FIX.4.2|9=84|35=0|34=52|49=COIN|52=20230118-16:20:17.965|56=8e286475-d22e-57e5-a013-c32f34b696ef|10=091|
20230118-16:20:24.000000000 : 8=FIX.4.2|9=252|35=A|34=1|49=8e286475-d22e-57e5-a013-c32f34b696ef|52=20230118-16:20:24.000|56=COIN|96=sxqgvERAeb7jWD00q/hDxDiFFrCUPHl/L8MwIQSlSEo=|98=0|108=30|141=Y|554=5Rb5KFBCGLQ=d07//7PUinHsgigATi6Ocw==|9407=ZdlFsitVWo4=lFc2wIDLDmpyIHRqD6lATyJnxSHdQU9FmsraK7Ow3Wc=|10=250|
20230118-16:20:24.000000000 : 8=FIX.4.2|9=101|35=A|34=1|49=COIN|52=20230118-16:20:24.510|56=8e286475-d22e-57e5-a013-c32f34b696ef|98=0|108=30|141=Y|10=146|
20230118-16:20:54.000000000 : 8=FIX.4.2|9=83|35=0|34=2|49=COIN|52=20230118-16:20:54.511|56=8e286475-d22e-57e5-a013-c32f34b696ef|10=025|
20230118-16:20:54.000000000 : 8=FIX.4.2|9=83|35=0|34=2|49=8e286475-d22e-57e5-a013-c32f34b696ef|52=20230118-16:20:54.000|56=COIN|10=018|
20230118-16:21:24.000000000 : 8=FIX.4.2|9=83|35=0|34=3|49=COIN|52=20230118-16:21:24.512|56=8e286475-d22e-57e5-a013-c32f34b696ef|10=025|
20230118-16:21:24.000000000 : 8=FIX.4.2|9=83|35=0|34=3|49=8e286475-d22e-57e5-a013-c32f34b696ef|52=20230118-16:21:24.000|56=COIN|10=017|
20230118-16:21:54.000000000 : 8=FIX.4.2|9=83|35=0|34=4|49=COIN|52=20230118-16:21:54.512|56=8e286475-d22e-57e5-a013-c32f34b696ef|10=029|
20230118-16:21:54.000000000 : 8=FIX.4.2|9=83|35=0|34=4|49=8e286475-d22e-57e5-a013-c32f34b696ef|52=20230118-16:21:54.000|56=COIN|10=021|
20230118-16:22:24.000000000 : 8=FIX.4.2|9=83|35=0|34=5|49=8e286475-d22e-57e5-a013-c32f34b696ef|52=20230118-16:22:24.000|56=COIN|10=020|
20230118-16:22:24.000000000 : 8=FIX.4.2|9=83|35=0|34=5|49=COIN|52=20230118-16:22:24.513|56=8e286475-d22e-57e5-a013-c32f34b696ef|10=029|
20230118-16:22:54.000000000 : 8=FIX.4.2|9=83|35=0|34=6|49=8e286475-d22e-57e5-a013-c32f34b696ef|52=20230118-16:22:54.000|56=COIN|10=024|
20230118-16:22:54.000000000 : 8=FIX.4.2|9=83|35=0|34=6|49=COIN|52=20230118-16:22:54.513|56=8e286475-d22e-57e5-a013-c32f34b696ef|10=033|
20230118-16:23:24.000000000 : 8=FIX.4.2|9=83|35=0|34=7|49=8e286475-d22e-57e5-a013-c32f34b696ef|52=20230118-16:23:24.000|56=COIN|10=023|
20230118-16:23:24.000000000 : 8=FIX.4.2|9=83|35=0|34=7|49=COIN|52=20230118-16:23:24.513|56=8e286475-d22e-57e5-a013-c32f34b696ef|10=032|
20230118-16:23:54.000000000 : 8=FIX.4.2|9=83|35=0|34=8|49=8e286475-d22e-57e5-a013-c32f34b696ef|52=20230118-16:23:54.000|56=COIN|10=027|
20230118-16:23:54.000000000 : 8=FIX.4.2|9=83|35=0|34=8|49=COIN|52=20230118-16:23:54.514|56=8e286475-d22e-57e5-a013-c32f34b696ef|10=037|
20230118-16:24:24.000000000 : 8=FIX.4.2|9=83|35=0|34=9|49=COIN|52=20230118-16:24:24.515|56=8e286475-d22e-57e5-a013-c32f34b696ef|10=037|
20230118-16:24:24.000000000 : 8=FIX.4.2|9=83|35=0|34=9|49=8e286475-d22e-57e5-a013-c32f34b696ef|52=20230118-16:24:24.000|56=COIN|10=026|
20230118-16:24:54.000000000 : 8=FIX.4.2|9=84|35=0|34=10|49=COIN|52=20230118-16:24:54.516|56=8e286475-d22e-57e5-a013-c32f34b696ef|10=082|
20230118-16:24:54.000000000 : 8=FIX.4.2|9=84|35=0|34=10|49=8e286475-d22e-57e5-a013-c32f34b696ef|52=20230118-16:24:54.000|56=COIN|10=070|
20230118-16:25:24.000000000 : 8=FIX.4.2|9=84|35=0|34=11|49=COIN|52=20230118-16:25:24.517|56=8e286475-d22e-57e5-a013-c32f34b696ef|10=082|
20230118-16:25:24.000000000 : 8=FIX.4.2|9=84|35=0|34=11|49=8e286475-d22e-57e5-a013-c32f34b696ef|52=20230118-16:25:24.000|56=COIN|10=069|
20230118-16:25:54.000000000 : 8=FIX.4.2|9=84|35=0|34=12|49=8e286475-d22e-57e5-a013-c32f34b696ef|52=20230118-16:25:54.000|56=COIN|10=073|
20230118-16:25:54.000000000 : 8=FIX.4.2|9=84|35=0|34=12|49=COIN|52=20230118-16:25:54.519|56=8e286475-d22e-57e5-a013-c32f34b696ef|10=088|
20230118-16:26:24.000000000 : 8=FIX.4.2|9=84|35=0|34=13|49=8e286475-d22e-57e5-a013-c32f34b696ef|52=20230118-16:26:24.000|56=COIN|10=072|
20230118-16:26:24.000000000 : 8=FIX.4.2|9=84|35=0|34=13|49=COIN|52=20230118-16:26:24.519|56=8e286475-d22e-57e5-a013-c32f34b696ef|10=087|
20230118-16:26:54.000000000 : 8=FIX.4.2|9=84|35=0|34=14|49=8e286475-d22e-57e5-a013-c32f34b696ef|52=20230118-16:26:54.000|56=COIN|10=076|
20230118-16:26:54.000000000 : 8=FIX.4.2|9=84|35=0|34=14|49=COIN|52=20230118-16:26:54.520|56=8e286475-d22e-57e5-a013-c32f34b696ef|10=083|
20230118-16:27:24.000000000 : 8=FIX.4.2|9=84|35=0|34=15|49=COIN|52=20230118-16:27:24.521|56=8e286475-d22e-57e5-a013-c32f34b696ef|10=083|
20230118-16:27:24.000000000 : 8=FIX.4.2|9=84|35=0|34=15|49=8e286475-d22e-57e5-a013-c32f34b696ef|52=20230118-16:27:24.000|56=COIN|10=075|
20230118-16:27:54.000000000 : 8=FIX.4.2|9=84|35=0|34=16|49=COIN|52=20230118-16:27:54.521|56=8e286475-d22e-57e5-a013-c32f34b696ef|10=087|
20230118-16:27:54.000000000 : 8=FIX.4.2|9=84|35=0|34=16|49=8e286475-d22e-57e5-a013-c32f34b696ef|52=20230118-16:27:54.000|56=COIN|10=079|
20230118-16:28:24.000000000 : 8=FIX.4.2|9=84|35=0|34=17|49=COIN|52=20230118-16:28:24.521|56=8e286475-d22e-57e5-a013-c32f34b696ef|10=086|
20230118-16:28:24.000000000 : 8=FIX.4.2|9=84|35=0|34=17|49=8e286475-d22e-57e5-a013-c32f34b696ef|52=20230118-16:28:24.000|56=COIN|10=078|
20230118-16:28:54.000000000 : 8=FIX.4.2|9=84|35=0|34=18|49=8e286475-d22e-57e5-a013-c32f34b696ef|52=20230118-16:28:54.000|56=COIN|10=082|
20230118-16:28:54.000000000 : 8=FIX.4.2|9=84|35=0|34=18|49=COIN|52=20230118-16:28:54.522|56=8e286475-d22e-57e5-a013-c32f34b696ef|10=091|
20230118-16:29:24.000000000 : 8=FIX.4.2|9=84|35=0|34=19|49=8e286475-d22e-57e5-a013-c32f34b696ef|52=20230118-16:29:24.000|56=COIN|10=081|
20230118-16:29:24.000000000 : 8=FIX.4.2|9=84|35=0|34=19|49=COIN|52=20230118-16:29:24.522|56=8e286475-d22e-57e5-a013-c32f34b696ef|10=090|
20230118-16:29:54.000000000 : 8=FIX.4.2|9=84|35=0|34=20|49=8e286475-d22e-57e5-a013-c32f34b696ef|52=20230118-16:29:54.000|56=COIN|10=076|
20230118-16:29:54.000000000 : 8=FIX.4.2|9=84|35=0|34=20|49=COIN|52=20230118-16:29:54.522|56=8e286475-d22e-57e5-a013-c32f34b696ef|10=085|
20230118-16:30:24.000000000 : 8=FIX.4.2|9=84|35=0|34=21|49=COIN|52=20230118-16:30:24.523|56=8e286475-d22e-57e5-a013-c32f34b696ef|10=076|
20230118-16:30:24.000000000 : 8=FIX.4.2|9=84|35=0|34=21|49=8e286475-d22e-57e5-a013-c32f34b696ef|52=20230118-16:30:24.000|56=COIN|10=066|
20230118-16:30:54.000000000 : 8=FIX.4.2|9=84|35=0|34=22|49=COIN|52=20230118-16:30:54.523|56=8e286475-d22e-57e5-a013-c32f34b696ef|10=080|
20230118-16:30:54.000000000 : 8=FIX.4.2|9=84|35=0|34=22|49=8e286475-d22e-57e5-a013-c32f34b696ef|52=20230118-16:30:54.000|56=COIN|10=070|
20230118-16:31:24.000000000 : 8=FIX.4.2|9=84|35=0|34=23|49=COIN|52=20230118-16:31:24.523|56=8e286475-d22e-57e5-a013-c32f34b696ef|10=079|
20230118-16:31:24.000000000 : 8=FIX.4.2|9=84|35=0|34=23|49=8e286475-d22e-57e5-a013-c32f34b696ef|52=20230118-16:31:24.000|56=COIN|10=069|
20230118-16:31:54.000000000 : 8=FIX.4.2|9=84|35=0|34=24|49=COIN|52=20230118-16:31:54.524|56=8e286475-d22e-57e5-a013-c32f34b696ef|10=084|
20230118-16:31:54.000000000 : 8=FIX.4.2|9=84|35=0|34=24|49=8e286475-d22e-57e5-a013-c32f34b696ef|52=20230118-16:31:54.000|56=COIN|10=073|
20230118-16:32:24.000000000 : 8=FIX.4.2|9=84|35=0|34=25|49=8e286475-d22e-57e5-a013-c32f34b696ef|52=20230118-16:32:24.000|56=COIN|10=072|
20230118-16:32:24.000000000 : 8=FIX.4.2|9=84|35=0|34=25|49=COIN|52=20230118-16:32:24.524|56=8e286475-d22e-57e5-a013-c32f34b696ef|10=083|
20230118-16:32:54.000000000 : 8=FIX.4.2|9=84|35=0|34=26|49=8e286475-d22e-57e5-a013-c32f34b696ef|52=20230118-16:32:54.000|56=COIN|10=076|
20230118-16:32:54.000000000 : 8=FIX.4.2|9=84|35=0|34=26|49=COIN|52=20230118-16:32:54.525|56=8e286475-d22e-57e5-a013-c32f34b696ef|10=088|
20230118-16:33:24.000000000 : 8=FIX.4.2|9=84|35=0|34=27|49=8e286475-d22e-57e5-a013-c32f34b696ef|52=20230118-16:33:24.000|56=COIN|10=075|
20230118-16:33:24.000000000 : 8=FIX.4.2|9=84|35=0|34=27|49=COIN|52=20230118-16:33:24.525|56=8e286475-d22e-57e5-a013-c32f34b696ef|10=087|
20230118-16:33:54.000000000 : 8=FIX.4.2|9=84|35=0|34=28|49=8e286475-d22e-57e5-a013-c32f34b696ef|52=20230118-16:33:54.000|56=COIN|10=079|
20230118-16:33:54.000000000 : 8=FIX.4.2|9=84|35=0|34=28|49=COIN|52=20230118-16:33:54.526|56=8e286475-d22e-57e5-a013-c32f34b696ef|10=092|
20230118-16:34:24.000000000 : 8=FIX.4.2|9=84|35=0|34=29|49=8e286475-d22e-57e5-a013-c32f34b696ef|52=20230118-16:34:24.000|56=COIN|10=078|
20230118-16:34:24.000000000 : 8=FIX.4.2|9=84|35=0|34=29|49=COIN|52=20230118-16:34:24.526|56=8e286475-d22e-57e5-a013-c32f34b696ef|10=091|
20230118-16:34:54.000000000 : 8=FIX.4.2|9=84|35=0|34=30|49=COIN|52=20230118-16:34:54.527|56=8e286475-d22e-57e5-a013-c32f34b696ef|10=087|
20230118-16:34:54.000000000 : 8=FIX.4.2|9=84|35=0|34=30|49=8e286475-d22e-57e5-a013-c32f34b696ef|52=20230118-16:34:54.000|56=COIN|10=073|
20230118-16:35:24.000000000 : 8=FIX.4.2|9=84|35=0|34=31|49=COIN|52=20230118-16:35:24.527|56=8e286475-d22e-57e5-a013-c32f34b696ef|10=086|
20230118-16:35:24.000000000 : 8=FIX.4.2|9=84|35=0|34=31|49=8e286475-d22e-57e5-a013-c32f34b696ef|52=20230118-16:35:24.000|56=COIN|10=072|
20230118-16:35:54.000000000 : 8=FIX.4.2|9=84|35=0|34=32|49=COIN|52=20230118-16:35:54.528|56=8e286475-d22e-57e5-a013-c32f34b696ef|10=091|
20230118-16:35:54.000000000 : 8=FIX.4.2|9=84|35=0|34=32|49=8e286475-d22e-57e5-a013-c32f34b696ef|52=20230118-16:35:54.000|56=COIN|10=076|
20230118-16:36:24.000000000 : 8=FIX.4.2|9=84|35=0|34=33|49=8e286475-d22e-57e5-a013-c32f34b696ef|52=20230118-16:36:24.000|56=COIN|10=075|
20230118-16:36:24.000000000 : 8=FIX.4.2|9=84|35=0|34=33|49=COIN|52=20230118-16:36:24.529|56=8e286475-d22e-57e5-a013-c32f34b696ef|10=091|
20230118-16:36:54.000000000 : 8=FIX.4.2|9=84|35=0|34=34|49=8e286475-d22e-57e5-a013-c32f34b696ef|52=20230118-16:36:54.000|56=COIN|10=079|
20230118-16:36:54.000000000 : 8=FIX.4.2|9=84|35=0|34=34|49=COIN|52=20230118-16:36:54.530|56=8e286475-d22e-57e5-a013-c32f34b696ef|10=087|
20230118-16:37:24.000000000 : 8=FIX.4.2|9=84|35=0|34=35|49=8e286475-d22e-57e5-a013-c32f34b696ef|52=20230118-16:37:24.000|56=COIN|10=078|
20230118-16:37:24.000000000 : 8=FIX.4.2|9=84|35=0|34=35|49=COIN|52=20230118-16:37:24.530|56=8e286475-d22e-57e5-a013-c32f34b696ef|10=086|
20230118-16:37:54.000000000 : 8=FIX.4.2|9=84|35=0|34=36|49=8e286475-d22e-57e5-a013-c32f34b696ef|52=20230118-16:37:54.000|56=COIN|10=082|
20230118-16:37:54.000000000 : 8=FIX.4.2|9=84|35=0|34=36|49=COIN|52=20230118-16:37:54.531|56=8e286475-d22e-57e5-a013-c32f34b696ef|10=091|
20230118-16:38:24.000000000 : 8=FIX.4.2|9=84|35=0|34=37|49=COIN|52=20230118-16:38:24.531|56=8e286475-d22e-57e5-a013-c32f34b696ef|10=090|
20230118-16:38:24.000000000 : 8=FIX.4.2|9=84|35=0|34=37|49=8e286475-d22e-57e5-a013-c32f34b696ef|52=20230118-16:38:24.000|56=COIN|10=081|
20230118-16:38:54.000000000 : 8=FIX.4.2|9=84|35=0|34=38|49=COIN|52=20230118-16:38:54.532|56=8e286475-d22e-57e5-a013-c32f34b696ef|10=095|
20230118-16:38:54.000000000 : 8=FIX.4.2|9=84|35=0|34=38|49=8e286475-d22e-57e5-a013-c32f34b696ef|52=20230118-16:38:54.000|56=COIN|10=085|
20230118-16:39:24.000000000 : 8=FIX.4.2|9=84|35=0|34=39|49=8e286475-d22e-57e5-a013-c32f34b696ef|52=20230118-16:39:24.000|56=COIN|10=084|
20230118-16:39:24.000000000 : 8=FIX.4.2|9=84|35=0|34=39|49=COIN|52=20230118-16:39:24.533|56=8e286475-d22e-57e5-a013-c32f34b696ef|10=095|
20230118-16:39:54.000000000 : 8=FIX.4.2|9=84|35=0|34=40|49=8e286475-d22e-57e5-a013-c32f34b696ef|52=20230118-16:39:54.000|56=COIN|10=079|
20230118-16:39:54.000000000 : 8=FIX.4.2|9=84|35=0|34=40|49=COIN|52=20230118-16:39:54.533|56=8e286475-d22e-57e5-a013-c32f34b696ef|10=090|
20230118-16:40:24.000000000 : 8=FIX.4.2|9=84|35=0|34=41|49=8e286475-d22e-57e5-a013-c32f34b696ef|52=20230118-16:40:24.000|56=COIN|10=069|
20230118-16:40:24.000000000 : 8=FIX.4.2|9=84|35=0|34=41|49=COIN|52=20230118-16:40:24.534|56=8e286475-d22e-57e5-a013-c32f34b696ef|10=081|
20230118-16:40:54.000000000 : 8=FIX.4.2|9=84|35=0|34=42|49=8e286475-d22e-57e5-a013-c32f34b696ef|52=20230118-16:40:54.000|56=COIN|10=073|
20230118-16:40:54.000000000 : 8=FIX.4.2|9=84|35=0|34=42|49=COIN|52=20230118-16:40:54.535|56=8e286475-d22e-57e5-a013-c32f34b696ef|10=086|
20230118-16:41:24.000000000 : 8=FIX.4.2|9=84|35=0|34=43|49=8e286475-d22e-57e5-a013-c32f34b696ef|52=20230118-16:41:24.000|56=COIN|10=072|
20230118-16:41:24.000000000 : 8=FIX.4.2|9=84|35=0|34=43|49=COIN|52=20230118-16:41:24.535|56=8e286475-d22e-57e5-a013-c32f34b696ef|10=085|
20230118-16:41:54.000000000 : 8=FIX.4.2|9=84|35=0|34=44|49=COIN|52=20230118-16:41:54.536|56=8e286475-d22e-57e5-a013-c32f34b696ef|10=090|
20230118-16:41:54.000000000 : 8=FIX.4.2|9=84|35=0|34=44|49=8e286475-d22e-57e5-a013-c32f34b696ef|52=20230118-16:41:54.000|56=COIN|10=076|
20230118-16:42:24.000000000 : 8=FIX.4.2|9=84|35=0|34=45|49=COIN|52=20230118-16:42:24.537|56=8e286475-d22e-57e5-a013-c32f34b696ef|10=090|
20230118-16:42:24.000000000 : 8=FIX.4.2|9=84|35=0|34=45|49=8e286475-d22e-57e5-a013-c32f34b696ef|52=20230118-16:42:24.000|56=COIN|10=075|
20230118-16:42:28.000000000 : 8=FIX.4.2|9=204|35=D|34=46|49=8e286475-d22e-57e5-a013-c32f34b696ef|52=20230118-16:42:28.000|56=COIN|1=314dbd76-4459-41cd-ba9a-dccdd86b44e2|11=4fb4fc48-0b8e-4649-8df8-9858c670386e|38=0.001|40=1|54=1|55=ETH-USD|59=3|847=M|10=207|
20230118-16:42:28.000000000 : 8=FIX.4.2|9=389|35=8|34=46|49=COIN|52=20230118-16:42:28.610|56=8e286475-d22e-57e5-a013-c32f34b696ef|1=314dbd76-4459-41cd-ba9a-dccdd86b44e2|6=0.0|11=4fb4fc48-0b8e-4649-8df8-9858c670386e|14=0|17=05b477f5-c5a2-45af-968f-41c5c4b04bb8|20=0|32=0.0|37=8703c9fa-0387-44fe-9b81-e95282d687b6|38=0.001|39=A|54=1|55=ETH-USD|60=20230118-16:42:28.588|78=1|79=314dbd76-4459-41cd-ba9a-dccdd86b44e2|80=0.0|150=A|151=0.001|10=251|
20230118-16:42:28.000000000 : 8=FIX.4.2|9=389|35=8|34=47|49=COIN|52=20230118-16:42:28.619|56=8e286475-d22e-57e5-a013-c32f34b696ef|1=314dbd76-4459-41cd-ba9a-dccdd86b44e2|6=0.0|11=4fb4fc48-0b8e-4649-8df8-9858c670386e|14=0|17=4944e6e1-08fe-4ba0-9dbc-738fcccb5ec2|20=0|32=0.0|37=8703c9fa-0387-44fe-9b81-e95282d687b6|38=0.001|39=0|54=1|55=ETH-USD|60=20230118-16:42:28.610|78=1|79=314dbd76-4459-41cd-ba9a-dccdd86b44e2|80=0.0|150=0|151=0.001|10=151|
20230118-16:42:28.000000000 : 8=FIX.4.2|9=453|35=8|34=48|49=COIN|52=20230118-16:42:28.697|56=8e286475-d22e-57e5-a013-c32f34b696ef|1=314dbd76-4459-41cd-ba9a-dccdd86b44e2|6=1515.39|11=4fb4fc48-0b8e-4649-8df8-9858c670386e|14=0.001|17=4f198be0-3aed-4aa6-91b9-8f32a81d167e|20=0|30=coinbase.exchange|31=1515.39|32=0.001|37=8703c9fa-0387-44fe-9b81-e95282d687b6|38=0.001|39=2|54=1|55=ETH-USD|60=20230118-16:42:28.682|78=1|79=314dbd76-4459-41cd-ba9a-dccdd86b44e2|80=0.001|12=0.003788475|13=3|150=2|151=0.000|10=120|
20230118-16:42:58.000000000 : 8=FIX.4.2|9=84|35=0|34=47|49=8e286475-d22e-57e5-a013-c32f34b696ef|52=20230118-16:42:58.000|56=COIN|10=084|
20230118-16:42:58.000000000 : 8=FIX.4.2|9=84|35=0|34=49|49=COIN|52=20230118-16:42:58.698|56=8e286475-d22e-57e5-a013-c32f34b696ef|10=109|
20230118-16:43:28.000000000 : 8=FIX.4.2|9=84|35=0|34=48|49=8e286475-d22e-57e5-a013-c32f34b696ef|52=20230118-16:43:28.000|56=COIN|10=083|
20230118-16:43:28.000000000 : 8=FIX.4.2|9=84|35=0|34=50|49=COIN|52=20230118-16:43:28.699|56=8e286475-d22e-57e5-a013-c32f34b696ef|10=100|
20230118-16:43:58.000000000 : 8=FIX.4.2|9=84|35=0|34=51|49=COIN|52=20230118-16:43:58.699|56=8e286475-d22e-57e5-a013-c32f34b696ef|10=104|
20230118-16:43:58.000000000 : 8=FIX.4.2|9=84|35=0|34=49|49=8e286475-d22e-57e5-a013-c32f34b696ef|52=20230118-16:43:58.000|56=COIN|10=087|
20230118-16:44:44.000000000 : 8=FIX.4.2|9=252|35=A|34=1|49=8e286475-d22e-57e5-a013-c32f34b696ef|52=20230118-16:44:44.000|56=COIN|96=WiGga6SLeImutOpr5siaNG7FxoQPhFiQzQfLt3r/5ns=|98=0|108=30|141=Y|554=5Rb5KFBCGLQ=d07//7PUinHsgigATi6Ocw==|9407=ZdlFsitVWo4=lFc2wIDLDmpyIHRqD6lATyJnxSHdQU9FmsraK7Ow3Wc=|10=212|
20230118-16:44:44.000000000 : 8=FIX.4.2|9=101|35=A|34=1|49=COIN|52=20230118-16:44:44.962|56=8e286475-d22e-57e5-a013-c32f34b696ef|98=0|108=30|141=Y|10=165|
20230118-16:45:14.000000000 : 8=FIX.4.2|9=83|35=0|34=2|49=8e286475-d22e-57e5-a013-c32f34b696ef|52=20230118-16:45:14.000|56=COIN|10=021|
20230118-16:45:14.000000000 : 8=FIX.4.2|9=83|35=0|34=2|49=COIN|52=20230118-16:45:14.963|56=8e286475-d22e-57e5-a013-c32f34b696ef|10=039|
20230118-16:45:44.000000000 : 8=FIX.4.2|9=83|35=0|34=3|49=8e286475-d22e-57e5-a013-c32f34b696ef|52=20230118-16:45:44.000|56=COIN|10=025|
20230118-16:45:44.000000000 : 8=FIX.4.2|9=83|35=0|34=3|49=COIN|52=20230118-16:45:44.963|56=8e286475-d22e-57e5-a013-c32f34b696ef|10=043|
20230118-16:51:20.000000000 : 8=FIX.4.2|9=252|35=A|34=1|49=8e286475-d22e-57e5-a013-c32f34b696ef|52=20230118-16:51:20.000|56=COIN|96=SFi5FJ6Z75cdZ51n0FgoOSDMfJKzmz3ATd6GFzq9gHA=|98=0|108=30|141=Y|554=5Rb5KFBCGLQ=d07//7PUinHsgigATi6Ocw==|9407=ZdlFsitVWo4=lFc2wIDLDmpyIHRqD6lATyJnxSHdQU9FmsraK7Ow3Wc=|10=058|
20230118-16:51:20.000000000 : 8=FIX.4.2|9=101|35=A|34=1|49=COIN|52=20230118-16:51:20.978|56=8e286475-d22e-57e5-a013-c32f34b696ef|98=0|108=30|141=Y|10=164|
20230118-16:51:50.000000000 : 8=FIX.4.2|9=83|35=0|34=2|49=8e286475-d22e-57e5-a013-c32f34b696ef|52=20230118-16:51:50.000|56=COIN|10=018|
20230118-16:51:50.000000000 : 8=FIX.4.2|9=83|35=0|34=2|49=COIN|52=20230118-16:51:50.978|56=8e286475-d22e-57e5-a013-c32f34b696ef|10=042|
20230118-16:57:06.000000000 : 8=FIX.4.2|9=252|35=A|34=1|49=8e286475-d22e-57e5-a013-c32f34b696ef|52=20230118-16:57:06.000|56=COIN|96=IMTGLeFzD4m7gTFhCEKmnPwtUImudq3KvMDgJDeVY2k=|98=0|108=30|141=Y|554=5Rb5KFBCGLQ=d07//7PUinHsgigATi6Ocw==|9407=ZdlFsitVWo4=lFc2wIDLDmpyIHRqD6lATyJnxSHdQU9FmsraK7Ow3Wc=|10=062|
20230118-16:57:06.000000000 : 8=FIX.4.2|9=101|35=A|34=1|49=COIN|52=20230118-16:57:06.402|56=8e286475-d22e-57e5-a013-c32f34b696ef|98=0|108=30|141=Y|10=156|
20230118-16:57:36.000000000 : 8=FIX.4.2|9=83|35=0|34=2|49=COIN|52=20230118-16:57:36.402|56=8e286475-d22e-57e5-a013-c32f34b696ef|10=034|
20230118-16:57:36.000000000 : 8=FIX.4.2|9=83|35=0|34=2|49=8e286475-d22e-57e5-a013-c32f34b696ef|52=20230118-16:57:36.000|56=COIN|10=028|
20230118-17:02:15.000000000 : 8=FIX.4.2|9=252|35=A|34=1|49=8e286475-d22e-57e5-a013-c32f34b696ef|52=20230118-17:02:15.000|56=COIN|96=cKBMmxWToGZ+mU/wH/NTezvGefwvid1F72dhb8Kn9Os=|98=0|108=30|141=Y|554=5Rb5KFBCGLQ=d07//7PUinHsgigATi6Ocw==|9407=ZdlFsitVWo4=lFc2wIDLDmpyIHRqD6lATyJnxSHdQU9FmsraK7Ow3Wc=|10=073|
20230118-17:02:15.000000000 : 8=FIX.4.2|9=101|35=A|34=1|49=COIN|52=20230118-17:02:15.472|56=8e286475-d22e-57e5-a013-c32f34b696ef|98=0|108=30|141=Y|10=154|
20230118-17:02:45.000000000 : 8=FIX.4.2|9=83|35=0|34=2|49=8e286475-d22e-57e5-a013-c32f34b696ef|52=20230118-17:02:45.000|56=COIN|10=019|
20230118-17:02:45.000000000 : 8=FIX.4.2|9=83|35=0|34=2|49=COIN|52=20230118-17:02:45.472|56=8e286475-d22e-57e5-a013-c32f34b696ef|10=032|
20230118-17:18:58.000000000 : 8=FIX.4.2|9=252|35=A|34=1|49=8e286475-d22e-57e5-a013-c32f34b696ef|52=20230118-17:18:58.000|56=COIN|96=pJrC1MBTaMllHva9jIMVy07YsHR5iziyE6BU0eZpLw0=|98=0|108=30|141=Y|554=5Rb5KFBCGLQ=d07//7PUinHsgigATi6Ocw==|9407=ZdlFsitVWo4=lFc2wIDLDmpyIHRqD6lATyJnxSHdQU9FmsraK7Ow3Wc=|10=014|
20230118-17:18:58.000000000 : 8=FIX.4.2|9=101|35=A|34=1|49=COIN|52=20230118-17:18:58.378|56=8e286475-d22e-57e5-a013-c32f34b696ef|98=0|108=30|141=Y|10=173|
20230118-17:19:28.000000000 : 8=FIX.4.2|9=83|35=0|34=2|49=8e286475-d22e-57e5-a013-c32f34b696ef|52=20230118-17:19:28.000|56=COIN|10=028|
20230118-17:19:28.000000000 : 8=FIX.4.2|9=83|35=0|34=2|49=COIN|52=20230118-17:19:28.379|56=8e286475-d22e-57e5-a013-c32f34b696ef|10=047|
20230118-17:19:58.000000000 : 8=FIX.4.2|9=83|35=0|34=3|49=COIN|52=20230118-17:19:58.379|56=8e286475-d22e-57e5-a013-c32f34b696ef|10=051|
20230118-17:19:58.000000000 : 8=FIX.4.2|9=83|35=0|34=3|49=8e286475-d22e-57e5-a013-c32f34b696ef|52=20230118-17:19:58.000|56=COIN|10=032|
20230118-17:20:28.000000000 : 8=FIX.4.2|9=83|35=0|34=4|49=8e286475-d22e-57e5-a013-c32f34b696ef|52=20230118-17:20:28.000|56=COIN|10=022|
20230118-17:20:28.000000000 : 8=FIX.4.2|9=83|35=0|34=4|49=COIN|52=20230118-17:20:28.379|56=8e286475-d22e-57e5-a013-c32f34b696ef|10=041|
20230118-17:20:58.000000000 : 8=FIX.4.2|9=83|35=0|34=5|49=8e286475-d22e-57e5-a013-c32f34b696ef|52=20230118-17:20:58.000|56=COIN|10=026|
20230118-17:20:58.000000000 : 8=FIX.4.2|9=83|35=0|34=5|49=COIN|52=20230118-17:20:58.379|56=8e286475-d22e-57e5-a013-c32f34b696ef|10=045|
20230118-17:21:28.000000000 : 8=FIX.4.2|9=83|35=0|34=6|49=COIN|52=20230118-17:21:28.380|56=8e286475-d22e-57e5-a013-c32f34b696ef|10=036|
20230118-17:21:28.000000000 : 8=FIX.4.2|9=83|35=0|34=6|49=8e286475-d22e-57e5-a013-c32f34b696ef|52=20230118-17:21:28.000|56=COIN|10=025|
20230118-17:21:58.000000000 : 8=FIX.4.2|9=83|35=0|34=7|49=8e286475-d22e-57e5-a013-c32f34b696ef|52=20230118-17:21:58.000|56=COIN|10=029|
20230118-17:21:58.000000000 : 8=FIX.4.2|9=83|35=0|34=7|49=COIN|52=20230118-17:21:58.381|56=8e286475-d22e-57e5-a013-c32f34b696ef|10=041|
20230118-17:22:28.000000000 : 8=FIX.4.2|9=83|35=0|34=8|49=COIN|52=20230118-17:22:28.381|56=8e286475-d22e-57e5-a013-c32f34b696ef|10=040|
20230118-17:22:28.000000000 : 8=FIX.4.2|9=83|35=0|34=8|49=8e286475-d22e-57e5-a013-c32f34b696ef|52=20230118-17:22:28.000|56=COIN|10=028|
20230118-17:22:58.000000000 : 8=FIX.4.2|9=83|35=0|34=9|49=COIN|52=20230118-17:22:58.382|56=8e286475-d22e-57e5-a013-c32f34b696ef|10=045|
20230118-17:22:58.000000000 : 8=FIX.4.2|9=83|35=0|34=9|49=8e286475-d22e-57e5-a013-c32f34b696ef|52=20230118-17:22:58.000|56=COIN|10=032|
20230118-17:23:28.000000000 : 8=FIX.4.2|9=84|35=0|34=10|49=8e286475-d22e-57e5-a013-c32f34b696ef|52=20230118-17:23:28.000|56=COIN|10=071|
20230118-17:23:28.000000000 : 8=FIX.4.2|9=84|35=0|34=10|49=COIN|52=20230118-17:23:28.382|56=8e286475-d22e-57e5-a013-c32f34b696ef|10=084|
20230118-17:23:58.000000000 : 8=FIX.4.2|9=84|35=0|34=11|49=8e286475-d22e-57e5-a013-c32f34b696ef|52=20230118-17:23:58.000|56=COIN|10=075|
20230118-17:23:58.000000000 : 8=FIX.4.2|9=84|35=0|34=11|49=COIN|52=20230118-17:23:58.383|56=8e286475-d22e-57e5-a013-c32f34b696ef|10=089|
20230118-17:24:28.000000000 : 8=FIX.4.2|9=84|35=0|34=12|49=COIN|52=20230118-17:24:28.384|56=8e286475-d22e-57e5-a013-c32f34b696ef|10=089|
20230118-17:24:28.000000000 : 8=FIX.4.2|9=84|35=0|34=12|49=8e286475-d22e-57e5-a013-c32f34b696ef|52=20230118-17:24:28.000|56=COIN|10=074|
20230118-17:38:56.000000000 : 8=FIX.4.2|9=252|35=A|34=1|49=8e286475-d22e-57e5-a013-c32f34b696ef|52=20230118-17:38:56.000|56=COIN|96=+hpRacyrKLavYwMfY52M8NjBJAeK0CexedsCYCNKwJY=|98=0|108=30|141=Y|554=5Rb5KFBCGLQ=d07//7PUinHsgigATi6Ocw==|9407=ZdlFsitVWo4=lFc2wIDLDmpyIHRqD6lATyJnxSHdQU9FmsraK7Ow3Wc=|10=064|
20230118-17:38:56.000000000 : 8=FIX.4.2|9=101|35=A|34=1|49=COIN|52=20230118-17:38:56.823|56=8e286475-d22e-57e5-a013-c32f34b696ef|98=0|108=30|141=Y|10=168|
20230118-17:39:26.000000000 : 8=FIX.4.2|9=83|35=0|34=2|49=8e286475-d22e-57e5-a013-c32f34b696ef|52=20230118-17:39:26.000|56=COIN|10=028|
20230118-17:39:26.000000000 : 8=FIX.4.2|9=83|35=0|34=2|49=COIN|52=20230118-17:39:26.824|56=8e286475-d22e-57e5-a013-c32f34b696ef|10=042|
20230118-17:39:56.000000000 : 8=FIX.4.2|9=83|35=0|34=3|49=8e286475-d22e-57e5-a013-c32f34b696ef|52=20230118-17:39:56.000|56=COIN|10=032|
20230118-17:39:56.000000000 : 8=FIX.4.2|9=83|35=0|34=3|49=COIN|52=20230118-17:39:56.824|56=8e286475-d22e-57e5-a013-c32f34b696ef|10=046|
20230118-17:40:26.000000000 : 8=FIX.4.2|9=83|35=0|34=4|49=8e286475-d22e-57e5-a013-c32f34b696ef|52=20230118-17:40:26.000|56=COIN|10=022|
20230118-17:40:26.000000000 : 8=FIX.4.2|9=83|35=0|34=4|49=COIN|52=20230118-17:40:26.825|56=8e286475-d22e-57e5-a013-c32f34b696ef|10=037|
20230118-17:40:56.000000000 : 8=FIX.4.2|9=83|35=0|34=5|49=8e286475-d22e-57e5-a013-c32f34b696ef|52=20230118-17:40:56.000|56=COIN|10=026|
20230118-17:40:56.000000000 : 8=FIX.4.2|9=83|35=0|34=5|49=COIN|52=20230118-17:40:56.825|56=8e286475-d22e-57e5-a013-c32f34b696ef|10=041|
20230118-17:41:26.000000000 : 8=FIX.4.2|9=83|35=0|34=6|49=8e286475-d22e-57e5-a013-c32f34b696ef|52=20230118-17:41:26.000|56=COIN|10=025|
20230118-17:41:26.000000000 : 8=FIX.4.2|9=83|35=0|34=6|49=COIN|52=20230118-17:41:26.825|56=8e286475-d22e-57e5-a013-c32f34b696ef|10=040|
20230118-17:41:56.000000000 : 8=FIX.4.2|9=83|35=0|34=7|49=8e286475-d22e-57e5-a013-c32f34b696ef|52=20230118-17:41:56.000|56=COIN|10=029|
20230118-17:41:56.000000000 : 8=FIX.4.2|9=83|35=0|34=7|49=COIN|52=20230118-17:41:56.826|56=8e286475-d22e-57e5-a013-c32f34b696ef|10=045|
20230118-17:42:26.000000000 : 8=FIX.4.2|9=83|35=0|34=8|49=8e286475-d22e-57e5-a013-c32f34b696ef|52=20230118-17:42:26.000|56=COIN|10=028|
20230118-17:42:26.000000000 : 8=FIX.4.2|9=83|35=0|34=8|49=COIN|52=20230118-17:42:26.826|56=8e286475-d22e-57e5-a013-c32f34b696ef|10=044|
20230118-17:42:56.000000000 : 8=FIX.4.2|9=83|35=0|34=9|49=8e286475-d22e-57e5-a013-c32f34b696ef|52=20230118-17:42:56.000|56=COIN|10=032|
20230118-17:42:56.000000000 : 8=FIX.4.2|9=83|35=0|34=9|49=COIN|52=20230118-17:42:56.827|56=8e286475-d22e-57e5-a013-c32f34b696ef|10=049|
20230118-17:43:26.000000000 : 8=FIX.4.2|9=84|35=0|34=10|49=8e286475-d22e-57e5-a013-c32f34b696ef|52=20230118-17:43:26.000|56=COIN|10=071|
20230118-17:43:26.000000000 : 8=FIX.4.2|9=84|35=0|34=10|49=COIN|52=20230118-17:43:26.827|56=8e286475-d22e-57e5-a013-c32f34b696ef|10=088|
20230118-17:43:56.000000000 : 8=FIX.4.2|9=84|35=0|34=11|49=8e286475-d22e-57e5-a013-c32f34b696ef|52=20230118-17:43:56.000|56=COIN|10=075|
20230118-17:43:56.000000000 : 8=FIX.4.2|9=84|35=0|34=11|49=COIN|52=20230118-17:43:56.828|56=8e286475-d22e-57e5-a013-c32f34b696ef|10=093|
20230118-17:44:26.000000000 : 8=FIX.4.2|9=84|35=0|34=12|49=8e286475-d22e-57e5-a013-c32f34b696ef|52=20230118-17:44:26.000|56=COIN|10=074|
20230118-17:44:26.000000000 : 8=FIX.4.2|9=84|35=0|34=12|49=COIN|52=20230118-17:44:26.829|56=8e286475-d22e-57e5-a013-c32f34b696ef|10=093|
20230118-17:44:56.000000000 : 8=FIX.4.2|9=84|35=0|34=13|49=8e286475-d22e-57e5-a013-c32f34b696ef|52=20230118-17:44:56.000|56=COIN|10=078|
20230118-17:44:56.000000000 : 8=FIX.4.2|9=84|35=0|34=13|49=COIN|52=20230118-17:44:56.829|56=8e286475-d22e-57e5-a013-c32f34b696ef|10=097|
20230118-17:45:26.000000000 : 8=FIX.4.2|9=84|35=0|34=14|49=8e286475-d22e-57e5-a013-c32f34b696ef|52=20230118-17:45:26.000|56=COIN|10=077|
20230118-17:45:26.000000000 : 8=FIX.4.2|9=84|35=0|34=14|49=COIN|52=20230118-17:45:26.830|56=8e286475-d22e-57e5-a013-c32f34b696ef|10=088|
20230118-17:45:56.000000000 : 8=FIX.4.2|9=84|35=0|34=15|49=8e286475-d22e-57e5-a013-c32f34b696ef|52=20230118-17:45:56.000|56=COIN|10=081|
20230118-17:45:56.000000000 : 8=FIX.4.2|9=84|35=0|34=15|49=COIN|52=20230118-17:45:56.832|56=8e286475-d22e-57e5-a013-c32f34b696ef|10=094|
20230118-17:46:26.000000000 : 8=FIX.4.2|9=84|35=0|34=16|49=8e286475-d22e-57e5-a013-c32f34b696ef|52=20230118-17:46:26.000|56=COIN|10=080|
20230118-17:46:26.000000000 : 8=FIX.4.2|9=84|35=0|34=16|49=COIN|52=20230118-17:46:26.833|56=8e286475-d22e-57e5-a013-c32f34b696ef|10=094|
20230118-17:46:56.000000000 : 8=FIX.4.2|9=84|35=0|34=17|49=8e286475-d22e-57e5-a013-c32f34b696ef|52=20230118-17:46:56.000|56=COIN|10=084|
20230118-17:46:56.000000000 : 8=FIX.4.2|9=84|35=0|34=17|49=COIN|52=20230118-17:46:56.833|56=8e286475-d22e-57e5-a013-c32f34b696ef|10=098|
20230118-17:47:26.000000000 : 8=FIX.4.2|9=84|35=0|34=18|49=8e286475-d22e-57e5-a013-c32f34b696ef|52=20230118-17:47:26.000|56=COIN|10=083|
20230118-17:47:26.000000000 : 8=FIX.4.2|9=84|35=0|34=18|49=COIN|52=20230118-17:47:26.834|56=8e286475-d22e-57e5-a013-c32f34b696ef|10=098|
20230118-17:47:56.000000000 : 8=FIX.4.2|9=84|35=0|34=19|49=8e286475-d22e-57e5-a013-c32f34b696ef|52=20230118-17:47:56.000|56=COIN|10=087|
20230118-17:47:56.000000000 : 8=FIX.4.2|9=84|35=0|34=19|49=COIN|52=20230118-17:47:56.835|56=8e286475-d22e-57e5-a013-c32f34b696ef|10=103|
20230118-17:48:26.000000000 : 8=FIX.4.2|9=84|35=0|34=20|49=8e286475-d22e-57e5-a013-c32f34b696ef|52=20230118-17:48:26.000|56=COIN|10=077|
20230118-17:48:26.000000000 : 8=FIX.4.2|9=84|35=0|34=20|49=COIN|52=20230118-17:48:26.835|56=8e286475-d22e-57e5-a013-c32f34b696ef|10=093|
20230118-17:48:56.000000000 : 8=FIX.4.2|9=84|35=0|34=21|49=8e286475-d22e-57e5-a013-c32f34b696ef|52=20230118-17:48:56.000|56=COIN|10=081|
20230118-17:48:56.000000000 : 8=FIX.4.2|9=84|35=0|34=21|49=COIN|52=20230118-17:48:56.836|56=8e286475-d22e-57e5-a013-c32f34b696ef|10=098|
20230118-17:49:26.000000000 : 8=FIX.4.2|9=84|35=0|34=22|49=8e286475-d22e-57e5-a013-c32f34b696ef|52=20230118-17:49:26.000|56=COIN|10=080|
20230118-17:49:26.000000000 : 8=FIX.4.2|9=84|35=0|34=22|49=COIN|52=20230118-17:49:26.836|56=8e286475-d22e-57e5-a013-c32f34b696ef|10=097|
20230118-17:49:56.000000000 : 8=FIX.4.2|9=84|35=0|34=23|49=8e286475-d22e-57e5-a013-c32f34b696ef|52=20230118-17:49:56.000|56=COIN|10=084|
20230118-17:49:56.000000000 : 8=FIX.4.2|9=84|35=0|34=23|49=COIN|52=20230118-17:49:56.836|56=8e286475-d22e-57e5-a013-c32f34b696ef|10=101|
20230118-17:51:51.000000000 : 8=FIX.4.2|9=252|35=A|34=1|49=8e286475-d22e-57e5-a013-c32f34b696ef|52=20230118-17:51:51.000|56=COIN|96=eDb99ei6Pp+iUlKO+1sWQINL+GmKBopqRdjWNgmQ9rI=|98=0|108=30|141=Y|554=5Rb5KFBCGLQ=d07//7PUinHsgigATi6Ocw==|9407=ZdlFsitVWo4=lFc2wIDLDmpyIHRqD6lATyJnxSHdQU9FmsraK7Ow3Wc=|10=205|
20230118-17:51:52.000000000 : 8=FIX.4.2|9=101|35=A|34=1|49=COIN|52=20230118-17:51:52.027|56=8e286475-d22e-57e5-a013-c32f34b696ef|98=0|108=30|141=Y|10=155|
20230118-17:52:21.000000000 : 8=FIX.4.2|9=83|35=0|34=2|49=8e286475-d22e-57e5-a013-c32f34b696ef|52=20230118-17:52:21.000|56=COIN|10=018|
20230118-17:52:22.000000000 : 8=FIX.4.2|9=83|35=0|34=2|49=COIN|52=20230118-17:52:22.028|56=8e286475-d22e-57e5-a013-c32f34b696ef|10=029|
20230118-17:52:51.000000000 : 8=FIX.4.2|9=83|35=0|34=3|49=8e286475-d22e-57e5-a013-c32f34b696ef|52=20230118-17:52:51.000|56=COIN|10=022|
20230118-17:52:52.000000000 : 8=FIX.4.2|9=83|35=0|34=3|49=COIN|52=20230118-17:52:52.028|56=8e286475-d22e-57e5-a013-c32f34b696ef|10=033|
20230118-17:53:21.000000000 : 8=FIX.4.2|9=83|35=0|34=4|49=8e286475-d22e-57e5-a013-c32f34b696ef|52=20230118-17:53:21.000|56=COIN|10=021|
20230118-17:53:22.000000000 : 8=FIX.4.2|9=83|35=0|34=4|49=COIN|52=20230118-17:53:22.028|56=8e286475-d22e-57e5-a013-c32f34b696ef|10=032|
20230118-17:53:51.000000000 : 8=FIX.4.2|9=83|35=0|34=5|49=8e286475-d22e-57e5-a013-c32f34b696ef|52=20230118-17:53:51.000|56=COIN|10=025|
20230118-17:53:52.000000000 : 8=FIX.4.2|9=83|35=0|34=5|49=COIN|52=20230118-17:53:52.029|56=8e286475-d22e-57e5-a013-c32f34b696ef|10=037|
20230118-17:54:21.000000000 : 8=FIX.4.2|9=83|35=0|34=6|49=8e286475-d22e-57e5-a013-c32f34b696ef|52=20230118-17:54:21.000|56=COIN|10=024|
20230118-17:54:22.000000000 : 8=FIX.4.2|9=83|35=0|34=6|49=COIN|52=20230118-17:54:22.029|56=8e286475-d22e-57e5-a013-c32f34b696ef|10=036|
20230118-17:54:51.000000000 : 8=FIX.4.2|9=83|35=0|34=7|49=8e286475-d22e-57e5-a013-c32f34b696ef|52=20230118-17:54:51.000|56=COIN|10=028|
20230118-17:54:52.000000000 : 8=FIX.4.2|9=83|35=0|34=7|49=COIN|52=20230118-17:54:52.029|56=8e286475-d22e-57e5-a013-c32f34b696ef|10=040|
20230118-17:55:21.000000000 : 8=FIX.4.2|9=83|35=0|34=8|49=8e286475-d22e-57e5-a013-c32f34b696ef|52=20230118-17:55:21.000|56=COIN|10=027|
20230118-17:55:22.000000000 : 8=FIX.4.2|9=83|35=0|34=8|49=COIN|52=20230118-17:55:22.030|56=8e286475-d22e-57e5-a013-c32f34b696ef|10=031|
20230118-17:55:51.000000000 : 8=FIX.4.2|9=83|35=0|34=9|49=8e286475-d22e-57e5-a013-c32f34b696ef|52=20230118-17:55:51.000|56=COIN|10=031|
20230118-17:55:52.000000000 : 8=FIX.4.2|9=83|35=0|34=9|49=COIN|52=20230118-17:55:52.031|56=8e286475-d22e-57e5-a013-c32f34b696ef|10=036|
20230118-17:56:21.000000000 : 8=FIX.4.2|9=84|35=0|34=10|49=8e286475-d22e-57e5-a013-c32f34b696ef|52=20230118-17:56:21.000|56=COIN|10=070|
20230118-17:56:22.000000000 : 8=FIX.4.2|9=84|35=0|34=10|49=COIN|52=20230118-17:56:22.032|56=8e286475-d22e-57e5-a013-c32f34b696ef|10=076|
20230118-17:56:51.000000000 : 8=FIX.4.2|9=84|35=0|34=11|49=8e286475-d22e-57e5-a013-c32f34b696ef|52=20230118-17:56:51.000|56=COIN|10=074|
20230118-17:56:52.000000000 : 8=FIX.4.2|9=84|35=0|34=11|49=COIN|52=20230118-17:56:52.032|56=8e286475-d22e-57e5-a013-c32f34b696ef|10=080|
20230118-17:57:21.000000000 : 8=FIX.4.2|9=84|35=0|34=12|49=8e286475-d22e-57e5-a013-c32f34b696ef|52=20230118-17:57:21.000|56=COIN|10=073|
20230118-17:57:22.000000000 : 8=FIX.4.2|9=84|35=0|34=12|49=COIN|52=20230118-17:57:22.033|56=8e286475-d22e-57e5-a013-c32f34b696ef|10=080|
20230118-17:57:51.000000000 : 8=FIX.4.2|9=84|35=0|34=13|49=8e286475-d22e-57e5-a013-c32f34b696ef|52=20230118-17:57:51.000|56=COIN|10=077|
20230118-17:57:52.000000000 : 8=FIX.4.2|9=84|35=0|34=13|49=COIN|52=20230118-17:57:52.035|56=8e286475-d22e-57e5-a013-c32f34b696ef|10=086|
20230118-17:58:21.000000000 : 8=FIX.4.2|9=84|35=0|34=14|49=8e286475-d22e-57e5-a013-c32f34b696ef|52=20230118-17:58:21.000|56=COIN|10=076|
20230118-17:58:22.000000000 : 8=FIX.4.2|9=84|35=0|34=14|49=COIN|52=20230118-17:58:22.038|56=8e286475-d22e-57e5-a013-c32f34b696ef|10=088|
20230118-17:58:51.000000000 : 8=FIX.4.2|9=84|35=0|34=15|49=8e286475-d22e-57e5-a013-c32f34b696ef|52=20230118-17:58:51.000|56=COIN|10=080|
20230118-17:58:52.000000000 : 8=FIX.4.2|9=84|35=0|34=15|49=COIN|52=20230118-17:58:52.040|56=8e286475-d22e-57e5-a013-c32f34b696ef|10=085|
20230118-17:59:21.000000000 : 8=FIX.4.2|9=84|35=0|34=16|49=8e286475-d22e-57e5-a013-c32f34b696ef|52=20230118-17:59:21.000|56=COIN|10=079|
20230118-17:59:22.000000000 : 8=FIX.4.2|9=84|35=0|34=16|49=COIN|52=20230118-17:59:22.041|56=8e286475-d22e-57e5-a013-c32f34b696ef|10=085|
20230118-17:59:51.000000000 : 8=FIX.4.2|9=84|35=0|34=17|49=8e286475-d22e-57e5-a013-c32f34b696ef|52=20230118-17:59:51.000|56=COIN|10=083|
20230118-17:59:52.000000000 : 8=FIX.4.2|9=84|35=0|34=17|49=COIN|52=20230118-17:59:52.041|56=8e286475-d22e-57e5-a013-c32f34b696ef|10=089|
20230118-18:00:21.000000000 : 8=FIX.4.2|9=84|35=0|34=18|49=8e286475-d22e-57e5-a013-c32f34b696ef|52=20230118-18:00:21.000|56=COIN|10=068|
20230118-18:00:22.000000000 : 8=FIX.4.2|9=84|35=0|34=18|49=COIN|52=20230118-18:00:22.042|56=8e286475-d22e-57e5-a013-c32f34b696ef|10=075|
20230118-18:00:51.000000000 : 8=FIX.4.2|9=84|35=0|34=19|49=8e286475-d22e-57e5-a013-c32f34b696ef|52=20230118-18:00:51.000|56=COIN|10=072|
20230118-18:00:52.000000000 : 8=FIX.4.2|9=84|35=0|34=19|49=COIN|52=20230118-18:00:52.042|56=8e286475-d22e-57e5-a013-c32f34b696ef|10=079|
20230118-18:01:21.000000000 : 8=FIX.4.2|9=84|35=0|34=20|49=8e286475-d22e-57e5-a013-c32f34b696ef|52=20230118-18:01:21.000|56=COIN|10=062|
