2022-08-09,16:32:01.548 : onCreate : Session (FIX.4.2:b2c8f5f1-e97d-5df2-9b59-293bbead9f8a->COIN)
2022-08-09,16:32:01.854 : (Admin) S >> 8=FIX.4.2|9=252|35=A|34=1|49=b2c8f5f1-e97d-5df2-9b59-293bbead9f8a|52=20220809-20:32:01.000|56=COIN|96=Yob6WWCtWWjtrOhCMKBCWe0HD9VRAZR+/wUUTqJrv4U=|98=0|108=30|141=Y|554=5Rb5KFBCGLQ=jitm2+8w6RS2krJWh2mvdQ==|9407=ZdlFsitVWo4=CTVXU2B1cbxDVAcLRH2Hd17TaLkDgOO2euOpRRvYpns=|10=177|
2022-08-09,16:32:01.915 : (Admin) R << 8=FIX.4.2|9=101|35=A|34=1|49=COIN|52=20220809-20:32:01.994|56=b2c8f5f1-e97d-5df2-9b59-293bbead9f8a|98=0|108=30|141=Y|10=205|
2022-08-09,16:32:01.915 : ---------------Successful Logon----------------
2022-08-09,16:32:01.942 : (App) R << 8=FIX.4.2|9=428|35=8|34=2|49=COIN|52=20220809-20:32:02.019|56=b2c8f5f1-e97d-5df2-9b59-293bbead9f8a|1=85874114-c465-4df7-a1bd-e4b17b4d3ddf|6=0.0688575|11=7164abe9-cb47-4adb-ac69-de1994365297|12=0.0017214375|13=3|14=10|17=3efa6f0a-9b2d-49f2-accc-367a27fa53ea|20=0|30=ftx|31=0.0688575|32=10|37=a2f0ace7-e404-4724-abb6-b736febf5606|38=10|39=2|54=1|55=DOGE-USD|60=20220809-20:29:23.850|78=1|79=85874114-c465-4df7-a1bd-e4b17b4d3ddf|80=10|150=2|151=0|10=077|
2022-08-09,16:32:01.942 : --------------onMessage()--------------
2022-08-09,16:32:01.942 : Received Execution Report: 
2022-08-09,16:32:01.942 : Order - Filled
2022-08-09,16:32:05.230 : (App) S >> 8=FIX.4.2|9=206|35=D|34=2|49=b2c8f5f1-e97d-5df2-9b59-293bbead9f8a|52=20220809-20:32:05.000|56=COIN|1=85874114-c465-4df7-a1bd-e4b17b4d3ddf|11=76e0e4eb-ddb5-4581-8a68-6c86e1fdf34e|38=10|40=2|44=2|54=1|55=DOGE-USD|59=1|847=L|10=148|
2022-08-09,16:32:05.533 : (App) R << 8=FIX.4.2|9=383|35=8|34=3|49=COIN|52=20220809-20:32:05.614|56=b2c8f5f1-e97d-5df2-9b59-293bbead9f8a|1=85874114-c465-4df7-a1bd-e4b17b4d3ddf|6=0.0|11=76e0e4eb-ddb5-4581-8a68-6c86e1fdf34e|14=0|17=72e31d40-329b-4b26-be4b-73ace5d237d4|20=0|32=0.0|37=6a29767d-c487-4e5c-bdf7-c58bf39b9299|38=10|39=A|54=1|55=DOGE-USD|60=20220809-20:32:05.602|78=1|79=85874114-c465-4df7-a1bd-e4b17b4d3ddf|80=0.0|150=A|151=10|10=119|
2022-08-09,16:32:05.534 : --------------onMessage()--------------
2022-08-09,16:32:05.534 : Received Execution Report: 
2022-08-09,16:32:05.569 : (App) R << 8=FIX.4.2|9=383|35=8|34=4|49=COIN|52=20220809-20:32:05.649|56=b2c8f5f1-e97d-5df2-9b59-293bbead9f8a|1=85874114-c465-4df7-a1bd-e4b17b4d3ddf|6=0.0|11=76e0e4eb-ddb5-4581-8a68-6c86e1fdf34e|14=0|17=4005d7aa-1fe9-4dbd-bd25-b1b38f12c9cb|20=0|32=0.0|37=6a29767d-c487-4e5c-bdf7-c58bf39b9299|38=10|39=0|54=1|55=DOGE-USD|60=20220809-20:32:05.640|78=1|79=85874114-c465-4df7-a1bd-e4b17b4d3ddf|80=0.0|150=0|151=10|10=027|
2022-08-09,16:32:05.569 : --------------onMessage()--------------
2022-08-09,16:32:05.570 : Received Execution Report: 
2022-08-09,16:32:05.570 : New Order - Order Not Filled
2022-08-09,16:32:05.780 : (App) R << 8=FIX.4.2|9=425|35=8|34=5|49=COIN|52=20220809-20:32:05.859|56=b2c8f5f1-e97d-5df2-9b59-293bbead9f8a|1=85874114-c465-4df7-a1bd-e4b17b4d3ddf|6=0.068919|11=76e0e4eb-ddb5-4581-8a68-6c86e1fdf34e|12=0.001722975|13=3|14=10|17=f741f04e-97b3-464e-b24c-fb14aa61a5f5|20=0|30=ftx|31=0.068919|32=10|37=6a29767d-c487-4e5c-bdf7-c58bf39b9299|38=10|39=2|54=1|55=DOGE-USD|60=20220809-20:32:05.834|78=1|79=85874114-c465-4df7-a1bd-e4b17b4d3ddf|80=10|150=2|151=0|10=048|
2022-08-09,16:32:05.780 : --------------onMessage()--------------
2022-08-09,16:32:05.780 : Received Execution Report: 
2022-08-09,16:32:05.780 : Order - Filled
2022-08-09,16:32:07.237 : (App) S >> 8=FIX.4.2|9=175|35=H|34=3|49=b2c8f5f1-e97d-5df2-9b59-293bbead9f8a|52=20220809-20:32:07.000|56=COIN|11=76e0e4eb-ddb5-4581-8a68-6c86e1fdf34e|37=6a29767d-c487-4e5c-bdf7-c58bf39b9299|55=DOGE-USD|10=053|
2022-08-09,16:32:07.288 : (App) R << 8=FIX.4.2|9=363|35=8|34=6|49=COIN|52=20220809-20:32:07.368|56=b2c8f5f1-e97d-5df2-9b59-293bbead9f8a|1=85874114-c465-4df7-a1bd-e4b17b4d3ddf|6=0.068919|11=76e0e4eb-ddb5-4581-8a68-6c86e1fdf34e|14=10|17=e3ed33f4-558c-4793-881b-93d4f22366ff|20=3|32=0.0|37=6a29767d-c487-4e5c-bdf7-c58bf39b9299|38=10|39=2|54=1|55=DOGE-USD|78=1|79=85874114-c465-4df7-a1bd-e4b17b4d3ddf|80=0.0|150=I|151=0|10=131|
2022-08-09,16:32:07.288 : --------------onMessage()--------------
2022-08-09,16:32:07.288 : Received Execution Report: 
2022-08-09,16:32:07.288 : Order Status for 6a29767d-c487-4e5c-bdf7-c58bf39b9299 : 8=FIX.4.2|9=363|35=8|34=6|49=COIN|52=20220809-20:32:07.368|56=b2c8f5f1-e97d-5df2-9b59-293bbead9f8a|1=85874114-c465-4df7-a1bd-e4b17b4d3ddf|6=0.068919|11=76e0e4eb-ddb5-4581-8a68-6c86e1fdf34e|14=10|17=e3ed33f4-558c-4793-881b-93d4f22366ff|20=3|32=0.0|37=6a29767d-c487-4e5c-bdf7-c58bf39b9299|38=10|39=2|54=1|55=DOGE-USD|78=1|79=85874114-c465-4df7-a1bd-e4b17b4d3ddf|80=0.0|150=I|151=0|10=131|
2022-08-09,16:32:37.291 : (Admin) R << 8=FIX.4.2|9=83|35=0|34=7|49=COIN|52=20220809-20:32:37.369|56=b2c8f5f1-e97d-5df2-9b59-293bbead9f8a|10=090|
2022-08-09,16:33:07.290 : (Admin) R << 8=FIX.4.2|9=83|35=0|34=8|49=COIN|52=20220809-20:33:07.369|56=b2c8f5f1-e97d-5df2-9b59-293bbead9f8a|10=089|
2022-08-09,16:33:37.292 : (Admin) R << 8=FIX.4.2|9=83|35=0|34=9|49=COIN|52=20220809-20:33:37.370|56=b2c8f5f1-e97d-5df2-9b59-293bbead9f8a|10=085|
2022-08-09,16:34:07.293 : (Admin) R << 8=FIX.4.2|9=84|35=0|34=10|49=COIN|52=20220809-20:34:07.370|56=b2c8f5f1-e97d-5df2-9b59-293bbead9f8a|10=124|
2022-08-09,16:34:37.297 : (Admin) R << 8=FIX.4.2|9=84|35=0|34=11|49=COIN|52=20220809-20:34:37.371|56=b2c8f5f1-e97d-5df2-9b59-293bbead9f8a|10=129|
2022-08-09,16:35:07.297 : (Admin) R << 8=FIX.4.2|9=84|35=0|34=12|49=COIN|52=20220809-20:35:07.371|56=b2c8f5f1-e97d-5df2-9b59-293bbead9f8a|10=128|
2022-08-09,16:35:37.298 : (Admin) R << 8=FIX.4.2|9=84|35=0|34=13|49=COIN|52=20220809-20:35:37.372|56=b2c8f5f1-e97d-5df2-9b59-293bbead9f8a|10=133|
2022-08-09,16:36:07.299 : (Admin) R << 8=FIX.4.2|9=84|35=0|34=14|49=COIN|52=20220809-20:36:07.372|56=b2c8f5f1-e97d-5df2-9b59-293bbead9f8a|10=132|
2022-08-09,16:36:37.300 : (Admin) R << 8=FIX.4.2|9=84|35=0|34=15|49=COIN|52=20220809-20:36:37.373|56=b2c8f5f1-e97d-5df2-9b59-293bbead9f8a|10=137|
2022-08-09,16:37:07.304 : (Admin) R << 8=FIX.4.2|9=84|35=0|34=16|49=COIN|52=20220809-20:37:07.374|56=b2c8f5f1-e97d-5df2-9b59-293bbead9f8a|10=137|
2022-08-09,16:37:37.304 : (Admin) R << 8=FIX.4.2|9=84|35=0|34=17|49=COIN|52=20220809-20:37:37.375|56=b2c8f5f1-e97d-5df2-9b59-293bbead9f8a|10=142|
2022-08-09,16:38:07.306 : (Admin) R << 8=FIX.4.2|9=84|35=0|34=18|49=COIN|52=20220809-20:38:07.376|56=b2c8f5f1-e97d-5df2-9b59-293bbead9f8a|10=142|
2022-08-09,16:38:37.312 : (Admin) R << 8=FIX.4.2|9=84|35=0|34=19|49=COIN|52=20220809-20:38:37.377|56=b2c8f5f1-e97d-5df2-9b59-293bbead9f8a|10=147|
2022-08-09,16:39:07.318 : (Admin) R << 8=FIX.4.2|9=84|35=0|34=20|49=COIN|52=20220809-20:39:07.378|56=b2c8f5f1-e97d-5df2-9b59-293bbead9f8a|10=138|
2022-08-09,16:39:37.312 : (Admin) R << 8=FIX.4.2|9=84|35=0|34=21|49=COIN|52=20220809-20:39:37.379|56=b2c8f5f1-e97d-5df2-9b59-293bbead9f8a|10=143|
2022-08-09,16:40:07.311 : (Admin) R << 8=FIX.4.2|9=84|35=0|34=22|49=COIN|52=20220809-20:40:07.379|56=b2c8f5f1-e97d-5df2-9b59-293bbead9f8a|10=133|
2022-08-09,16:40:37.312 : (Admin) R << 8=FIX.4.2|9=84|35=0|34=23|49=COIN|52=20220809-20:40:37.380|56=b2c8f5f1-e97d-5df2-9b59-293bbead9f8a|10=129|
2022-08-09,16:41:07.292 : (Admin) R << 8=FIX.4.2|9=84|35=0|34=24|49=COIN|52=20220809-20:41:07.380|56=b2c8f5f1-e97d-5df2-9b59-293bbead9f8a|10=128|
2022-08-09,16:41:37.273 : (Admin) R << 8=FIX.4.2|9=84|35=0|34=25|49=COIN|52=20220809-20:41:37.381|56=b2c8f5f1-e97d-5df2-9b59-293bbead9f8a|10=133|
2022-08-09,16:42:07.273 : (Admin) R << 8=FIX.4.2|9=84|35=0|34=26|49=COIN|52=20220809-20:42:07.381|56=b2c8f5f1-e97d-5df2-9b59-293bbead9f8a|10=132|
2022-08-09,16:42:37.273 : (Admin) R << 8=FIX.4.2|9=84|35=0|34=27|49=COIN|52=20220809-20:42:37.382|56=b2c8f5f1-e97d-5df2-9b59-293bbead9f8a|10=137|
2022-08-09,16:43:07.273 : (Admin) R << 8=FIX.4.2|9=84|35=0|34=28|49=COIN|52=20220809-20:43:07.384|56=b2c8f5f1-e97d-5df2-9b59-293bbead9f8a|10=138|
2022-08-09,16:43:37.275 : (Admin) R << 8=FIX.4.2|9=84|35=0|34=29|49=COIN|52=20220809-20:43:37.385|56=b2c8f5f1-e97d-5df2-9b59-293bbead9f8a|10=143|
2022-08-09,16:44:07.276 : (Admin) R << 8=FIX.4.2|9=84|35=0|34=30|49=COIN|52=20220809-20:44:07.386|56=b2c8f5f1-e97d-5df2-9b59-293bbead9f8a|10=134|
2022-08-09,16:44:37.279 : (Admin) R << 8=FIX.4.2|9=84|35=0|34=31|49=COIN|52=20220809-20:44:37.386|56=b2c8f5f1-e97d-5df2-9b59-293bbead9f8a|10=138|
2022-08-09,16:45:07.280 : (Admin) R << 8=FIX.4.2|9=84|35=0|34=32|49=COIN|52=20220809-20:45:07.387|56=b2c8f5f1-e97d-5df2-9b59-293bbead9f8a|10=138|
2022-08-09,16:45:37.282 : (Admin) R << 8=FIX.4.2|9=84|35=0|34=33|49=COIN|52=20220809-20:45:37.388|56=b2c8f5f1-e97d-5df2-9b59-293bbead9f8a|10=143|
2022-08-09,16:46:07.283 : (Admin) R << 8=FIX.4.2|9=84|35=0|34=34|49=COIN|52=20220809-20:46:07.388|56=b2c8f5f1-e97d-5df2-9b59-293bbead9f8a|10=142|
2022-08-09,16:46:37.286 : (Admin) R << 8=FIX.4.2|9=84|35=0|34=35|49=COIN|52=20220809-20:46:37.389|56=b2c8f5f1-e97d-5df2-9b59-293bbead9f8a|10=147|
2022-08-09,16:47:07.289 : (Admin) R << 8=FIX.4.2|9=84|35=0|34=36|49=COIN|52=20220809-20:47:07.390|56=b2c8f5f1-e97d-5df2-9b59-293bbead9f8a|10=138|
2022-08-09,16:47:37.287 : (Admin) R << 8=FIX.4.2|9=84|35=0|34=37|49=COIN|52=20220809-20:47:37.391|56=b2c8f5f1-e97d-5df2-9b59-293bbead9f8a|10=143|
2022-08-09,16:48:07.342 : (Admin) R << 8=FIX.4.2|9=84|35=0|34=38|49=COIN|52=20220809-20:48:07.392|56=b2c8f5f1-e97d-5df2-9b59-293bbead9f8a|10=143|
2022-08-09,16:48:37.291 : (Admin) R << 8=FIX.4.2|9=84|35=0|34=39|49=COIN|52=20220809-20:48:37.392|56=b2c8f5f1-e97d-5df2-9b59-293bbead9f8a|10=147|
2022-08-09,16:49:07.291 : (Admin) R << 8=FIX.4.2|9=84|35=0|34=40|49=COIN|52=20220809-20:49:07.393|56=b2c8f5f1-e97d-5df2-9b59-293bbead9f8a|10=138|
2022-08-09,16:49:37.356 : (Admin) R << 8=FIX.4.2|9=84|35=0|34=41|49=COIN|52=20220809-20:49:37.393|56=b2c8f5f1-e97d-5df2-9b59-293bbead9f8a|10=142|
2022-08-09,16:50:07.295 : (Admin) R << 8=FIX.4.2|9=84|35=0|34=42|49=COIN|52=20220809-20:50:07.394|56=b2c8f5f1-e97d-5df2-9b59-293bbead9f8a|10=133|
2022-08-09,16:50:37.296 : (Admin) R << 8=FIX.4.2|9=84|35=0|34=43|49=COIN|52=20220809-20:50:37.395|56=b2c8f5f1-e97d-5df2-9b59-293bbead9f8a|10=138|
2022-08-09,16:51:07.367 : (Admin) R << 8=FIX.4.2|9=84|35=0|34=44|49=COIN|52=20220809-20:51:07.395|56=b2c8f5f1-e97d-5df2-9b59-293bbead9f8a|10=137|
2022-08-09,16:51:37.373 : (Admin) R << 8=FIX.4.2|9=84|35=0|34=45|49=COIN|52=20220809-20:51:37.396|56=b2c8f5f1-e97d-5df2-9b59-293bbead9f8a|10=142|
2022-08-09,16:52:07.301 : (Admin) R << 8=FIX.4.2|9=84|35=0|34=46|49=COIN|52=20220809-20:52:07.397|56=b2c8f5f1-e97d-5df2-9b59-293bbead9f8a|10=142|
2022-08-09,16:52:37.303 : (Admin) R << 8=FIX.4.2|9=84|35=0|34=47|49=COIN|52=20220809-20:52:37.398|56=b2c8f5f1-e97d-5df2-9b59-293bbead9f8a|10=147|
2022-08-09,16:53:07.302 : (Admin) R << 8=FIX.4.2|9=84|35=0|34=48|49=COIN|52=20220809-20:53:07.398|56=b2c8f5f1-e97d-5df2-9b59-293bbead9f8a|10=146|
2022-08-09,16:53:37.389 : (Admin) R << 8=FIX.4.2|9=84|35=0|34=49|49=COIN|52=20220809-20:53:37.399|56=b2c8f5f1-e97d-5df2-9b59-293bbead9f8a|10=151|
2022-08-09,16:54:07.306 : (Admin) R << 8=FIX.4.2|9=84|35=0|34=50|49=COIN|52=20220809-20:54:07.399|56=b2c8f5f1-e97d-5df2-9b59-293bbead9f8a|10=141|
2022-08-09,16:54:37.308 : (Admin) R << 8=FIX.4.2|9=84|35=0|34=51|49=COIN|52=20220809-20:54:37.399|56=b2c8f5f1-e97d-5df2-9b59-293bbead9f8a|10=145|
2022-08-09,16:55:07.310 : (Admin) R << 8=FIX.4.2|9=84|35=0|34=52|49=COIN|52=20220809-20:55:07.401|56=b2c8f5f1-e97d-5df2-9b59-293bbead9f8a|10=128|
2022-08-09,16:55:37.407 : (Admin) R << 8=FIX.4.2|9=84|35=0|34=53|49=COIN|52=20220809-20:55:37.402|56=b2c8f5f1-e97d-5df2-9b59-293bbead9f8a|10=133|
2022-08-09,16:56:07.314 : (Admin) R << 8=FIX.4.2|9=84|35=0|34=54|49=COIN|52=20220809-20:56:07.402|56=b2c8f5f1-e97d-5df2-9b59-293bbead9f8a|10=132|
2022-08-09,16:56:37.316 : (Admin) R << 8=FIX.4.2|9=84|35=0|34=55|49=COIN|52=20220809-20:56:37.402|56=b2c8f5f1-e97d-5df2-9b59-293bbead9f8a|10=136|
2022-08-09,16:57:07.315 : (Admin) R << 8=FIX.4.2|9=84|35=0|34=56|49=COIN|52=20220809-20:57:07.403|56=b2c8f5f1-e97d-5df2-9b59-293bbead9f8a|10=136|
2022-08-09,16:57:37.317 : (Admin) R << 8=FIX.4.2|9=84|35=0|34=57|49=COIN|52=20220809-20:57:37.404|56=b2c8f5f1-e97d-5df2-9b59-293bbead9f8a|10=141|
2022-08-09,16:58:07.322 : (Admin) R << 8=FIX.4.2|9=84|35=0|34=58|49=COIN|52=20220809-20:58:07.404|56=b2c8f5f1-e97d-5df2-9b59-293bbead9f8a|10=140|
2022-08-09,16:58:37.320 : (Admin) R << 8=FIX.4.2|9=84|35=0|34=59|49=COIN|52=20220809-20:58:37.405|56=b2c8f5f1-e97d-5df2-9b59-293bbead9f8a|10=145|
2022-08-09,16:59:07.348 : (Admin) R << 8=FIX.4.2|9=84|35=0|34=60|49=COIN|52=20220809-20:59:07.406|56=b2c8f5f1-e97d-5df2-9b59-293bbead9f8a|10=136|
2022-08-09,16:59:37.373 : (Admin) R << 8=FIX.4.2|9=84|35=0|34=61|49=COIN|52=20220809-20:59:37.407|56=b2c8f5f1-e97d-5df2-9b59-293bbead9f8a|10=141|
2022-08-09,17:00:07.359 : (Admin) R << 8=FIX.4.2|9=84|35=0|34=62|49=COIN|52=20220809-21:00:07.407|56=b2c8f5f1-e97d-5df2-9b59-293bbead9f8a|10=126|
2022-08-09,17:00:37.360 : (Admin) R << 8=FIX.4.2|9=84|35=0|34=63|49=COIN|52=20220809-21:00:37.408|56=b2c8f5f1-e97d-5df2-9b59-293bbead9f8a|10=131|
2022-08-09,17:00:49.720 : (Admin) R << 8=FIX.4.2|9=84|35=5|34=64|49=COIN|52=20220809-21:00:49.767|56=b2c8f5f1-e97d-5df2-9b59-293bbead9f8a|10=148|
2022-08-09,17:00:49.720 : Session (FIX.4.2:b2c8f5f1-e97d-5df2-9b59-293bbead9f8a->COIN) logout !
2022-08-09,17:00:49.724 : (Admin) S >> 8=FIX.4.2|9=252|35=A|34=1|49=b2c8f5f1-e97d-5df2-9b59-293bbead9f8a|52=20220809-21:00:49.000|56=COIN|96=ALBd5VygAEgfZC1IOOuuslBZy0dQGTzbdvThqtOZdMk=|98=0|108=30|141=Y|554=5Rb5KFBCGLQ=jitm2+8w6RS2krJWh2mvdQ==|9407=ZdlFsitVWo4=CTVXU2B1cbxDVAcLRH2Hd17TaLkDgOO2euOpRRvYpns=|10=190|
2022-08-09,17:00:49.726 : Session (FIX.4.2:b2c8f5f1-e97d-5df2-9b59-293bbead9f8a->COIN) logout !
2022-08-09,17:00:51.822 : (Admin) S >> 8=FIX.4.2|9=252|35=A|34=1|49=b2c8f5f1-e97d-5df2-9b59-293bbead9f8a|52=20220809-21:00:51.000|56=COIN|96=5bVo6XOMKap2Q3lMyVqJjKYyZrjfij7Tox/K0RQ1fN8=|98=0|108=30|141=Y|554=5Rb5KFBCGLQ=jitm2+8w6RS2krJWh2mvdQ==|9407=ZdlFsitVWo4=CTVXU2B1cbxDVAcLRH2Hd17TaLkDgOO2euOpRRvYpns=|10=004|
2022-08-09,17:01:01.032 : Session (FIX.4.2:b2c8f5f1-e97d-5df2-9b59-293bbead9f8a->COIN) logout !
2022-08-09,17:01:01.043 : (Admin) S >> 8=FIX.4.2|9=252|35=A|34=1|49=b2c8f5f1-e97d-5df2-9b59-293bbead9f8a|52=20220809-21:01:01.000|56=COIN|96=B7nFgwd/KEOQzXJV/FkTmX8hKp/2iqhdEZ83kTPzT44=|98=0|108=30|141=Y|554=5Rb5KFBCGLQ=jitm2+8w6RS2krJWh2mvdQ==|9407=ZdlFsitVWo4=CTVXU2B1cbxDVAcLRH2Hd17TaLkDgOO2euOpRRvYpns=|10=125|
2022-08-09,17:01:01.047 : Session (FIX.4.2:b2c8f5f1-e97d-5df2-9b59-293bbead9f8a->COIN) logout !
2022-08-09,17:01:11.168 : (Admin) S >> 8=FIX.4.2|9=252|35=A|34=1|49=b2c8f5f1-e97d-5df2-9b59-293bbead9f8a|52=20220809-21:01:11.000|56=COIN|96=uVLurVMJDpZMvYaXPvK226hBHQNhgryqROFFQvUVnkg=|98=0|108=30|141=Y|554=5Rb5KFBCGLQ=jitm2+8w6RS2krJWh2mvdQ==|9407=ZdlFsitVWo4=CTVXU2B1cbxDVAcLRH2Hd17TaLkDgOO2euOpRRvYpns=|10=168|
2022-08-09,17:01:21.583 : Session (FIX.4.2:b2c8f5f1-e97d-5df2-9b59-293bbead9f8a->COIN) logout !
2022-08-09,17:01:21.593 : (Admin) S >> 8=FIX.4.2|9=252|35=A|34=1|49=b2c8f5f1-e97d-5df2-9b59-293bbead9f8a|52=20220809-21:01:21.000|56=COIN|96=VxMstONfS99188IBsyppgP/eW09ZcXgKMFhgQ+y/Qe8=|98=0|108=30|141=Y|554=5Rb5KFBCGLQ=jitm2+8w6RS2krJWh2mvdQ==|9407=ZdlFsitVWo4=CTVXU2B1cbxDVAcLRH2Hd17TaLkDgOO2euOpRRvYpns=|10=157|
2022-08-09,17:01:21.598 : Session (FIX.4.2:b2c8f5f1-e97d-5df2-9b59-293bbead9f8a->COIN) logout !
2022-08-09,17:01:31.761 : (Admin) S >> 8=FIX.4.2|9=252|35=A|34=1|49=b2c8f5f1-e97d-5df2-9b59-293bbead9f8a|52=20220809-21:01:31.000|56=COIN|96=t8wzCJwQgAA/eSvDEQohEnLTZvLO553nqvOfClBjigo=|98=0|108=30|141=Y|554=5Rb5KFBCGLQ=jitm2+8w6RS2krJWh2mvdQ==|9407=ZdlFsitVWo4=CTVXU2B1cbxDVAcLRH2Hd17TaLkDgOO2euOpRRvYpns=|10=126|
2022-08-09,17:01:41.506 : Session (FIX.4.2:b2c8f5f1-e97d-5df2-9b59-293bbead9f8a->COIN) logout !
2022-08-09,17:01:41.511 : (Admin) S >> 8=FIX.4.2|9=252|35=A|34=1|49=b2c8f5f1-e97d-5df2-9b59-293bbead9f8a|52=20220809-21:01:41.000|56=COIN|96=J7YdG5Db61Tf8y/dNAavahj5OYh/hARp47gQLUSdq9g=|98=0|108=30|141=Y|554=5Rb5KFBCGLQ=jitm2+8w6RS2krJWh2mvdQ==|9407=ZdlFsitVWo4=CTVXU2B1cbxDVAcLRH2Hd17TaLkDgOO2euOpRRvYpns=|10=096|
2022-08-09,17:01:41.513 : Session (FIX.4.2:b2c8f5f1-e97d-5df2-9b59-293bbead9f8a->COIN) logout !
2022-08-09,17:01:51.468 : (Admin) S >> 8=FIX.4.2|9=252|35=A|34=1|49=b2c8f5f1-e97d-5df2-9b59-293bbead9f8a|52=20220809-21:01:51.000|56=COIN|96=O0o8gMIwNreB5yOaQCH/6OqtE4kvZVFJ46aNjCWMdaw=|98=0|108=30|141=Y|554=5Rb5KFBCGLQ=jitm2+8w6RS2krJWh2mvdQ==|9407=ZdlFsitVWo4=CTVXU2B1cbxDVAcLRH2Hd17TaLkDgOO2euOpRRvYpns=|10=172|
2022-08-09,17:02:01.327 : Session (FIX.4.2:b2c8f5f1-e97d-5df2-9b59-293bbead9f8a->COIN) logout !
2022-08-09,17:02:01.337 : (Admin) S >> 8=FIX.4.2|9=252|35=A|34=1|49=b2c8f5f1-e97d-5df2-9b59-293bbead9f8a|52=20220809-21:02:01.000|56=COIN|96=Lw2IsitAcUl+cngM3HiTlUiy5bkt9/F9Yh00daB0FGY=|98=0|108=30|141=Y|554=5Rb5KFBCGLQ=jitm2+8w6RS2krJWh2mvdQ==|9407=ZdlFsitVWo4=CTVXU2B1cbxDVAcLRH2Hd17TaLkDgOO2euOpRRvYpns=|10=173|
2022-08-09,17:02:01.341 : Session (FIX.4.2:b2c8f5f1-e97d-5df2-9b59-293bbead9f8a->COIN) logout !
2022-08-09,17:02:11.499 : (Admin) S >> 8=FIX.4.2|9=252|35=A|34=1|49=b2c8f5f1-e97d-5df2-9b59-293bbead9f8a|52=20220809-21:02:11.000|56=COIN|96=JQ83Rq9/MUKnDlRenjw0YC83S6k/RCfNJnJsjwRMM8U=|98=0|108=30|141=Y|554=5Rb5KFBCGLQ=jitm2+8w6RS2krJWh2mvdQ==|9407=ZdlFsitVWo4=CTVXU2B1cbxDVAcLRH2Hd17TaLkDgOO2euOpRRvYpns=|10=073|
2022-08-09,17:02:21.009 : Session (FIX.4.2:b2c8f5f1-e97d-5df2-9b59-293bbead9f8a->COIN) logout !
2022-08-09,17:02:21.019 : (Admin) S >> 8=FIX.4.2|9=252|35=A|34=1|49=b2c8f5f1-e97d-5df2-9b59-293bbead9f8a|52=20220809-21:02:21.000|56=COIN|96=TYLkeF5U8kE8/fdF6haVErZDEogvG21RYGtF2T97PmQ=|98=0|108=30|141=Y|554=5Rb5KFBCGLQ=jitm2+8w6RS2krJWh2mvdQ==|9407=ZdlFsitVWo4=CTVXU2B1cbxDVAcLRH2Hd17TaLkDgOO2euOpRRvYpns=|10=035|
2022-08-09,17:02:21.023 : Session (FIX.4.2:b2c8f5f1-e97d-5df2-9b59-293bbead9f8a->COIN) logout !
2022-08-09,17:02:31.160 : (Admin) S >> 8=FIX.4.2|9=252|35=A|34=1|49=b2c8f5f1-e97d-5df2-9b59-293bbead9f8a|52=20220809-21:02:31.000|56=COIN|96=1dIrVZeY7UbabRH9tO5txp0lJlV/hDG+5JwLbsZCyAA=|98=0|108=30|141=Y|554=5Rb5KFBCGLQ=jitm2+8w6RS2krJWh2mvdQ==|9407=ZdlFsitVWo4=CTVXU2B1cbxDVAcLRH2Hd17TaLkDgOO2euOpRRvYpns=|10=209|
2022-08-09,17:02:41.100 : Session (FIX.4.2:b2c8f5f1-e97d-5df2-9b59-293bbead9f8a->COIN) logout !
2022-08-09,17:02:41.104 : (Admin) S >> 8=FIX.4.2|9=252|35=A|34=1|49=b2c8f5f1-e97d-5df2-9b59-293bbead9f8a|52=20220809-21:02:41.000|56=COIN|96=VGk7C9nPz3z6+8qXeCZuYVxncs74esM0efY6I82tdEg=|98=0|108=30|141=Y|554=5Rb5KFBCGLQ=jitm2+8w6RS2krJWh2mvdQ==|9407=ZdlFsitVWo4=CTVXU2B1cbxDVAcLRH2Hd17TaLkDgOO2euOpRRvYpns=|10=205|
2022-08-09,17:02:41.106 : Session (FIX.4.2:b2c8f5f1-e97d-5df2-9b59-293bbead9f8a->COIN) logout !
2022-08-09,17:02:51.131 : (Admin) S >> 8=FIX.4.2|9=252|35=A|34=1|49=b2c8f5f1-e97d-5df2-9b59-293bbead9f8a|52=20220809-21:02:51.000|56=COIN|96=OQwMh3d/q0KffO/T9+Rembs0c2OZScQQHlmXDIla0z8=|98=0|108=30|141=Y|554=5Rb5KFBCGLQ=jitm2+8w6RS2krJWh2mvdQ==|9407=ZdlFsitVWo4=CTVXU2B1cbxDVAcLRH2Hd17TaLkDgOO2euOpRRvYpns=|10=141|
2022-08-09,17:03:01.092 : Session (FIX.4.2:b2c8f5f1-e97d-5df2-9b59-293bbead9f8a->COIN) logout !
2022-08-09,17:03:01.099 : (Admin) S >> 8=FIX.4.2|9=252|35=A|34=1|49=b2c8f5f1-e97d-5df2-9b59-293bbead9f8a|52=20220809-21:03:01.000|56=COIN|96=Wc/Q0tMrcKochrLOWfN2dHbvtcYOyB04ve+i5FfgucE=|98=0|108=30|141=Y|554=5Rb5KFBCGLQ=jitm2+8w6RS2krJWh2mvdQ==|9407=ZdlFsitVWo4=CTVXU2B1cbxDVAcLRH2Hd17TaLkDgOO2euOpRRvYpns=|10=090|
2022-08-09,17:03:01.102 : Session (FIX.4.2:b2c8f5f1-e97d-5df2-9b59-293bbead9f8a->COIN) logout !
2022-08-09,17:03:11.650 : (Admin) S >> 8=FIX.4.2|9=252|35=A|34=1|49=b2c8f5f1-e97d-5df2-9b59-293bbead9f8a|52=20220809-21:03:11.000|56=COIN|96=UVi3dJxHeAdtBx1ZGiP0h+ZEPKftNW+pHuXQlz/nlvU=|98=0|108=30|141=Y|554=5Rb5KFBCGLQ=jitm2+8w6RS2krJWh2mvdQ==|9407=ZdlFsitVWo4=CTVXU2B1cbxDVAcLRH2Hd17TaLkDgOO2euOpRRvYpns=|10=069|
2022-08-09,17:03:21.684 : Session (FIX.4.2:b2c8f5f1-e97d-5df2-9b59-293bbead9f8a->COIN) logout !
2022-08-09,17:03:21.695 : (Admin) S >> 8=FIX.4.2|9=252|35=A|34=1|49=b2c8f5f1-e97d-5df2-9b59-293bbead9f8a|52=20220809-21:03:21.000|56=COIN|96=fu+B52B8qZ1JaseEHn2j2+4KBMSSnvTqLTQ3L9PJumw=|98=0|108=30|141=Y|554=5Rb5KFBCGLQ=jitm2+8w6RS2krJWh2mvdQ==|9407=ZdlFsitVWo4=CTVXU2B1cbxDVAcLRH2Hd17TaLkDgOO2euOpRRvYpns=|10=044|
2022-08-09,17:03:21.701 : Session (FIX.4.2:b2c8f5f1-e97d-5df2-9b59-293bbead9f8a->COIN) logout !
2022-08-09,17:03:32.095 : (Admin) S >> 8=FIX.4.2|9=252|35=A|34=1|49=b2c8f5f1-e97d-5df2-9b59-293bbead9f8a|52=20220809-21:03:32.000|56=COIN|96=cRLIDhDGVcRG4PsZX62uVq3j0uIeVQpjhsJedRlfgas=|98=0|108=30|141=Y|554=5Rb5KFBCGLQ=jitm2+8w6RS2krJWh2mvdQ==|9407=ZdlFsitVWo4=CTVXU2B1cbxDVAcLRH2Hd17TaLkDgOO2euOpRRvYpns=|10=119|
2022-08-09,17:03:42.528 : Session (FIX.4.2:b2c8f5f1-e97d-5df2-9b59-293bbead9f8a->COIN) logout !
2022-08-09,17:03:42.538 : (Admin) S >> 8=FIX.4.2|9=252|35=A|34=1|49=b2c8f5f1-e97d-5df2-9b59-293bbead9f8a|52=20220809-21:03:42.000|56=COIN|96=t4SkpuY4lB5h3BAqvL2WXQ6NXlBw7F+yDebEjOetZlM=|98=0|108=30|141=Y|554=5Rb5KFBCGLQ=jitm2+8w6RS2krJWh2mvdQ==|9407=ZdlFsitVWo4=CTVXU2B1cbxDVAcLRH2Hd17TaLkDgOO2euOpRRvYpns=|10=239|
2022-08-09,17:03:42.542 : Session (FIX.4.2:b2c8f5f1-e97d-5df2-9b59-293bbead9f8a->COIN) logout !
2022-08-09,17:03:51.320 : (Admin) S >> 8=FIX.4.2|9=252|35=A|34=1|49=b2c8f5f1-e97d-5df2-9b59-293bbead9f8a|52=20220809-21:03:51.000|56=COIN|96=FIiz+tYgsFTtj7SinFLJqAqIANo32c2Sct3o8Kz0KAA=|98=0|108=30|141=Y|554=5Rb5KFBCGLQ=jitm2+8w6RS2krJWh2mvdQ==|9407=ZdlFsitVWo4=CTVXU2B1cbxDVAcLRH2Hd17TaLkDgOO2euOpRRvYpns=|10=189|
2022-08-09,17:04:01.098 : Session (FIX.4.2:b2c8f5f1-e97d-5df2-9b59-293bbead9f8a->COIN) logout !
2022-08-09,17:04:01.108 : (Admin) S >> 8=FIX.4.2|9=252|35=A|34=1|49=b2c8f5f1-e97d-5df2-9b59-293bbead9f8a|52=20220809-21:04:01.000|56=COIN|96=bpS0kSIlF+4fZ5y9d4deOQYu8+mEUyH3TFIMHjxLDQo=|98=0|108=30|141=Y|554=5Rb5KFBCGLQ=jitm2+8w6RS2krJWh2mvdQ==|9407=ZdlFsitVWo4=CTVXU2B1cbxDVAcLRH2Hd17TaLkDgOO2euOpRRvYpns=|10=129|
2022-08-09,17:04:01.112 : Session (FIX.4.2:b2c8f5f1-e97d-5df2-9b59-293bbead9f8a->COIN) logout !
2022-08-09,17:04:11.118 : (Admin) S >> 8=FIX.4.2|9=252|35=A|34=1|49=b2c8f5f1-e97d-5df2-9b59-293bbead9f8a|52=20220809-21:04:11.000|56=COIN|96=3YbgizWA6l9oOYuxcoCR6BYTUXyw1qAtQiXKj8JrV/0=|98=0|108=30|141=Y|554=5Rb5KFBCGLQ=jitm2+8w6RS2krJWh2mvdQ==|9407=ZdlFsitVWo4=CTVXU2B1cbxDVAcLRH2Hd17TaLkDgOO2euOpRRvYpns=|10=054|
2022-08-09,17:04:21.202 : Session (FIX.4.2:b2c8f5f1-e97d-5df2-9b59-293bbead9f8a->COIN) logout !
2022-08-09,17:04:21.207 : (Admin) S >> 8=FIX.4.2|9=252|35=A|34=1|49=b2c8f5f1-e97d-5df2-9b59-293bbead9f8a|52=20220809-21:04:21.000|56=COIN|96=3Ewc7DqBSyqiM3Y1OL6XK6FsKUMVgsI5KAcHaDrlIM0=|98=0|108=30|141=Y|554=5Rb5KFBCGLQ=jitm2+8w6RS2krJWh2mvdQ==|9407=ZdlFsitVWo4=CTVXU2B1cbxDVAcLRH2Hd17TaLkDgOO2euOpRRvYpns=|10=070|
2022-08-09,17:04:21.210 : Session (FIX.4.2:b2c8f5f1-e97d-5df2-9b59-293bbead9f8a->COIN) logout !
2022-08-09,17:04:31.195 : (Admin) S >> 8=FIX.4.2|9=252|35=A|34=1|49=b2c8f5f1-e97d-5df2-9b59-293bbead9f8a|52=20220809-21:04:31.000|56=COIN|96=gjIhCqjQqC3XiUh/lzCMimpN5woF9T3DdHkYF8WrvaI=|98=0|108=30|141=Y|554=5Rb5KFBCGLQ=jitm2+8w6RS2krJWh2mvdQ==|9407=ZdlFsitVWo4=CTVXU2B1cbxDVAcLRH2Hd17TaLkDgOO2euOpRRvYpns=|10=100|
2022-08-09,17:04:41.040 : Session (FIX.4.2:b2c8f5f1-e97d-5df2-9b59-293bbead9f8a->COIN) logout !
2022-08-09,17:04:41.050 : (Admin) S >> 8=FIX.4.2|9=252|35=A|34=1|49=b2c8f5f1-e97d-5df2-9b59-293bbead9f8a|52=20220809-21:04:41.000|56=COIN|96=+0uqOihlICSMVA1S/bETOwcVR+I9PodSOzn+4d+yV5Y=|98=0|108=30|141=Y|554=5Rb5KFBCGLQ=jitm2+8w6RS2krJWh2mvdQ==|9407=ZdlFsitVWo4=CTVXU2B1cbxDVAcLRH2Hd17TaLkDgOO2euOpRRvYpns=|10=078|
2022-08-09,17:04:41.054 : Session (FIX.4.2:b2c8f5f1-e97d-5df2-9b59-293bbead9f8a->COIN) logout !
2022-08-09,17:04:51.294 : (Admin) S >> 8=FIX.4.2|9=252|35=A|34=1|49=b2c8f5f1-e97d-5df2-9b59-293bbead9f8a|52=20220809-21:04:51.000|56=COIN|96=ZzQt7RBuMT0VFPgoQ648qtBjZI/2RBEQbI3oYGIpx0U=|98=0|108=30|141=Y|554=5Rb5KFBCGLQ=jitm2+8w6RS2krJWh2mvdQ==|9407=ZdlFsitVWo4=CTVXU2B1cbxDVAcLRH2Hd17TaLkDgOO2euOpRRvYpns=|10=092|
2022-08-09,17:05:01.331 : Session (FIX.4.2:b2c8f5f1-e97d-5df2-9b59-293bbead9f8a->COIN) logout !
2022-08-09,17:05:01.338 : (Admin) S >> 8=FIX.4.2|9=252|35=A|34=1|49=b2c8f5f1-e97d-5df2-9b59-293bbead9f8a|52=20220809-21:05:01.000|56=COIN|96=8HcCLym/bO9IMb+lDH9vE17NDArrcU3NkXoW2U33p8g=|98=0|108=30|141=Y|554=5Rb5KFBCGLQ=jitm2+8w6RS2krJWh2mvdQ==|9407=ZdlFsitVWo4=CTVXU2B1cbxDVAcLRH2Hd17TaLkDgOO2euOpRRvYpns=|10=244|
2022-08-09,17:05:01.342 : Session (FIX.4.2:b2c8f5f1-e97d-5df2-9b59-293bbead9f8a->COIN) logout !
2022-08-09,17:05:12.437 : (Admin) S >> 8=FIX.4.2|9=252|35=A|34=1|49=b2c8f5f1-e97d-5df2-9b59-293bbead9f8a|52=20220809-21:05:12.000|56=COIN|96=TADScrvqCU7cAxNFttyXk2q+XRVdSzDmUS7YvLDf6WI=|98=0|108=30|141=Y|554=5Rb5KFBCGLQ=jitm2+8w6RS2krJWh2mvdQ==|9407=ZdlFsitVWo4=CTVXU2B1cbxDVAcLRH2Hd17TaLkDgOO2euOpRRvYpns=|10=078|
2022-08-09,17:05:22.686 : Session (FIX.4.2:b2c8f5f1-e97d-5df2-9b59-293bbead9f8a->COIN) logout !
2022-08-09,17:05:22.690 : (Admin) S >> 8=FIX.4.2|9=252|35=A|34=1|49=b2c8f5f1-e97d-5df2-9b59-293bbead9f8a|52=20220809-21:05:22.000|56=COIN|96=pQAjtT3mz0QjvHGYqvLdXM47ExMy1zTmZXNDP71PRTE=|98=0|108=30|141=Y|554=5Rb5KFBCGLQ=jitm2+8w6RS2krJWh2mvdQ==|9407=ZdlFsitVWo4=CTVXU2B1cbxDVAcLRH2Hd17TaLkDgOO2euOpRRvYpns=|10=254|
2022-08-09,17:05:22.692 : Session (FIX.4.2:b2c8f5f1-e97d-5df2-9b59-293bbead9f8a->COIN) logout !
2022-08-09,17:05:31.735 : (Admin) S >> 8=FIX.4.2|9=252|35=A|34=1|49=b2c8f5f1-e97d-5df2-9b59-293bbead9f8a|52=20220809-21:05:31.000|56=COIN|96=zNatuf0YvC27wGwbA4GEG1jPMB5bGe+im5oGqvb9arM=|98=0|108=30|141=Y|554=5Rb5KFBCGLQ=jitm2+8w6RS2krJWh2mvdQ==|9407=ZdlFsitVWo4=CTVXU2B1cbxDVAcLRH2Hd17TaLkDgOO2euOpRRvYpns=|10=231|
2022-08-09,17:05:41.105 : Session (FIX.4.2:b2c8f5f1-e97d-5df2-9b59-293bbead9f8a->COIN) logout !
2022-08-09,17:05:41.115 : (Admin) S >> 8=FIX.4.2|9=252|35=A|34=1|49=b2c8f5f1-e97d-5df2-9b59-293bbead9f8a|52=20220809-21:05:41.000|56=COIN|96=28+quNjXxwgxRiWC9C0g0dV6CZx6oWeRUbUIdRg7nnQ=|98=0|108=30|141=Y|554=5Rb5KFBCGLQ=jitm2+8w6RS2krJWh2mvdQ==|9407=ZdlFsitVWo4=CTVXU2B1cbxDVAcLRH2Hd17TaLkDgOO2euOpRRvYpns=|10=026|
2022-08-09,17:05:41.119 : Session (FIX.4.2:b2c8f5f1-e97d-5df2-9b59-293bbead9f8a->COIN) logout !
2022-08-09,17:05:51.254 : (Admin) S >> 8=FIX.4.2|9=252|35=A|34=1|49=b2c8f5f1-e97d-5df2-9b59-293bbead9f8a|52=20220809-21:05:51.000|56=COIN|96=rjhxwHXDNkB8GaX9kjVwfXnPZLqixz8NcyUYgIOPXuI=|98=0|108=30|141=Y|554=5Rb5KFBCGLQ=jitm2+8w6RS2krJWh2mvdQ==|9407=ZdlFsitVWo4=CTVXU2B1cbxDVAcLRH2Hd17TaLkDgOO2euOpRRvYpns=|10=036|
2022-08-09,17:05:53.743 : (Admin) R << 8=FIX.4.2|9=101|35=A|34=1|49=COIN|52=20220809-21:05:53.778|56=b2c8f5f1-e97d-5df2-9b59-293bbead9f8a|98=0|108=30|141=Y|10=213|
2022-08-09,17:05:53.744 : ---------------Successful Logon----------------
2022-08-09,17:06:23.827 : (Admin) R << 8=FIX.4.2|9=83|35=0|34=2|49=COIN|52=20220809-21:06:23.778|56=b2c8f5f1-e97d-5df2-9b59-293bbead9f8a|10=086|
2022-08-09,17:06:53.750 : (Admin) R << 8=FIX.4.2|9=83|35=0|34=3|49=COIN|52=20220809-21:06:53.779|56=b2c8f5f1-e97d-5df2-9b59-293bbead9f8a|10=091|
2022-08-09,17:07:23.751 : (Admin) R << 8=FIX.4.2|9=83|35=0|34=4|49=COIN|52=20220809-21:07:23.779|56=b2c8f5f1-e97d-5df2-9b59-293bbead9f8a|10=090|
2022-08-09,17:07:53.751 : (Admin) R << 8=FIX.4.2|9=83|35=0|34=5|49=COIN|52=20220809-21:07:53.779|56=b2c8f5f1-e97d-5df2-9b59-293bbead9f8a|10=094|
2022-08-09,17:08:23.795 : (Admin) R << 8=FIX.4.2|9=83|35=0|34=6|49=COIN|52=20220809-21:08:23.780|56=b2c8f5f1-e97d-5df2-9b59-293bbead9f8a|10=085|
